{
  "_format": "hh-sol-artifact-1",
  "contractName": "GlpManager",
  "sourceName": "contracts/core/GlpManager.sol",
  "abi": [
    {
      "inputs": [
        {
          "internalType": "address",
          "name": "_vault",
          "type": "address"
        },
        {
          "internalType": "address",
          "name": "_usdg",
          "type": "address"
        },
        {
          "internalType": "address",
          "name": "_glp",
          "type": "address"
        },
        {
          "internalType": "address",
          "name": "_shortsTracker",
          "type": "address"
        },
        {
          "internalType": "uint256",
          "name": "_cooldownDuration",
          "type": "uint256"
        }
      ],
      "stateMutability": "nonpayable",
      "type": "constructor"
    },
    {
      "anonymous": false,
      "inputs": [
        {
          "indexed": false,
          "internalType": "address",
          "name": "account",
          "type": "address"
        },
        {
          "indexed": false,
          "internalType": "address",
          "name": "token",
          "type": "address"
        },
        {
          "indexed": false,
          "internalType": "uint256",
          "name": "amount",
          "type": "uint256"
        },
        {
          "indexed": false,
          "internalType": "uint256",
          "name": "aumInUsdg",
          "type": "uint256"
        },
        {
          "indexed": false,
          "internalType": "uint256",
          "name": "glpSupply",
          "type": "uint256"
        },
        {
          "indexed": false,
          "internalType": "uint256",
          "name": "usdgAmount",
          "type": "uint256"
        },
        {
          "indexed": false,
          "internalType": "uint256",
          "name": "mintAmount",
          "type": "uint256"
        }
      ],
      "name": "AddLiquidity",
      "type": "event"
    },
    {
      "anonymous": false,
      "inputs": [
        {
          "indexed": false,
          "internalType": "address",
          "name": "account",
          "type": "address"
        },
        {
          "indexed": false,
          "internalType": "address",
          "name": "token",
          "type": "address"
        },
        {
          "indexed": false,
          "internalType": "uint256",
          "name": "glpAmount",
          "type": "uint256"
        },
        {
          "indexed": false,
          "internalType": "uint256",
          "name": "aumInUsdg",
          "type": "uint256"
        },
        {
          "indexed": false,
          "internalType": "uint256",
          "name": "glpSupply",
          "type": "uint256"
        },
        {
          "indexed": false,
          "internalType": "uint256",
          "name": "usdgAmount",
          "type": "uint256"
        },
        {
          "indexed": false,
          "internalType": "uint256",
          "name": "amountOut",
          "type": "uint256"
        }
      ],
      "name": "RemoveLiquidity",
      "type": "event"
    },
    {
      "anonymous": false,
      "inputs": [
        {
          "indexed": false,
          "internalType": "uint256",
          "name": "arg",
          "type": "uint256"
        }
      ],
      "name": "Test",
      "type": "event"
    },
    {
      "inputs": [],
      "name": "BASIS_POINTS_DIVISOR",
      "outputs": [
        {
          "internalType": "uint256",
          "name": "",
          "type": "uint256"
        }
      ],
      "stateMutability": "view",
      "type": "function"
    },
    {
      "inputs": [],
      "name": "GLP_PRECISION",
      "outputs": [
        {
          "internalType": "uint256",
          "name": "",
          "type": "uint256"
        }
      ],
      "stateMutability": "view",
      "type": "function"
    },
    {
      "inputs": [],
      "name": "MAX_COOLDOWN_DURATION",
      "outputs": [
        {
          "internalType": "uint256",
          "name": "",
          "type": "uint256"
        }
      ],
      "stateMutability": "view",
      "type": "function"
    },
    {
      "inputs": [],
      "name": "PRICE_PRECISION",
      "outputs": [
        {
          "internalType": "uint256",
          "name": "",
          "type": "uint256"
        }
      ],
      "stateMutability": "view",
      "type": "function"
    },
    {
      "inputs": [],
      "name": "USDG_DECIMALS",
      "outputs": [
        {
          "internalType": "uint256",
          "name": "",
          "type": "uint256"
        }
      ],
      "stateMutability": "view",
      "type": "function"
    },
    {
      "inputs": [
        {
          "internalType": "address",
          "name": "_token",
          "type": "address"
        },
        {
          "internalType": "uint256",
          "name": "_amount",
          "type": "uint256"
        },
        {
          "internalType": "uint256",
          "name": "_minUsdg",
          "type": "uint256"
        },
        {
          "internalType": "uint256",
          "name": "_minGlp",
          "type": "uint256"
        }
      ],
      "name": "addLiquidity",
      "outputs": [
        {
          "internalType": "uint256",
          "name": "",
          "type": "uint256"
        }
      ],
      "stateMutability": "nonpayable",
      "type": "function"
    },
    {
      "inputs": [
        {
          "internalType": "address",
          "name": "_fundingAccount",
          "type": "address"
        },
        {
          "internalType": "address",
          "name": "_account",
          "type": "address"
        },
        {
          "internalType": "address",
          "name": "_token",
          "type": "address"
        },
        {
          "internalType": "uint256",
          "name": "_amount",
          "type": "uint256"
        },
        {
          "internalType": "uint256",
          "name": "_minUsdg",
          "type": "uint256"
        },
        {
          "internalType": "uint256",
          "name": "_minGlp",
          "type": "uint256"
        }
      ],
      "name": "addLiquidityForAccount",
      "outputs": [
        {
          "internalType": "uint256",
          "name": "",
          "type": "uint256"
        }
      ],
      "stateMutability": "nonpayable",
      "type": "function"
    },
    {
      "inputs": [],
      "name": "aumAddition",
      "outputs": [
        {
          "internalType": "uint256",
          "name": "",
          "type": "uint256"
        }
      ],
      "stateMutability": "view",
      "type": "function"
    },
    {
      "inputs": [],
      "name": "aumDeduction",
      "outputs": [
        {
          "internalType": "uint256",
          "name": "",
          "type": "uint256"
        }
      ],
      "stateMutability": "view",
      "type": "function"
    },
    {
      "inputs": [],
      "name": "cooldownDuration",
      "outputs": [
        {
          "internalType": "uint256",
          "name": "",
          "type": "uint256"
        }
      ],
      "stateMutability": "view",
      "type": "function"
    },
    {
      "inputs": [
        {
          "internalType": "bool",
          "name": "maximise",
          "type": "bool"
        }
      ],
      "name": "getAum",
      "outputs": [
        {
          "internalType": "uint256",
          "name": "",
          "type": "uint256"
        }
      ],
      "stateMutability": "view",
      "type": "function"
    },
    {
      "inputs": [
        {
          "internalType": "bool",
          "name": "maximise",
          "type": "bool"
        }
      ],
      "name": "getAumInUsdg",
      "outputs": [
        {
          "internalType": "uint256",
          "name": "",
          "type": "uint256"
        }
      ],
      "stateMutability": "view",
      "type": "function"
    },
    {
      "inputs": [],
      "name": "getAums",
      "outputs": [
        {
          "internalType": "uint256[]",
          "name": "",
          "type": "uint256[]"
        }
      ],
      "stateMutability": "view",
      "type": "function"
    },
    {
      "inputs": [
        {
          "internalType": "address",
          "name": "_token",
          "type": "address"
        }
      ],
      "name": "getGlobalShortAveragePrice",
      "outputs": [
        {
          "internalType": "uint256",
          "name": "",
          "type": "uint256"
        }
      ],
      "stateMutability": "view",
      "type": "function"
    },
    {
      "inputs": [
        {
          "internalType": "address",
          "name": "_token",
          "type": "address"
        },
        {
          "internalType": "uint256",
          "name": "_price",
          "type": "uint256"
        },
        {
          "internalType": "uint256",
          "name": "_size",
          "type": "uint256"
        }
      ],
      "name": "getGlobalShortDelta",
      "outputs": [
        {
          "internalType": "uint256",
          "name": "",
          "type": "uint256"
        },
        {
          "internalType": "bool",
          "name": "",
          "type": "bool"
        }
      ],
      "stateMutability": "view",
      "type": "function"
    },
    {
      "inputs": [
        {
          "internalType": "bool",
          "name": "_maximise",
          "type": "bool"
        }
      ],
      "name": "getPrice",
      "outputs": [
        {
          "internalType": "uint256",
          "name": "",
          "type": "uint256"
        }
      ],
      "stateMutability": "view",
      "type": "function"
    },
    {
      "inputs": [],
      "name": "glp",
      "outputs": [
        {
          "internalType": "address",
          "name": "",
          "type": "address"
        }
      ],
      "stateMutability": "view",
      "type": "function"
    },
    {
      "inputs": [],
      "name": "gov",
      "outputs": [
        {
          "internalType": "address",
          "name": "",
          "type": "address"
        }
      ],
      "stateMutability": "view",
      "type": "function"
    },
    {
      "inputs": [],
      "name": "inPrivateMode",
      "outputs": [
        {
          "internalType": "bool",
          "name": "",
          "type": "bool"
        }
      ],
      "stateMutability": "view",
      "type": "function"
    },
    {
      "inputs": [
        {
          "internalType": "address",
          "name": "",
          "type": "address"
        }
      ],
      "name": "isHandler",
      "outputs": [
        {
          "internalType": "bool",
          "name": "",
          "type": "bool"
        }
      ],
      "stateMutability": "view",
      "type": "function"
    },
    {
      "inputs": [
        {
          "internalType": "address",
          "name": "",
          "type": "address"
        }
      ],
      "name": "lastAddedAt",
      "outputs": [
        {
          "internalType": "uint256",
          "name": "",
          "type": "uint256"
        }
      ],
      "stateMutability": "view",
      "type": "function"
    },
    {
      "inputs": [
        {
          "internalType": "address",
          "name": "_tokenOut",
          "type": "address"
        },
        {
          "internalType": "uint256",
          "name": "_glpAmount",
          "type": "uint256"
        },
        {
          "internalType": "uint256",
          "name": "_minOut",
          "type": "uint256"
        },
        {
          "internalType": "address",
          "name": "_receiver",
          "type": "address"
        }
      ],
      "name": "removeLiquidity",
      "outputs": [
        {
          "internalType": "uint256",
          "name": "",
          "type": "uint256"
        }
      ],
      "stateMutability": "nonpayable",
      "type": "function"
    },
    {
      "inputs": [
        {
          "internalType": "address",
          "name": "_account",
          "type": "address"
        },
        {
          "internalType": "address",
          "name": "_tokenOut",
          "type": "address"
        },
        {
          "internalType": "uint256",
          "name": "_glpAmount",
          "type": "uint256"
        },
        {
          "internalType": "uint256",
          "name": "_minOut",
          "type": "uint256"
        },
        {
          "internalType": "address",
          "name": "_receiver",
          "type": "address"
        }
      ],
      "name": "removeLiquidityForAccount",
      "outputs": [
        {
          "internalType": "uint256",
          "name": "",
          "type": "uint256"
        }
      ],
      "stateMutability": "nonpayable",
      "type": "function"
    },
    {
      "inputs": [
        {
          "internalType": "uint256",
          "name": "_aumAddition",
          "type": "uint256"
        },
        {
          "internalType": "uint256",
          "name": "_aumDeduction",
          "type": "uint256"
        }
      ],
      "name": "setAumAdjustment",
      "outputs": [],
      "stateMutability": "nonpayable",
      "type": "function"
    },
    {
      "inputs": [
        {
          "internalType": "uint256",
          "name": "_cooldownDuration",
          "type": "uint256"
        }
      ],
      "name": "setCooldownDuration",
      "outputs": [],
      "stateMutability": "nonpayable",
      "type": "function"
    },
    {
      "inputs": [
        {
          "internalType": "address",
          "name": "_gov",
          "type": "address"
        }
      ],
      "name": "setGov",
      "outputs": [],
      "stateMutability": "nonpayable",
      "type": "function"
    },
    {
      "inputs": [
        {
          "internalType": "address",
          "name": "_handler",
          "type": "address"
        },
        {
          "internalType": "bool",
          "name": "_isActive",
          "type": "bool"
        }
      ],
      "name": "setHandler",
      "outputs": [],
      "stateMutability": "nonpayable",
      "type": "function"
    },
    {
      "inputs": [
        {
          "internalType": "bool",
          "name": "_inPrivateMode",
          "type": "bool"
        }
      ],
      "name": "setInPrivateMode",
      "outputs": [],
      "stateMutability": "nonpayable",
      "type": "function"
    },
    {
      "inputs": [
        {
          "internalType": "contract IShortsTracker",
          "name": "_shortsTracker",
          "type": "address"
        }
      ],
      "name": "setShortsTracker",
      "outputs": [],
      "stateMutability": "nonpayable",
      "type": "function"
    },
    {
      "inputs": [
        {
          "internalType": "uint256",
          "name": "_shortsTrackerAveragePriceWeight",
          "type": "uint256"
        }
      ],
      "name": "setShortsTrackerAveragePriceWeight",
      "outputs": [],
      "stateMutability": "nonpayable",
      "type": "function"
    },
    {
      "inputs": [],
      "name": "shortsTracker",
      "outputs": [
        {
          "internalType": "contract IShortsTracker",
          "name": "",
          "type": "address"
        }
      ],
      "stateMutability": "view",
      "type": "function"
    },
    {
      "inputs": [],
      "name": "shortsTrackerAveragePriceWeight",
      "outputs": [
        {
          "internalType": "uint256",
          "name": "",
          "type": "uint256"
        }
      ],
      "stateMutability": "view",
      "type": "function"
    },
    {
      "inputs": [],
      "name": "usdg",
      "outputs": [
        {
          "internalType": "address",
          "name": "",
          "type": "address"
        }
      ],
      "stateMutability": "view",
      "type": "function"
    },
    {
      "inputs": [],
      "name": "vault",
      "outputs": [
        {
          "internalType": "contract IVault",
          "name": "",
          "type": "address"
        }
      ],
      "stateMutability": "view",
      "type": "function"
    }
  ],
  "bytecode": "0x608060405234801561001057600080fd5b50604051612664380380612664833981810160405260a081101561003357600080fd5b5080516020820151604083015160608401516080909401516001600081905580546001600160a01b031990811633908117821617909155600280546001600160a01b03968716908316179055600480549486169482169490941790935560058054928516928416929092179091556003805493909416929091169190911790915560065561259e806100c66000396000f3fe608060405234801561001057600080fd5b50600436106101965760003560e01c8063033914761461019b578063070eacee146101cc578063126082cf146101e857806312d43a51146101f057806317eb2a1514610214578063196b68cb1461025c5780631e9049cf146102645780631ece366a1461026c57806335269315146102a4578063440d828a146102ac57806346ea87af146102d25780634f5f6b5e146102f857806364e6617f14610317578063657bc5d01461031f578063662f1c681461032757806368a0a3e01461032f5780636a86da191461034e57806371d597ad1461036d57806378a207ee146103b1578063870d917c146103b95780638b770e11146103c15780638fed0b2c146103e75780639116c4ae1461042157806395082d2514610444578063966be0751461044c5780639cb7de4b14610469578063a1acd3d514610497578063b172bb0c146104e2578063cfad57a2146104ea578063d34ee09314610510578063e245b5af14610536578063ed0d1c0414610555578063f5b91b7b146105ad578063fbfa77cf146105b5575b600080fd5b6101ba600480360360208110156101b157600080fd5b503515156105bd565b60408051918252519081900360200190f35b6101d4610c3b565b604080519115158252519081900360200190f35b6101ba610c44565b6101f8610c4a565b604080516001600160a01b039092168252519081900360200190f35b6101ba600480360360c081101561022a57600080fd5b506001600160a01b03813581169160208101358216916040820135169060608101359060808101359060a00135610c59565b6101ba610ccf565b6101ba610cd5565b6101ba6004803603608081101561028257600080fd5b506001600160a01b038135169060208101359060408101359060600135610cdc565b6101ba610d8e565b6101ba600480360360208110156102c257600080fd5b50356001600160a01b0316610d94565b6101d4600480360360208110156102e857600080fd5b50356001600160a01b03166110a5565b6103156004803603602081101561030e57600080fd5b50356110ba565b005b6101ba611162565b6101f8611168565b6101ba611177565b6101ba6004803603602081101561034557600080fd5b50351515611183565b6103156004803603602081101561036457600080fd5b503515156111ba565b6101ba600480360360a081101561038357600080fd5b506001600160a01b03813581169160208101358216916040820135916060810135916080909101351661121a565b6101f861127c565b6101ba61128b565b6101ba600480360360208110156103d757600080fd5b50356001600160a01b0316611290565b6101ba600480360360808110156103fd57600080fd5b506001600160a01b03813581169160208101359160408201359160600135166112a2565b6103156004803603604081101561043757600080fd5b5080359060200135611350565b6101ba6113a8565b6103156004803603602081101561046257600080fd5b50356113b8565b6103156004803603604081101561047f57600080fd5b506001600160a01b038135169060200135151561144c565b6104c9600480360360608110156104ad57600080fd5b506001600160a01b0381351690602081013590604001356114c4565b6040805192835290151560208301528051918290030190f35b6101ba611518565b6103156004803603602081101561050057600080fd5b50356001600160a01b031661151e565b6103156004803603602081101561052657600080fd5b50356001600160a01b031661158d565b6101ba6004803603602081101561054c57600080fd5b503515156115fc565b61055d6116a6565b60408051602080825283518183015283519192839290830191858101910280838360005b83811015610599578181015183820152602001610581565b505050509050019250505060405180910390f35b6101f8611714565b6101f8611723565b600080600260009054906101000a90046001600160a01b03166001600160a01b0316630842b0766040518163ffffffff1660e01b815260040160206040518083038186803b15801561060e57600080fd5b505afa158015610622573d6000803e3d6000fd5b505050506040513d602081101561063857600080fd5b5051600854600254919250906000906001600160a01b0316815b84811015610bf45760025460408051630e468baf60e41b81526004810184905290516000926001600160a01b03169163e468baf0916024808301926020929190829003018186803b1580156106a657600080fd5b505afa1580156106ba573d6000803e3d6000fd5b505050506040513d60208110156106d057600080fd5b505160025460408051630daf9c2160e41b81526001600160a01b0380851660048301529151939450600093919092169163daf9c210916024808301926020929190829003018186803b15801561072557600080fd5b505afa158015610739573d6000803e3d6000fd5b505050506040513d602081101561074f57600080fd5b505190508061075f575050610bec565b6000896107e457846001600160a01b03166381a612d6846040518263ffffffff1660e01b815260040180826001600160a01b0316815260200191505060206040518083038186803b1580156107b357600080fd5b505afa1580156107c7573d6000803e3d6000fd5b505050506040513d60208110156107dd57600080fd5b505161085e565b846001600160a01b031663e124e6d2846040518263ffffffff1660e01b815260040180826001600160a01b0316815260200191505060206040518083038186803b15801561083157600080fd5b505afa158015610845573d6000803e3d6000fd5b505050506040513d602081101561085b57600080fd5b50515b90506000856001600160a01b03166352f55eed856040518263ffffffff1660e01b815260040180826001600160a01b0316815260200191505060206040518083038186803b1580156108af57600080fd5b505afa1580156108c3573d6000803e3d6000fd5b505050506040513d60208110156108d957600080fd5b5051604080516323b95ceb60e21b81526001600160a01b038781166004830152915192935060009291891691638ee573ac91602480820192602092909190829003018186803b15801561092b57600080fd5b505afa15801561093f573d6000803e3d6000fd5b505050506040513d602081101561095557600080fd5b5051604080516342b60b0360e01b81526001600160a01b0388811660048301529151929350908916916342b60b0391602480820192602092909190829003018186803b1580156109a457600080fd5b505afa1580156109b8573d6000803e3d6000fd5b505050506040513d60208110156109ce57600080fd5b5051156109fe576109f76109f0600a83900a6109ea8587611732565b90611794565b8a906117d3565b9850610be6565b6000876001600160a01b0316638a78daa8876040518263ffffffff1660e01b815260040180826001600160a01b0316815260200191505060206040518083038186803b158015610a4d57600080fd5b505afa158015610a61573d6000803e3d6000fd5b505050506040513d6020811015610a7757600080fd5b505190508015610ab957600080610a8f8887856114c4565b9150915080610aa957610aa28c836117d3565b9b50610ab6565b610ab38b836117d3565b9a505b50505b610b3c886001600160a01b031663f07456ce886040518263ffffffff1660e01b815260040180826001600160a01b0316815260200191505060206040518083038186803b158015610b0957600080fd5b505afa158015610b1d573d6000803e3d6000fd5b505050506040513d6020811015610b3357600080fd5b50518b906117d3565b99506000886001600160a01b031663c3c7b9e9886040518263ffffffff1660e01b815260040180826001600160a01b0316815260200191505060206040518083038186803b158015610b8d57600080fd5b505afa158015610ba1573d6000803e3d6000fd5b505050506040513d6020811015610bb757600080fd5b50519050610be1610bda600a85900a6109ea88610bd4898761182b565b90611732565b8c906117d3565b9a5050505b50505050505b600101610652565b50828211610c0b57610c06838361182b565b610c0e565b60005b92508260095411610c2c57600954610c2790849061182b565b610c2f565b60005b9450505050505b919050565b600a5460ff1681565b61271081565b6001546001600160a01b031681565b600060026000541415610ca1576040805162461bcd60e51b815260206004820152601f602482015260008051602061244b833981519152604482015290519081900360640190fd5b6002600055610cae61186d565b6000610cbe8888888888886118cb565b600160005598975050505050505050565b60085481565b6202a30081565b600060026000541415610d24576040805162461bcd60e51b815260206004820152601f602482015260008051602061244b833981519152604482015290519081900360640190fd5b6002600055600a5460ff1615610d6f576040805162461bcd60e51b815260206004820152601e602482015260008051602061248b833981519152604482015290519081900360640190fd5b6000610d7f3333888888886118cb565b60016000559695505050505050565b60065481565b6003546000906001600160a01b0316801580610e125750806001600160a01b0316639a11178f6040518163ffffffff1660e01b815260040160206040518083038186803b158015610de457600080fd5b505afa158015610df8573d6000803e3d6000fd5b505050506040513d6020811015610e0e57600080fd5b5051155b15610e995760025460408051636274980360e01b81526001600160a01b038681166004830152915191909216916362749803916024808301926020929190829003018186803b158015610e6457600080fd5b505afa158015610e78573d6000803e3d6000fd5b505050506040513d6020811015610e8e57600080fd5b50519150610c369050565b600b5480610f245760025460408051636274980360e01b81526001600160a01b038781166004830152915191909216916362749803916024808301926020929190829003018186803b158015610eee57600080fd5b505afa158015610f02573d6000803e3d6000fd5b505050506040513d6020811015610f1857600080fd5b50519250610c36915050565b612710811415610f7b57816001600160a01b03166362749803856040518263ffffffff1660e01b815260040180826001600160a01b0316815260200191505060206040518083038186803b158015610eee57600080fd5b60025460408051636274980360e01b81526001600160a01b03878116600483015291516000939290921691636274980391602480820192602092909190829003018186803b158015610fcc57600080fd5b505afa158015610fe0573d6000803e3d6000fd5b505050506040513d6020811015610ff657600080fd5b505160408051636274980360e01b81526001600160a01b038881166004830152915192935060009291861691636274980391602480820192602092909190829003018186803b15801561104857600080fd5b505afa15801561105c573d6000803e3d6000fd5b505050506040513d602081101561107257600080fd5b50519050610c2f6127106109ea6110898487611732565b61109f6110986127108961182b565b8790611732565b906117d3565b600c6020526000908152604090205460ff1681565b6001546001600160a01b03163314611107576040805162461bcd60e51b8152602060048201526015602482015260008051602061246b833981519152604482015290519081900360640190fd5b612710600b54111561115d576040805162461bcd60e51b815260206004820152601a60248201527911db1c13585b9859d95c8e881a5b9d985b1a59081dd95a59da1d60321b604482015290519081900360640190fd5b600b55565b600b5481565b6003546001600160a01b031681565b670de0b6b3a764000081565b60008061118f836105bd565b90506111b368327cb2734119d3b7a9601e1b6109ea83670de0b6b3a7640000611732565b9392505050565b6001546001600160a01b03163314611207576040805162461bcd60e51b8152602060048201526015602482015260008051602061246b833981519152604482015290519081900360640190fd5b600a805460ff1916911515919091179055565b600060026000541415611262576040805162461bcd60e51b815260206004820152601f602482015260008051602061244b833981519152604482015290519081900360640190fd5b600260005561126f61186d565b610d7f8686868686611be4565b6005546001600160a01b031681565b601281565b60076020526000908152604090205481565b6000600260005414156112ea576040805162461bcd60e51b815260206004820152601f602482015260008051602061244b833981519152604482015290519081900360640190fd5b6002600055600a5460ff1615611335576040805162461bcd60e51b815260206004820152601e602482015260008051602061248b833981519152604482015290519081900360640190fd5b6113423386868686611be4565b600160005595945050505050565b6001546001600160a01b0316331461139d576040805162461bcd60e51b8152602060048201526015602482015260008051602061246b833981519152604482015290519081900360640190fd5b600891909155600955565b68327cb2734119d3b7a9601e1b81565b6001546001600160a01b03163314611405576040805162461bcd60e51b8152602060048201526015602482015260008051602061246b833981519152604482015290519081900360640190fd5b6202a3008111156114475760405162461bcd60e51b81526004018080602001828103825260258152602001806124266025913960400191505060405180910390fd5b600655565b6001546001600160a01b03163314611499576040805162461bcd60e51b8152602060048201526015602482015260008051602061246b833981519152604482015290519081900360640190fd5b6001600160a01b03919091166000908152600c60205260409020805460ff1916911515919091179055565b60008060006114d286610d94565b905060008582116114ec576114e7868361182b565b6114f6565b6114f6828761182b565b90506000611508836109ea8885611732565b9450505084109050935093915050565b60095481565b6001546001600160a01b0316331461156b576040805162461bcd60e51b8152602060048201526015602482015260008051602061246b833981519152604482015290519081900360640190fd5b600180546001600160a01b0319166001600160a01b0392909216919091179055565b6001546001600160a01b031633146115da576040805162461bcd60e51b8152602060048201526015602482015260008051602061246b833981519152604482015290519081900360640190fd5b600380546001600160a01b0319166001600160a01b0392909216919091179055565b600080611608836105bd565b90506000600560009054906101000a90046001600160a01b03166001600160a01b03166318160ddd6040518163ffffffff1660e01b815260040160206040518083038186803b15801561165a57600080fd5b505afa15801561166e573d6000803e3d6000fd5b505050506040513d602081101561168457600080fd5b5051905061169e816109ea84670de0b6b3a7640000611732565b949350505050565b6040805160028082526060808301845292839291906020830190803683370190505090506116d460016105bd565b816000815181106116e157fe5b6020026020010181815250506116f760006105bd565b8160018151811061170457fe5b6020908102919091010152905090565b6004546001600160a01b031681565b6002546001600160a01b031681565b6000826117415750600061178e565b8282028284828161174e57fe5b041461178b5760405162461bcd60e51b81526004018080602001828103825260218152602001806124d76021913960400191505060405180910390fd5b90505b92915050565b600061178b83836040518060400160405280601a815260200179536166654d6174683a206469766973696f6e206279207a65726f60301b815250612081565b60008282018381101561178b576040805162461bcd60e51b815260206004820152601b60248201527a536166654d6174683a206164646974696f6e206f766572666c6f7760281b604482015290519081900360640190fd5b600061178b83836040518060400160405280601e81526020017f536166654d6174683a207375627472616374696f6e206f766572666c6f770000815250612123565b336000908152600c602052604090205460ff166118c9576040805162461bcd60e51b815260206004820152601560248201527423b63826b0b730b3b2b91d103337b93134b23232b760591b604482015290519081900360640190fd5b565b600080841161191f576040805162461bcd60e51b815260206004820152601b60248201527a11db1c13585b9859d95c8e881a5b9d985b1a590817d85b5bdd5b9d602a1b604482015290519081900360640190fd5b600061192b6001611183565b90506000600560009054906101000a90046001600160a01b03166001600160a01b03166318160ddd6040518163ffffffff1660e01b815260040160206040518083038186803b15801561197d57600080fd5b505afa158015611991573d6000803e3d6000fd5b505050506040513d60208110156119a757600080fd5b50516002549091506119c8906001600160a01b03898116918c91168961217d565b6002546040805163817bb85760e01b81526001600160a01b038a811660048301523060248301529151600093929092169163817bb8579160448082019260209290919082900301818787803b158015611a2057600080fd5b505af1158015611a34573d6000803e3d6000fd5b505050506040513d6020811015611a4a57600080fd5b5051905085811015611a8d5760405162461bcd60e51b815260040180806020018281038252602481526020018061251b6024913960400191505060405180910390fd5b60008315611aa857611aa3846109ea8486611732565b611aaa565b815b905085811015611aeb5760405162461bcd60e51b81526004018080602001828103825260238152602001806124f86023913960400191505060405180910390fd5b600554604080516340c10f1960e01b81526001600160a01b038d8116600483015260248201859052915191909216916340c10f1991604480830192600092919082900301818387803b158015611b4057600080fd5b505af1158015611b54573d6000803e3d6000fd5b5050506001600160a01b03808c166000818152600760209081526040918290204290558151928352928d16928201929092528082018b9052606081018790526080810186905260a0810185905260c0810184905290517f38dc38b96482be64113daffd8d464ebda93e856b70ccfc605e69ccf892ab981e92509081900360e00190a19a9950505050505050505050565b6000808411611c3a576040805162461bcd60e51b815260206004820152601e60248201527f476c704d616e616765723a20696e76616c6964205f676c70416d6f756e740000604482015290519081900360640190fd5b6006546001600160a01b0387166000908152600760205260409020544291611c6291906117d3565b1115611c9f5760405162461bcd60e51b815260040180806020018281038252602c8152602001806124ab602c913960400191505060405180910390fd5b6000611cab6000611183565b90506000600560009054906101000a90046001600160a01b03166001600160a01b03166318160ddd6040518163ffffffff1660e01b815260040160206040518083038186803b158015611cfd57600080fd5b505afa158015611d11573d6000803e3d6000fd5b505050506040513d6020811015611d2757600080fd5b505190506000611d3b826109ea8986611732565b60048054604080516370a0823160e01b81523093810193909352519293506000926001600160a01b03909116916370a08231916024808301926020929190829003018186803b158015611d8d57600080fd5b505afa158015611da1573d6000803e3d6000fd5b505050506040513d6020811015611db757600080fd5b5051905080821115611e3e576004546001600160a01b03166340c10f1930611ddf858561182b565b6040518363ffffffff1660e01b815260040180836001600160a01b0316815260200182815260200192505050600060405180830381600087803b158015611e2557600080fd5b505af1158015611e39573d6000803e3d6000fd5b505050505b60055460408051632770a7eb60e21b81526001600160a01b038d81166004830152602482018c905291519190921691639dc29fac91604480830192600092919082900301818387803b158015611e9357600080fd5b505af1158015611ea7573d6000803e3d6000fd5b5050600480546002546040805163a9059cbb60e01b81526001600160a01b039283169481019490945260248401889052519116935063a9059cbb925060448083019260209291908290030181600087803b158015611f0457600080fd5b505af1158015611f18573d6000803e3d6000fd5b505050506040513d6020811015611f2e57600080fd5b505060025460408051630711e61960e41b81526001600160a01b038c8116600483015289811660248301529151600093929092169163711e61909160448082019260209290919082900301818787803b158015611f8a57600080fd5b505af1158015611f9e573d6000803e3d6000fd5b505050506040513d6020811015611fb457600080fd5b505190508781101561200d576040805162461bcd60e51b815260206004820152601f60248201527f476c704d616e616765723a20696e73756666696369656e74206f757470757400604482015290519081900360640190fd5b604080516001600160a01b03808e1682528c1660208201528082018b9052606081018790526080810186905260a0810185905260c0810183905290517f87b9679bb9a4944bafa98c267e7cd4a00ab29fed48afdefae25f0fca5da279409181900360e00190a19a9950505050505050505050565b6000818361210d5760405162461bcd60e51b81526004018080602001828103825283818151815260200191508051906020019080838360005b838110156120d25781810151838201526020016120ba565b50505050905090810190601f1680156120ff5780820380516001836020036101000a031916815260200191505b509250505060405180910390fd5b50600083858161211957fe5b0495945050505050565b600081848411156121755760405162461bcd60e51b81526020600482018181528351602484015283519092839260449091019190850190808383600083156120d25781810151838201526020016120ba565b505050900390565b604080516001600160a01b0380861660248301528416604482015260648082018490528251808303909101815260849091019091526020810180516001600160e01b03166323b872dd60e01b1790526121d79085906121dd565b50505050565b6060612232826040518060400160405280602081526020017f5361666545524332303a206c6f772d6c6576656c2063616c6c206661696c6564815250856001600160a01b03166122939092919063ffffffff16565b80519091501561228e5780806020019051602081101561225157600080fd5b505161228e5760405162461bcd60e51b815260040180806020018281038252602a81526020018061253f602a913960400191505060405180910390fd5b505050565b606061169e8484600085856122a7856123b9565b6122f8576040805162461bcd60e51b815260206004820152601d60248201527f416464726573733a2063616c6c20746f206e6f6e2d636f6e7472616374000000604482015290519081900360640190fd5b60006060866001600160a01b031685876040518082805190602001908083835b602083106123375780518252601f199092019160209182019101612318565b6001836020036101000a03801982511681845116808217855250505050505090500191505060006040518083038185875af1925050503d8060008114612399576040519150601f19603f3d011682016040523d82523d6000602084013e61239e565b606091505b50915091506123ae8282866123bf565b979650505050505050565b3b151590565b606083156123ce5750816111b3565b8251156123de5782518084602001fd5b60405162461bcd60e51b81526020600482018181528451602484015284518593919283926044019190850190808383600083156120d25781810151838201526020016120ba56fe476c704d616e616765723a20696e76616c6964205f636f6f6c646f776e4475726174696f6e5265656e7472616e637947756172643a207265656e7472616e742063616c6c00476f7665726e61626c653a20666f7262696464656e0000000000000000000000476c704d616e616765723a20616374696f6e206e6f7420656e61626c65640000476c704d616e616765723a20636f6f6c646f776e206475726174696f6e206e6f742079657420706173736564536166654d6174683a206d756c7469706c69636174696f6e206f766572666c6f77476c704d616e616765723a20696e73756666696369656e7420474c50206f7574707574476c704d616e616765723a20696e73756666696369656e742055534447206f75747075745361666545524332303a204552433230206f7065726174696f6e20646964206e6f742073756363656564a2646970667358221220d70188d04ee5e9bfeaaa29b7427cb1135557533126de18ce6f0285860e422dfa64736f6c634300060c0033",
  "linkReferences": {},
  "deployedLinkReferences": {}
}