{
  "_format": "hh-sol-artifact-1",
  "contractName": "VaultTest",
  "sourceName": "contracts/core/test/VaultTest.sol",
  "abi": [
    {
      "anonymous": false,
      "inputs": [
        {
          "indexed": false,
          "internalType": "address",
          "name": "account",
          "type": "address"
        },
        {
          "indexed": false,
          "internalType": "address",
          "name": "token",
          "type": "address"
        },
        {
          "indexed": false,
          "internalType": "uint256",
          "name": "tokenAmount",
          "type": "uint256"
        },
        {
          "indexed": false,
          "internalType": "uint256",
          "name": "usdgAmount",
          "type": "uint256"
        },
        {
          "indexed": false,
          "internalType": "uint256",
          "name": "feeBasisPoints",
          "type": "uint256"
        }
      ],
      "name": "BuyUSDG",
      "type": "event"
    },
    {
      "anonymous": false,
      "inputs": [
        {
          "indexed": false,
          "internalType": "bytes32",
          "name": "key",
          "type": "bytes32"
        },
        {
          "indexed": false,
          "internalType": "uint256",
          "name": "size",
          "type": "uint256"
        },
        {
          "indexed": false,
          "internalType": "uint256",
          "name": "collateral",
          "type": "uint256"
        },
        {
          "indexed": false,
          "internalType": "uint256",
          "name": "averagePrice",
          "type": "uint256"
        },
        {
          "indexed": false,
          "internalType": "uint256",
          "name": "entryFundingRate",
          "type": "uint256"
        },
        {
          "indexed": false,
          "internalType": "uint256",
          "name": "reserveAmount",
          "type": "uint256"
        },
        {
          "indexed": false,
          "internalType": "int256",
          "name": "realisedPnl",
          "type": "int256"
        }
      ],
      "name": "ClosePosition",
      "type": "event"
    },
    {
      "anonymous": false,
      "inputs": [
        {
          "indexed": false,
          "internalType": "address",
          "name": "token",
          "type": "address"
        },
        {
          "indexed": false,
          "internalType": "uint256",
          "name": "feeUsd",
          "type": "uint256"
        },
        {
          "indexed": false,
          "internalType": "uint256",
          "name": "feeTokens",
          "type": "uint256"
        }
      ],
      "name": "CollectMarginFees",
      "type": "event"
    },
    {
      "anonymous": false,
      "inputs": [
        {
          "indexed": false,
          "internalType": "address",
          "name": "token",
          "type": "address"
        },
        {
          "indexed": false,
          "internalType": "uint256",
          "name": "feeUsd",
          "type": "uint256"
        },
        {
          "indexed": false,
          "internalType": "uint256",
          "name": "feeTokens",
          "type": "uint256"
        }
      ],
      "name": "CollectSwapFees",
      "type": "event"
    },
    {
      "anonymous": false,
      "inputs": [
        {
          "indexed": false,
          "internalType": "address",
          "name": "token",
          "type": "address"
        },
        {
          "indexed": false,
          "internalType": "uint256",
          "name": "amount",
          "type": "uint256"
        }
      ],
      "name": "DecreaseGuaranteedUsd",
      "type": "event"
    },
    {
      "anonymous": false,
      "inputs": [
        {
          "indexed": false,
          "internalType": "address",
          "name": "token",
          "type": "address"
        },
        {
          "indexed": false,
          "internalType": "uint256",
          "name": "amount",
          "type": "uint256"
        }
      ],
      "name": "DecreasePoolAmount",
      "type": "event"
    },
    {
      "anonymous": false,
      "inputs": [
        {
          "indexed": false,
          "internalType": "bytes32",
          "name": "key",
          "type": "bytes32"
        },
        {
          "indexed": false,
          "internalType": "address",
          "name": "account",
          "type": "address"
        },
        {
          "indexed": false,
          "internalType": "address",
          "name": "collateralToken",
          "type": "address"
        },
        {
          "indexed": false,
          "internalType": "address",
          "name": "indexToken",
          "type": "address"
        },
        {
          "indexed": false,
          "internalType": "uint256",
          "name": "collateralDelta",
          "type": "uint256"
        },
        {
          "indexed": false,
          "internalType": "uint256",
          "name": "sizeDelta",
          "type": "uint256"
        },
        {
          "indexed": false,
          "internalType": "bool",
          "name": "isLong",
          "type": "bool"
        },
        {
          "indexed": false,
          "internalType": "uint256",
          "name": "price",
          "type": "uint256"
        },
        {
          "indexed": false,
          "internalType": "uint256",
          "name": "fee",
          "type": "uint256"
        }
      ],
      "name": "DecreasePosition",
      "type": "event"
    },
    {
      "anonymous": false,
      "inputs": [
        {
          "indexed": false,
          "internalType": "address",
          "name": "token",
          "type": "address"
        },
        {
          "indexed": false,
          "internalType": "uint256",
          "name": "amount",
          "type": "uint256"
        }
      ],
      "name": "DecreaseReservedAmount",
      "type": "event"
    },
    {
      "anonymous": false,
      "inputs": [
        {
          "indexed": false,
          "internalType": "address",
          "name": "token",
          "type": "address"
        },
        {
          "indexed": false,
          "internalType": "uint256",
          "name": "amount",
          "type": "uint256"
        }
      ],
      "name": "DecreaseUsdgAmount",
      "type": "event"
    },
    {
      "anonymous": false,
      "inputs": [
        {
          "indexed": false,
          "internalType": "address",
          "name": "token",
          "type": "address"
        },
        {
          "indexed": false,
          "internalType": "uint256",
          "name": "amount",
          "type": "uint256"
        }
      ],
      "name": "DirectPoolDeposit",
      "type": "event"
    },
    {
      "anonymous": false,
      "inputs": [
        {
          "indexed": false,
          "internalType": "address",
          "name": "token",
          "type": "address"
        },
        {
          "indexed": false,
          "internalType": "uint256",
          "name": "amount",
          "type": "uint256"
        }
      ],
      "name": "IncreaseGuaranteedUsd",
      "type": "event"
    },
    {
      "anonymous": false,
      "inputs": [
        {
          "indexed": false,
          "internalType": "address",
          "name": "token",
          "type": "address"
        },
        {
          "indexed": false,
          "internalType": "uint256",
          "name": "amount",
          "type": "uint256"
        }
      ],
      "name": "IncreasePoolAmount",
      "type": "event"
    },
    {
      "anonymous": false,
      "inputs": [
        {
          "indexed": false,
          "internalType": "bytes32",
          "name": "key",
          "type": "bytes32"
        },
        {
          "indexed": false,
          "internalType": "address",
          "name": "account",
          "type": "address"
        },
        {
          "indexed": false,
          "internalType": "address",
          "name": "collateralToken",
          "type": "address"
        },
        {
          "indexed": false,
          "internalType": "address",
          "name": "indexToken",
          "type": "address"
        },
        {
          "indexed": false,
          "internalType": "uint256",
          "name": "collateralDelta",
          "type": "uint256"
        },
        {
          "indexed": false,
          "internalType": "uint256",
          "name": "sizeDelta",
          "type": "uint256"
        },
        {
          "indexed": false,
          "internalType": "bool",
          "name": "isLong",
          "type": "bool"
        },
        {
          "indexed": false,
          "internalType": "uint256",
          "name": "price",
          "type": "uint256"
        },
        {
          "indexed": false,
          "internalType": "uint256",
          "name": "fee",
          "type": "uint256"
        }
      ],
      "name": "IncreasePosition",
      "type": "event"
    },
    {
      "anonymous": false,
      "inputs": [
        {
          "indexed": false,
          "internalType": "address",
          "name": "token",
          "type": "address"
        },
        {
          "indexed": false,
          "internalType": "uint256",
          "name": "amount",
          "type": "uint256"
        }
      ],
      "name": "IncreaseReservedAmount",
      "type": "event"
    },
    {
      "anonymous": false,
      "inputs": [
        {
          "indexed": false,
          "internalType": "address",
          "name": "token",
          "type": "address"
        },
        {
          "indexed": false,
          "internalType": "uint256",
          "name": "amount",
          "type": "uint256"
        }
      ],
      "name": "IncreaseUsdgAmount",
      "type": "event"
    },
    {
      "anonymous": false,
      "inputs": [
        {
          "indexed": false,
          "internalType": "bytes32",
          "name": "key",
          "type": "bytes32"
        },
        {
          "indexed": false,
          "internalType": "address",
          "name": "account",
          "type": "address"
        },
        {
          "indexed": false,
          "internalType": "address",
          "name": "collateralToken",
          "type": "address"
        },
        {
          "indexed": false,
          "internalType": "address",
          "name": "indexToken",
          "type": "address"
        },
        {
          "indexed": false,
          "internalType": "bool",
          "name": "isLong",
          "type": "bool"
        },
        {
          "indexed": false,
          "internalType": "uint256",
          "name": "size",
          "type": "uint256"
        },
        {
          "indexed": false,
          "internalType": "uint256",
          "name": "collateral",
          "type": "uint256"
        },
        {
          "indexed": false,
          "internalType": "uint256",
          "name": "reserveAmount",
          "type": "uint256"
        },
        {
          "indexed": false,
          "internalType": "int256",
          "name": "realisedPnl",
          "type": "int256"
        },
        {
          "indexed": false,
          "internalType": "uint256",
          "name": "markPrice",
          "type": "uint256"
        }
      ],
      "name": "LiquidatePosition",
      "type": "event"
    },
    {
      "anonymous": false,
      "inputs": [
        {
          "indexed": false,
          "internalType": "address",
          "name": "account",
          "type": "address"
        },
        {
          "indexed": false,
          "internalType": "address",
          "name": "token",
          "type": "address"
        },
        {
          "indexed": false,
          "internalType": "uint256",
          "name": "usdgAmount",
          "type": "uint256"
        },
        {
          "indexed": false,
          "internalType": "uint256",
          "name": "tokenAmount",
          "type": "uint256"
        },
        {
          "indexed": false,
          "internalType": "uint256",
          "name": "feeBasisPoints",
          "type": "uint256"
        }
      ],
      "name": "SellUSDG",
      "type": "event"
    },
    {
      "anonymous": false,
      "inputs": [
        {
          "indexed": false,
          "internalType": "address",
          "name": "account",
          "type": "address"
        },
        {
          "indexed": false,
          "internalType": "address",
          "name": "tokenIn",
          "type": "address"
        },
        {
          "indexed": false,
          "internalType": "address",
          "name": "tokenOut",
          "type": "address"
        },
        {
          "indexed": false,
          "internalType": "uint256",
          "name": "amountIn",
          "type": "uint256"
        },
        {
          "indexed": false,
          "internalType": "uint256",
          "name": "amountOut",
          "type": "uint256"
        },
        {
          "indexed": false,
          "internalType": "uint256",
          "name": "amountOutAfterFees",
          "type": "uint256"
        },
        {
          "indexed": false,
          "internalType": "uint256",
          "name": "feeBasisPoints",
          "type": "uint256"
        }
      ],
      "name": "Swap",
      "type": "event"
    },
    {
      "anonymous": false,
      "inputs": [
        {
          "indexed": false,
          "internalType": "uint256",
          "name": "arg",
          "type": "uint256"
        },
        {
          "indexed": false,
          "internalType": "string",
          "name": "name",
          "type": "string"
        }
      ],
      "name": "Test",
      "type": "event"
    },
    {
      "anonymous": false,
      "inputs": [
        {
          "indexed": false,
          "internalType": "address",
          "name": "token",
          "type": "address"
        },
        {
          "indexed": false,
          "internalType": "uint256",
          "name": "fundingRate",
          "type": "uint256"
        }
      ],
      "name": "UpdateFundingRate",
      "type": "event"
    },
    {
      "anonymous": false,
      "inputs": [
        {
          "indexed": false,
          "internalType": "bytes32",
          "name": "key",
          "type": "bytes32"
        },
        {
          "indexed": false,
          "internalType": "bool",
          "name": "hasProfit",
          "type": "bool"
        },
        {
          "indexed": false,
          "internalType": "uint256",
          "name": "delta",
          "type": "uint256"
        }
      ],
      "name": "UpdatePnl",
      "type": "event"
    },
    {
      "anonymous": false,
      "inputs": [
        {
          "indexed": false,
          "internalType": "bytes32",
          "name": "key",
          "type": "bytes32"
        },
        {
          "indexed": false,
          "internalType": "uint256",
          "name": "size",
          "type": "uint256"
        },
        {
          "indexed": false,
          "internalType": "uint256",
          "name": "collateral",
          "type": "uint256"
        },
        {
          "indexed": false,
          "internalType": "uint256",
          "name": "averagePrice",
          "type": "uint256"
        },
        {
          "indexed": false,
          "internalType": "uint256",
          "name": "entryFundingRate",
          "type": "uint256"
        },
        {
          "indexed": false,
          "internalType": "uint256",
          "name": "reserveAmount",
          "type": "uint256"
        },
        {
          "indexed": false,
          "internalType": "int256",
          "name": "realisedPnl",
          "type": "int256"
        },
        {
          "indexed": false,
          "internalType": "uint256",
          "name": "markPrice",
          "type": "uint256"
        }
      ],
      "name": "UpdatePosition",
      "type": "event"
    },
    {
      "inputs": [],
      "name": "BASIS_POINTS_DIVISOR",
      "outputs": [
        {
          "internalType": "uint256",
          "name": "",
          "type": "uint256"
        }
      ],
      "stateMutability": "view",
      "type": "function"
    },
    {
      "inputs": [],
      "name": "FUNDING_RATE_PRECISION",
      "outputs": [
        {
          "internalType": "uint256",
          "name": "",
          "type": "uint256"
        }
      ],
      "stateMutability": "view",
      "type": "function"
    },
    {
      "inputs": [],
      "name": "MAX_FEE_BASIS_POINTS",
      "outputs": [
        {
          "internalType": "uint256",
          "name": "",
          "type": "uint256"
        }
      ],
      "stateMutability": "view",
      "type": "function"
    },
    {
      "inputs": [],
      "name": "MAX_FUNDING_RATE_FACTOR",
      "outputs": [
        {
          "internalType": "uint256",
          "name": "",
          "type": "uint256"
        }
      ],
      "stateMutability": "view",
      "type": "function"
    },
    {
      "inputs": [],
      "name": "MAX_LIQUIDATION_FEE_USD",
      "outputs": [
        {
          "internalType": "uint256",
          "name": "",
          "type": "uint256"
        }
      ],
      "stateMutability": "view",
      "type": "function"
    },
    {
      "inputs": [],
      "name": "MIN_FUNDING_RATE_INTERVAL",
      "outputs": [
        {
          "internalType": "uint256",
          "name": "",
          "type": "uint256"
        }
      ],
      "stateMutability": "view",
      "type": "function"
    },
    {
      "inputs": [],
      "name": "MIN_LEVERAGE",
      "outputs": [
        {
          "internalType": "uint256",
          "name": "",
          "type": "uint256"
        }
      ],
      "stateMutability": "view",
      "type": "function"
    },
    {
      "inputs": [],
      "name": "PRICE_PRECISION",
      "outputs": [
        {
          "internalType": "uint256",
          "name": "",
          "type": "uint256"
        }
      ],
      "stateMutability": "view",
      "type": "function"
    },
    {
      "inputs": [],
      "name": "USDG_DECIMALS",
      "outputs": [
        {
          "internalType": "uint256",
          "name": "",
          "type": "uint256"
        }
      ],
      "stateMutability": "view",
      "type": "function"
    },
    {
      "inputs": [
        {
          "internalType": "address",
          "name": "_router",
          "type": "address"
        }
      ],
      "name": "addRouter",
      "outputs": [],
      "stateMutability": "nonpayable",
      "type": "function"
    },
    {
      "inputs": [
        {
          "internalType": "uint256",
          "name": "_amount",
          "type": "uint256"
        },
        {
          "internalType": "address",
          "name": "_tokenDiv",
          "type": "address"
        },
        {
          "internalType": "address",
          "name": "_tokenMul",
          "type": "address"
        }
      ],
      "name": "adjustForDecimals",
      "outputs": [
        {
          "internalType": "uint256",
          "name": "",
          "type": "uint256"
        }
      ],
      "stateMutability": "view",
      "type": "function"
    },
    {
      "inputs": [
        {
          "internalType": "uint256",
          "name": "",
          "type": "uint256"
        }
      ],
      "name": "allWhitelistedTokens",
      "outputs": [
        {
          "internalType": "address",
          "name": "",
          "type": "address"
        }
      ],
      "stateMutability": "view",
      "type": "function"
    },
    {
      "inputs": [],
      "name": "allWhitelistedTokensLength",
      "outputs": [
        {
          "internalType": "uint256",
          "name": "",
          "type": "uint256"
        }
      ],
      "stateMutability": "view",
      "type": "function"
    },
    {
      "inputs": [
        {
          "internalType": "address",
          "name": "",
          "type": "address"
        },
        {
          "internalType": "address",
          "name": "",
          "type": "address"
        }
      ],
      "name": "approvedRouters",
      "outputs": [
        {
          "internalType": "bool",
          "name": "",
          "type": "bool"
        }
      ],
      "stateMutability": "view",
      "type": "function"
    },
    {
      "inputs": [
        {
          "internalType": "address",
          "name": "",
          "type": "address"
        }
      ],
      "name": "bufferAmounts",
      "outputs": [
        {
          "internalType": "uint256",
          "name": "",
          "type": "uint256"
        }
      ],
      "stateMutability": "view",
      "type": "function"
    },
    {
      "inputs": [
        {
          "internalType": "address",
          "name": "_token",
          "type": "address"
        },
        {
          "internalType": "address",
          "name": "_receiver",
          "type": "address"
        }
      ],
      "name": "buyUSDG",
      "outputs": [
        {
          "internalType": "uint256",
          "name": "",
          "type": "uint256"
        }
      ],
      "stateMutability": "nonpayable",
      "type": "function"
    },
    {
      "inputs": [
        {
          "internalType": "address",
          "name": "_token",
          "type": "address"
        }
      ],
      "name": "clearTokenConfig",
      "outputs": [],
      "stateMutability": "nonpayable",
      "type": "function"
    },
    {
      "inputs": [
        {
          "internalType": "address",
          "name": "",
          "type": "address"
        }
      ],
      "name": "cumulativeFundingRates",
      "outputs": [
        {
          "internalType": "uint256",
          "name": "",
          "type": "uint256"
        }
      ],
      "stateMutability": "view",
      "type": "function"
    },
    {
      "inputs": [
        {
          "internalType": "address",
          "name": "_account",
          "type": "address"
        },
        {
          "internalType": "address",
          "name": "_collateralToken",
          "type": "address"
        },
        {
          "internalType": "address",
          "name": "_indexToken",
          "type": "address"
        },
        {
          "internalType": "uint256",
          "name": "_collateralDelta",
          "type": "uint256"
        },
        {
          "internalType": "uint256",
          "name": "_sizeDelta",
          "type": "uint256"
        },
        {
          "internalType": "bool",
          "name": "_isLong",
          "type": "bool"
        },
        {
          "internalType": "address",
          "name": "_receiver",
          "type": "address"
        }
      ],
      "name": "decreasePosition",
      "outputs": [
        {
          "internalType": "uint256",
          "name": "",
          "type": "uint256"
        }
      ],
      "stateMutability": "nonpayable",
      "type": "function"
    },
    {
      "inputs": [
        {
          "internalType": "address",
          "name": "_token",
          "type": "address"
        }
      ],
      "name": "directPoolDeposit",
      "outputs": [],
      "stateMutability": "nonpayable",
      "type": "function"
    },
    {
      "inputs": [],
      "name": "errorController",
      "outputs": [
        {
          "internalType": "address",
          "name": "",
          "type": "address"
        }
      ],
      "stateMutability": "view",
      "type": "function"
    },
    {
      "inputs": [
        {
          "internalType": "uint256",
          "name": "",
          "type": "uint256"
        }
      ],
      "name": "errors",
      "outputs": [
        {
          "internalType": "string",
          "name": "",
          "type": "string"
        }
      ],
      "stateMutability": "view",
      "type": "function"
    },
    {
      "inputs": [
        {
          "internalType": "address",
          "name": "",
          "type": "address"
        }
      ],
      "name": "feeReserves",
      "outputs": [
        {
          "internalType": "uint256",
          "name": "",
          "type": "uint256"
        }
      ],
      "stateMutability": "view",
      "type": "function"
    },
    {
      "inputs": [],
      "name": "fundingInterval",
      "outputs": [
        {
          "internalType": "uint256",
          "name": "",
          "type": "uint256"
        }
      ],
      "stateMutability": "view",
      "type": "function"
    },
    {
      "inputs": [],
      "name": "fundingRateFactor",
      "outputs": [
        {
          "internalType": "uint256",
          "name": "",
          "type": "uint256"
        }
      ],
      "stateMutability": "view",
      "type": "function"
    },
    {
      "inputs": [
        {
          "internalType": "address",
          "name": "_indexToken",
          "type": "address"
        },
        {
          "internalType": "uint256",
          "name": "_size",
          "type": "uint256"
        },
        {
          "internalType": "uint256",
          "name": "_averagePrice",
          "type": "uint256"
        },
        {
          "internalType": "bool",
          "name": "_isLong",
          "type": "bool"
        },
        {
          "internalType": "uint256",
          "name": "_lastIncreasedTime",
          "type": "uint256"
        }
      ],
      "name": "getDelta",
      "outputs": [
        {
          "internalType": "bool",
          "name": "",
          "type": "bool"
        },
        {
          "internalType": "uint256",
          "name": "",
          "type": "uint256"
        }
      ],
      "stateMutability": "view",
      "type": "function"
    },
    {
      "inputs": [
        {
          "internalType": "address",
          "name": "_collateralToken",
          "type": "address"
        },
        {
          "internalType": "address",
          "name": "_indexToken",
          "type": "address"
        },
        {
          "internalType": "bool",
          "name": "_isLong",
          "type": "bool"
        }
      ],
      "name": "getEntryFundingRate",
      "outputs": [
        {
          "internalType": "uint256",
          "name": "",
          "type": "uint256"
        }
      ],
      "stateMutability": "view",
      "type": "function"
    },
    {
      "inputs": [
        {
          "internalType": "address",
          "name": "_token",
          "type": "address"
        },
        {
          "internalType": "uint256",
          "name": "_usdgDelta",
          "type": "uint256"
        },
        {
          "internalType": "uint256",
          "name": "_feeBasisPoints",
          "type": "uint256"
        },
        {
          "internalType": "uint256",
          "name": "_taxBasisPoints",
          "type": "uint256"
        },
        {
          "internalType": "bool",
          "name": "_increment",
          "type": "bool"
        }
      ],
      "name": "getFeeBasisPoints",
      "outputs": [
        {
          "internalType": "uint256",
          "name": "",
          "type": "uint256"
        }
      ],
      "stateMutability": "view",
      "type": "function"
    },
    {
      "inputs": [
        {
          "internalType": "address",
          "name": "_account",
          "type": "address"
        },
        {
          "internalType": "address",
          "name": "_collateralToken",
          "type": "address"
        },
        {
          "internalType": "address",
          "name": "_indexToken",
          "type": "address"
        },
        {
          "internalType": "bool",
          "name": "_isLong",
          "type": "bool"
        },
        {
          "internalType": "uint256",
          "name": "_size",
          "type": "uint256"
        },
        {
          "internalType": "uint256",
          "name": "_entryFundingRate",
          "type": "uint256"
        }
      ],
      "name": "getFundingFee",
      "outputs": [
        {
          "internalType": "uint256",
          "name": "",
          "type": "uint256"
        }
      ],
      "stateMutability": "view",
      "type": "function"
    },
    {
      "inputs": [
        {
          "internalType": "address",
          "name": "_token",
          "type": "address"
        }
      ],
      "name": "getGlobalShortDelta",
      "outputs": [
        {
          "internalType": "bool",
          "name": "",
          "type": "bool"
        },
        {
          "internalType": "uint256",
          "name": "",
          "type": "uint256"
        }
      ],
      "stateMutability": "view",
      "type": "function"
    },
    {
      "inputs": [
        {
          "internalType": "address",
          "name": "_token",
          "type": "address"
        }
      ],
      "name": "getMaxPrice",
      "outputs": [
        {
          "internalType": "uint256",
          "name": "",
          "type": "uint256"
        }
      ],
      "stateMutability": "view",
      "type": "function"
    },
    {
      "inputs": [
        {
          "internalType": "address",
          "name": "_token",
          "type": "address"
        }
      ],
      "name": "getMinPrice",
      "outputs": [
        {
          "internalType": "uint256",
          "name": "",
          "type": "uint256"
        }
      ],
      "stateMutability": "view",
      "type": "function"
    },
    {
      "inputs": [
        {
          "internalType": "address",
          "name": "_indexToken",
          "type": "address"
        },
        {
          "internalType": "uint256",
          "name": "_size",
          "type": "uint256"
        },
        {
          "internalType": "uint256",
          "name": "_averagePrice",
          "type": "uint256"
        },
        {
          "internalType": "bool",
          "name": "_isLong",
          "type": "bool"
        },
        {
          "internalType": "uint256",
          "name": "_nextPrice",
          "type": "uint256"
        },
        {
          "internalType": "uint256",
          "name": "_sizeDelta",
          "type": "uint256"
        },
        {
          "internalType": "uint256",
          "name": "_lastIncreasedTime",
          "type": "uint256"
        }
      ],
      "name": "getNextAveragePrice",
      "outputs": [
        {
          "internalType": "uint256",
          "name": "",
          "type": "uint256"
        }
      ],
      "stateMutability": "view",
      "type": "function"
    },
    {
      "inputs": [
        {
          "internalType": "address",
          "name": "_token",
          "type": "address"
        }
      ],
      "name": "getNextFundingRate",
      "outputs": [
        {
          "internalType": "uint256",
          "name": "",
          "type": "uint256"
        }
      ],
      "stateMutability": "view",
      "type": "function"
    },
    {
      "inputs": [
        {
          "internalType": "address",
          "name": "_indexToken",
          "type": "address"
        },
        {
          "internalType": "uint256",
          "name": "_nextPrice",
          "type": "uint256"
        },
        {
          "internalType": "uint256",
          "name": "_sizeDelta",
          "type": "uint256"
        }
      ],
      "name": "getNextGlobalShortAveragePrice",
      "outputs": [
        {
          "internalType": "uint256",
          "name": "",
          "type": "uint256"
        }
      ],
      "stateMutability": "view",
      "type": "function"
    },
    {
      "inputs": [
        {
          "internalType": "address",
          "name": "_account",
          "type": "address"
        },
        {
          "internalType": "address",
          "name": "_collateralToken",
          "type": "address"
        },
        {
          "internalType": "address",
          "name": "_indexToken",
          "type": "address"
        },
        {
          "internalType": "bool",
          "name": "_isLong",
          "type": "bool"
        }
      ],
      "name": "getPosition",
      "outputs": [
        {
          "internalType": "uint256",
          "name": "",
          "type": "uint256"
        },
        {
          "internalType": "uint256",
          "name": "",
          "type": "uint256"
        },
        {
          "internalType": "uint256",
          "name": "",
          "type": "uint256"
        },
        {
          "internalType": "uint256",
          "name": "",
          "type": "uint256"
        },
        {
          "internalType": "uint256",
          "name": "",
          "type": "uint256"
        },
        {
          "internalType": "uint256",
          "name": "",
          "type": "uint256"
        },
        {
          "internalType": "bool",
          "name": "",
          "type": "bool"
        },
        {
          "internalType": "uint256",
          "name": "",
          "type": "uint256"
        }
      ],
      "stateMutability": "view",
      "type": "function"
    },
    {
      "inputs": [
        {
          "internalType": "address",
          "name": "_account",
          "type": "address"
        },
        {
          "internalType": "address",
          "name": "_collateralToken",
          "type": "address"
        },
        {
          "internalType": "address",
          "name": "_indexToken",
          "type": "address"
        },
        {
          "internalType": "bool",
          "name": "_isLong",
          "type": "bool"
        }
      ],
      "name": "getPositionDelta",
      "outputs": [
        {
          "internalType": "bool",
          "name": "",
          "type": "bool"
        },
        {
          "internalType": "uint256",
          "name": "",
          "type": "uint256"
        }
      ],
      "stateMutability": "view",
      "type": "function"
    },
    {
      "inputs": [
        {
          "internalType": "address",
          "name": "_account",
          "type": "address"
        },
        {
          "internalType": "address",
          "name": "_collateralToken",
          "type": "address"
        },
        {
          "internalType": "address",
          "name": "_indexToken",
          "type": "address"
        },
        {
          "internalType": "bool",
          "name": "_isLong",
          "type": "bool"
        },
        {
          "internalType": "uint256",
          "name": "_sizeDelta",
          "type": "uint256"
        }
      ],
      "name": "getPositionFee",
      "outputs": [
        {
          "internalType": "uint256",
          "name": "",
          "type": "uint256"
        }
      ],
      "stateMutability": "view",
      "type": "function"
    },
    {
      "inputs": [
        {
          "internalType": "address",
          "name": "_account",
          "type": "address"
        },
        {
          "internalType": "address",
          "name": "_collateralToken",
          "type": "address"
        },
        {
          "internalType": "address",
          "name": "_indexToken",
          "type": "address"
        },
        {
          "internalType": "bool",
          "name": "_isLong",
          "type": "bool"
        }
      ],
      "name": "getPositionKey",
      "outputs": [
        {
          "internalType": "bytes32",
          "name": "",
          "type": "bytes32"
        }
      ],
      "stateMutability": "pure",
      "type": "function"
    },
    {
      "inputs": [
        {
          "internalType": "address",
          "name": "_account",
          "type": "address"
        },
        {
          "internalType": "address",
          "name": "_collateralToken",
          "type": "address"
        },
        {
          "internalType": "address",
          "name": "_indexToken",
          "type": "address"
        },
        {
          "internalType": "bool",
          "name": "_isLong",
          "type": "bool"
        }
      ],
      "name": "getPositionLeverage",
      "outputs": [
        {
          "internalType": "uint256",
          "name": "",
          "type": "uint256"
        }
      ],
      "stateMutability": "view",
      "type": "function"
    },
    {
      "inputs": [
        {
          "internalType": "address",
          "name": "_token",
          "type": "address"
        },
        {
          "internalType": "uint256",
          "name": "_usdgAmount",
          "type": "uint256"
        }
      ],
      "name": "getRedemptionAmount",
      "outputs": [
        {
          "internalType": "uint256",
          "name": "",
          "type": "uint256"
        }
      ],
      "stateMutability": "view",
      "type": "function"
    },
    {
      "inputs": [
        {
          "internalType": "address",
          "name": "_token",
          "type": "address"
        }
      ],
      "name": "getRedemptionCollateral",
      "outputs": [
        {
          "internalType": "uint256",
          "name": "",
          "type": "uint256"
        }
      ],
      "stateMutability": "view",
      "type": "function"
    },
    {
      "inputs": [
        {
          "internalType": "address",
          "name": "_token",
          "type": "address"
        }
      ],
      "name": "getRedemptionCollateralUsd",
      "outputs": [
        {
          "internalType": "uint256",
          "name": "",
          "type": "uint256"
        }
      ],
      "stateMutability": "view",
      "type": "function"
    },
    {
      "inputs": [
        {
          "internalType": "address",
          "name": "_token",
          "type": "address"
        }
      ],
      "name": "getTargetUsdgAmount",
      "outputs": [
        {
          "internalType": "uint256",
          "name": "",
          "type": "uint256"
        }
      ],
      "stateMutability": "view",
      "type": "function"
    },
    {
      "inputs": [
        {
          "internalType": "address",
          "name": "_token",
          "type": "address"
        }
      ],
      "name": "getUtilisation",
      "outputs": [
        {
          "internalType": "uint256",
          "name": "",
          "type": "uint256"
        }
      ],
      "stateMutability": "view",
      "type": "function"
    },
    {
      "inputs": [
        {
          "internalType": "address",
          "name": "",
          "type": "address"
        }
      ],
      "name": "globalShortAveragePrices",
      "outputs": [
        {
          "internalType": "uint256",
          "name": "",
          "type": "uint256"
        }
      ],
      "stateMutability": "view",
      "type": "function"
    },
    {
      "inputs": [
        {
          "internalType": "address",
          "name": "",
          "type": "address"
        }
      ],
      "name": "globalShortSizes",
      "outputs": [
        {
          "internalType": "uint256",
          "name": "",
          "type": "uint256"
        }
      ],
      "stateMutability": "view",
      "type": "function"
    },
    {
      "inputs": [],
      "name": "gov",
      "outputs": [
        {
          "internalType": "address",
          "name": "",
          "type": "address"
        }
      ],
      "stateMutability": "view",
      "type": "function"
    },
    {
      "inputs": [
        {
          "internalType": "address",
          "name": "",
          "type": "address"
        }
      ],
      "name": "guaranteedUsd",
      "outputs": [
        {
          "internalType": "uint256",
          "name": "",
          "type": "uint256"
        }
      ],
      "stateMutability": "view",
      "type": "function"
    },
    {
      "inputs": [],
      "name": "hasDynamicFees",
      "outputs": [
        {
          "internalType": "bool",
          "name": "",
          "type": "bool"
        }
      ],
      "stateMutability": "view",
      "type": "function"
    },
    {
      "inputs": [],
      "name": "inManagerMode",
      "outputs": [
        {
          "internalType": "bool",
          "name": "",
          "type": "bool"
        }
      ],
      "stateMutability": "view",
      "type": "function"
    },
    {
      "inputs": [],
      "name": "inPrivateLiquidationMode",
      "outputs": [
        {
          "internalType": "bool",
          "name": "",
          "type": "bool"
        }
      ],
      "stateMutability": "view",
      "type": "function"
    },
    {
      "inputs": [],
      "name": "includeAmmPrice",
      "outputs": [
        {
          "internalType": "bool",
          "name": "",
          "type": "bool"
        }
      ],
      "stateMutability": "view",
      "type": "function"
    },
    {
      "inputs": [
        {
          "internalType": "address",
          "name": "token",
          "type": "address"
        },
        {
          "internalType": "uint256",
          "name": "amount",
          "type": "uint256"
        }
      ],
      "name": "increaseGlobalShortSize",
      "outputs": [],
      "stateMutability": "nonpayable",
      "type": "function"
    },
    {
      "inputs": [
        {
          "internalType": "address",
          "name": "_account",
          "type": "address"
        },
        {
          "internalType": "address",
          "name": "_collateralToken",
          "type": "address"
        },
        {
          "internalType": "address",
          "name": "_indexToken",
          "type": "address"
        },
        {
          "internalType": "uint256",
          "name": "_sizeDelta",
          "type": "uint256"
        },
        {
          "internalType": "bool",
          "name": "_isLong",
          "type": "bool"
        }
      ],
      "name": "increasePosition",
      "outputs": [],
      "stateMutability": "nonpayable",
      "type": "function"
    },
    {
      "inputs": [
        {
          "internalType": "address",
          "name": "_router",
          "type": "address"
        },
        {
          "internalType": "address",
          "name": "_usdg",
          "type": "address"
        },
        {
          "internalType": "address",
          "name": "_priceFeed",
          "type": "address"
        },
        {
          "internalType": "uint256",
          "name": "_liquidationFeeUsd",
          "type": "uint256"
        },
        {
          "internalType": "uint256",
          "name": "_fundingRateFactor",
          "type": "uint256"
        },
        {
          "internalType": "uint256",
          "name": "_stableFundingRateFactor",
          "type": "uint256"
        }
      ],
      "name": "initialize",
      "outputs": [],
      "stateMutability": "nonpayable",
      "type": "function"
    },
    {
      "inputs": [],
      "name": "isInitialized",
      "outputs": [
        {
          "internalType": "bool",
          "name": "",
          "type": "bool"
        }
      ],
      "stateMutability": "view",
      "type": "function"
    },
    {
      "inputs": [],
      "name": "isLeverageEnabled",
      "outputs": [
        {
          "internalType": "bool",
          "name": "",
          "type": "bool"
        }
      ],
      "stateMutability": "view",
      "type": "function"
    },
    {
      "inputs": [
        {
          "internalType": "address",
          "name": "",
          "type": "address"
        }
      ],
      "name": "isLiquidator",
      "outputs": [
        {
          "internalType": "bool",
          "name": "",
          "type": "bool"
        }
      ],
      "stateMutability": "view",
      "type": "function"
    },
    {
      "inputs": [
        {
          "internalType": "address",
          "name": "",
          "type": "address"
        }
      ],
      "name": "isManager",
      "outputs": [
        {
          "internalType": "bool",
          "name": "",
          "type": "bool"
        }
      ],
      "stateMutability": "view",
      "type": "function"
    },
    {
      "inputs": [],
      "name": "isSwapEnabled",
      "outputs": [
        {
          "internalType": "bool",
          "name": "",
          "type": "bool"
        }
      ],
      "stateMutability": "view",
      "type": "function"
    },
    {
      "inputs": [
        {
          "internalType": "address",
          "name": "",
          "type": "address"
        }
      ],
      "name": "lastFundingTimes",
      "outputs": [
        {
          "internalType": "uint256",
          "name": "",
          "type": "uint256"
        }
      ],
      "stateMutability": "view",
      "type": "function"
    },
    {
      "inputs": [
        {
          "internalType": "address",
          "name": "_account",
          "type": "address"
        },
        {
          "internalType": "address",
          "name": "_collateralToken",
          "type": "address"
        },
        {
          "internalType": "address",
          "name": "_indexToken",
          "type": "address"
        },
        {
          "internalType": "bool",
          "name": "_isLong",
          "type": "bool"
        },
        {
          "internalType": "address",
          "name": "_feeReceiver",
          "type": "address"
        }
      ],
      "name": "liquidatePosition",
      "outputs": [],
      "stateMutability": "nonpayable",
      "type": "function"
    },
    {
      "inputs": [],
      "name": "liquidationFeeUsd",
      "outputs": [
        {
          "internalType": "uint256",
          "name": "",
          "type": "uint256"
        }
      ],
      "stateMutability": "view",
      "type": "function"
    },
    {
      "inputs": [],
      "name": "marginFeeBasisPoints",
      "outputs": [
        {
          "internalType": "uint256",
          "name": "",
          "type": "uint256"
        }
      ],
      "stateMutability": "view",
      "type": "function"
    },
    {
      "inputs": [],
      "name": "maxGasPrice",
      "outputs": [
        {
          "internalType": "uint256",
          "name": "",
          "type": "uint256"
        }
      ],
      "stateMutability": "view",
      "type": "function"
    },
    {
      "inputs": [
        {
          "internalType": "address",
          "name": "",
          "type": "address"
        }
      ],
      "name": "maxGlobalShortSizes",
      "outputs": [
        {
          "internalType": "uint256",
          "name": "",
          "type": "uint256"
        }
      ],
      "stateMutability": "view",
      "type": "function"
    },
    {
      "inputs": [],
      "name": "maxLeverage",
      "outputs": [
        {
          "internalType": "uint256",
          "name": "",
          "type": "uint256"
        }
      ],
      "stateMutability": "view",
      "type": "function"
    },
    {
      "inputs": [
        {
          "internalType": "address",
          "name": "",
          "type": "address"
        }
      ],
      "name": "maxUsdgAmounts",
      "outputs": [
        {
          "internalType": "uint256",
          "name": "",
          "type": "uint256"
        }
      ],
      "stateMutability": "view",
      "type": "function"
    },
    {
      "inputs": [
        {
          "internalType": "address",
          "name": "",
          "type": "address"
        }
      ],
      "name": "minProfitBasisPoints",
      "outputs": [
        {
          "internalType": "uint256",
          "name": "",
          "type": "uint256"
        }
      ],
      "stateMutability": "view",
      "type": "function"
    },
    {
      "inputs": [],
      "name": "minProfitTime",
      "outputs": [
        {
          "internalType": "uint256",
          "name": "",
          "type": "uint256"
        }
      ],
      "stateMutability": "view",
      "type": "function"
    },
    {
      "inputs": [],
      "name": "mintBurnFeeBasisPoints",
      "outputs": [
        {
          "internalType": "uint256",
          "name": "",
          "type": "uint256"
        }
      ],
      "stateMutability": "view",
      "type": "function"
    },
    {
      "inputs": [
        {
          "internalType": "address",
          "name": "",
          "type": "address"
        }
      ],
      "name": "poolAmounts",
      "outputs": [
        {
          "internalType": "uint256",
          "name": "",
          "type": "uint256"
        }
      ],
      "stateMutability": "view",
      "type": "function"
    },
    {
      "inputs": [
        {
          "internalType": "bytes32",
          "name": "",
          "type": "bytes32"
        }
      ],
      "name": "positions",
      "outputs": [
        {
          "internalType": "uint256",
          "name": "size",
          "type": "uint256"
        },
        {
          "internalType": "uint256",
          "name": "collateral",
          "type": "uint256"
        },
        {
          "internalType": "uint256",
          "name": "averagePrice",
          "type": "uint256"
        },
        {
          "internalType": "uint256",
          "name": "entryFundingRate",
          "type": "uint256"
        },
        {
          "internalType": "uint256",
          "name": "reserveAmount",
          "type": "uint256"
        },
        {
          "internalType": "int256",
          "name": "realisedPnl",
          "type": "int256"
        },
        {
          "internalType": "uint256",
          "name": "lastIncreasedTime",
          "type": "uint256"
        }
      ],
      "stateMutability": "view",
      "type": "function"
    },
    {
      "inputs": [],
      "name": "priceFeed",
      "outputs": [
        {
          "internalType": "address",
          "name": "",
          "type": "address"
        }
      ],
      "stateMutability": "view",
      "type": "function"
    },
    {
      "inputs": [
        {
          "internalType": "address",
          "name": "_router",
          "type": "address"
        }
      ],
      "name": "removeRouter",
      "outputs": [],
      "stateMutability": "nonpayable",
      "type": "function"
    },
    {
      "inputs": [
        {
          "internalType": "address",
          "name": "",
          "type": "address"
        }
      ],
      "name": "reservedAmounts",
      "outputs": [
        {
          "internalType": "uint256",
          "name": "",
          "type": "uint256"
        }
      ],
      "stateMutability": "view",
      "type": "function"
    },
    {
      "inputs": [],
      "name": "router",
      "outputs": [
        {
          "internalType": "address",
          "name": "",
          "type": "address"
        }
      ],
      "stateMutability": "view",
      "type": "function"
    },
    {
      "inputs": [
        {
          "internalType": "address",
          "name": "_token",
          "type": "address"
        },
        {
          "internalType": "address",
          "name": "_receiver",
          "type": "address"
        }
      ],
      "name": "sellUSDG",
      "outputs": [
        {
          "internalType": "uint256",
          "name": "",
          "type": "uint256"
        }
      ],
      "stateMutability": "nonpayable",
      "type": "function"
    },
    {
      "inputs": [
        {
          "internalType": "address",
          "name": "_token",
          "type": "address"
        },
        {
          "internalType": "uint256",
          "name": "_amount",
          "type": "uint256"
        }
      ],
      "name": "setBufferAmount",
      "outputs": [],
      "stateMutability": "nonpayable",
      "type": "function"
    },
    {
      "inputs": [
        {
          "internalType": "uint256",
          "name": "_errorCode",
          "type": "uint256"
        },
        {
          "internalType": "string",
          "name": "_error",
          "type": "string"
        }
      ],
      "name": "setError",
      "outputs": [],
      "stateMutability": "nonpayable",
      "type": "function"
    },
    {
      "inputs": [
        {
          "internalType": "address",
          "name": "_errorController",
          "type": "address"
        }
      ],
      "name": "setErrorController",
      "outputs": [],
      "stateMutability": "nonpayable",
      "type": "function"
    },
    {
      "inputs": [
        {
          "internalType": "uint256",
          "name": "_taxBasisPoints",
          "type": "uint256"
        },
        {
          "internalType": "uint256",
          "name": "_stableTaxBasisPoints",
          "type": "uint256"
        },
        {
          "internalType": "uint256",
          "name": "_mintBurnFeeBasisPoints",
          "type": "uint256"
        },
        {
          "internalType": "uint256",
          "name": "_swapFeeBasisPoints",
          "type": "uint256"
        },
        {
          "internalType": "uint256",
          "name": "_stableSwapFeeBasisPoints",
          "type": "uint256"
        },
        {
          "internalType": "uint256",
          "name": "_marginFeeBasisPoints",
          "type": "uint256"
        },
        {
          "internalType": "uint256",
          "name": "_liquidationFeeUsd",
          "type": "uint256"
        },
        {
          "internalType": "uint256",
          "name": "_minProfitTime",
          "type": "uint256"
        },
        {
          "internalType": "bool",
          "name": "_hasDynamicFees",
          "type": "bool"
        }
      ],
      "name": "setFees",
      "outputs": [],
      "stateMutability": "nonpayable",
      "type": "function"
    },
    {
      "inputs": [
        {
          "internalType": "uint256",
          "name": "_fundingInterval",
          "type": "uint256"
        },
        {
          "internalType": "uint256",
          "name": "_fundingRateFactor",
          "type": "uint256"
        },
        {
          "internalType": "uint256",
          "name": "_stableFundingRateFactor",
          "type": "uint256"
        }
      ],
      "name": "setFundingRate",
      "outputs": [],
      "stateMutability": "nonpayable",
      "type": "function"
    },
    {
      "inputs": [
        {
          "internalType": "address",
          "name": "_gov",
          "type": "address"
        }
      ],
      "name": "setGov",
      "outputs": [],
      "stateMutability": "nonpayable",
      "type": "function"
    },
    {
      "inputs": [
        {
          "internalType": "bool",
          "name": "_inManagerMode",
          "type": "bool"
        }
      ],
      "name": "setInManagerMode",
      "outputs": [],
      "stateMutability": "nonpayable",
      "type": "function"
    },
    {
      "inputs": [
        {
          "internalType": "bool",
          "name": "_inPrivateLiquidationMode",
          "type": "bool"
        }
      ],
      "name": "setInPrivateLiquidationMode",
      "outputs": [],
      "stateMutability": "nonpayable",
      "type": "function"
    },
    {
      "inputs": [
        {
          "internalType": "bool",
          "name": "_isLeverageEnabled",
          "type": "bool"
        }
      ],
      "name": "setIsLeverageEnabled",
      "outputs": [],
      "stateMutability": "nonpayable",
      "type": "function"
    },
    {
      "inputs": [
        {
          "internalType": "bool",
          "name": "_isSwapEnabled",
          "type": "bool"
        }
      ],
      "name": "setIsSwapEnabled",
      "outputs": [],
      "stateMutability": "nonpayable",
      "type": "function"
    },
    {
      "inputs": [
        {
          "internalType": "address",
          "name": "_liquidator",
          "type": "address"
        },
        {
          "internalType": "bool",
          "name": "_isActive",
          "type": "bool"
        }
      ],
      "name": "setLiquidator",
      "outputs": [],
      "stateMutability": "nonpayable",
      "type": "function"
    },
    {
      "inputs": [
        {
          "internalType": "address",
          "name": "_manager",
          "type": "address"
        },
        {
          "internalType": "bool",
          "name": "_isManager",
          "type": "bool"
        }
      ],
      "name": "setManager",
      "outputs": [],
      "stateMutability": "nonpayable",
      "type": "function"
    },
    {
      "inputs": [
        {
          "internalType": "uint256",
          "name": "_maxGasPrice",
          "type": "uint256"
        }
      ],
      "name": "setMaxGasPrice",
      "outputs": [],
      "stateMutability": "nonpayable",
      "type": "function"
    },
    {
      "inputs": [
        {
          "internalType": "address",
          "name": "_token",
          "type": "address"
        },
        {
          "internalType": "uint256",
          "name": "_amount",
          "type": "uint256"
        }
      ],
      "name": "setMaxGlobalShortSize",
      "outputs": [],
      "stateMutability": "nonpayable",
      "type": "function"
    },
    {
      "inputs": [
        {
          "internalType": "uint256",
          "name": "_maxLeverage",
          "type": "uint256"
        }
      ],
      "name": "setMaxLeverage",
      "outputs": [],
      "stateMutability": "nonpayable",
      "type": "function"
    },
    {
      "inputs": [
        {
          "internalType": "address",
          "name": "_priceFeed",
          "type": "address"
        }
      ],
      "name": "setPriceFeed",
      "outputs": [],
      "stateMutability": "nonpayable",
      "type": "function"
    },
    {
      "inputs": [
        {
          "internalType": "address",
          "name": "_token",
          "type": "address"
        },
        {
          "internalType": "uint256",
          "name": "_tokenDecimals",
          "type": "uint256"
        },
        {
          "internalType": "uint256",
          "name": "_tokenWeight",
          "type": "uint256"
        },
        {
          "internalType": "uint256",
          "name": "_minProfitBps",
          "type": "uint256"
        },
        {
          "internalType": "uint256",
          "name": "_maxUsdgAmount",
          "type": "uint256"
        },
        {
          "internalType": "bool",
          "name": "_isStable",
          "type": "bool"
        },
        {
          "internalType": "bool",
          "name": "_isShortable",
          "type": "bool"
        }
      ],
      "name": "setTokenConfig",
      "outputs": [],
      "stateMutability": "nonpayable",
      "type": "function"
    },
    {
      "inputs": [
        {
          "internalType": "address",
          "name": "_token",
          "type": "address"
        },
        {
          "internalType": "uint256",
          "name": "_amount",
          "type": "uint256"
        }
      ],
      "name": "setUsdgAmount",
      "outputs": [],
      "stateMutability": "nonpayable",
      "type": "function"
    },
    {
      "inputs": [
        {
          "internalType": "contract IVaultUtils",
          "name": "_vaultUtils",
          "type": "address"
        }
      ],
      "name": "setVaultUtils",
      "outputs": [],
      "stateMutability": "nonpayable",
      "type": "function"
    },
    {
      "inputs": [
        {
          "internalType": "address",
          "name": "",
          "type": "address"
        }
      ],
      "name": "shortableTokens",
      "outputs": [
        {
          "internalType": "bool",
          "name": "",
          "type": "bool"
        }
      ],
      "stateMutability": "view",
      "type": "function"
    },
    {
      "inputs": [],
      "name": "stableFundingRateFactor",
      "outputs": [
        {
          "internalType": "uint256",
          "name": "",
          "type": "uint256"
        }
      ],
      "stateMutability": "view",
      "type": "function"
    },
    {
      "inputs": [],
      "name": "stableSwapFeeBasisPoints",
      "outputs": [
        {
          "internalType": "uint256",
          "name": "",
          "type": "uint256"
        }
      ],
      "stateMutability": "view",
      "type": "function"
    },
    {
      "inputs": [],
      "name": "stableTaxBasisPoints",
      "outputs": [
        {
          "internalType": "uint256",
          "name": "",
          "type": "uint256"
        }
      ],
      "stateMutability": "view",
      "type": "function"
    },
    {
      "inputs": [
        {
          "internalType": "address",
          "name": "",
          "type": "address"
        }
      ],
      "name": "stableTokens",
      "outputs": [
        {
          "internalType": "bool",
          "name": "",
          "type": "bool"
        }
      ],
      "stateMutability": "view",
      "type": "function"
    },
    {
      "inputs": [
        {
          "internalType": "address",
          "name": "_tokenIn",
          "type": "address"
        },
        {
          "internalType": "address",
          "name": "_tokenOut",
          "type": "address"
        },
        {
          "internalType": "address",
          "name": "_receiver",
          "type": "address"
        }
      ],
      "name": "swap",
      "outputs": [
        {
          "internalType": "uint256",
          "name": "",
          "type": "uint256"
        }
      ],
      "stateMutability": "nonpayable",
      "type": "function"
    },
    {
      "inputs": [],
      "name": "swapFeeBasisPoints",
      "outputs": [
        {
          "internalType": "uint256",
          "name": "",
          "type": "uint256"
        }
      ],
      "stateMutability": "view",
      "type": "function"
    },
    {
      "inputs": [],
      "name": "taxBasisPoints",
      "outputs": [
        {
          "internalType": "uint256",
          "name": "",
          "type": "uint256"
        }
      ],
      "stateMutability": "view",
      "type": "function"
    },
    {
      "inputs": [
        {
          "internalType": "address",
          "name": "",
          "type": "address"
        }
      ],
      "name": "tokenBalances",
      "outputs": [
        {
          "internalType": "uint256",
          "name": "",
          "type": "uint256"
        }
      ],
      "stateMutability": "view",
      "type": "function"
    },
    {
      "inputs": [
        {
          "internalType": "address",
          "name": "",
          "type": "address"
        }
      ],
      "name": "tokenDecimals",
      "outputs": [
        {
          "internalType": "uint256",
          "name": "",
          "type": "uint256"
        }
      ],
      "stateMutability": "view",
      "type": "function"
    },
    {
      "inputs": [
        {
          "internalType": "address",
          "name": "_token",
          "type": "address"
        },
        {
          "internalType": "uint256",
          "name": "_tokenAmount",
          "type": "uint256"
        }
      ],
      "name": "tokenToUsdMin",
      "outputs": [
        {
          "internalType": "uint256",
          "name": "",
          "type": "uint256"
        }
      ],
      "stateMutability": "view",
      "type": "function"
    },
    {
      "inputs": [
        {
          "internalType": "address",
          "name": "",
          "type": "address"
        }
      ],
      "name": "tokenWeights",
      "outputs": [
        {
          "internalType": "uint256",
          "name": "",
          "type": "uint256"
        }
      ],
      "stateMutability": "view",
      "type": "function"
    },
    {
      "inputs": [],
      "name": "totalTokenWeights",
      "outputs": [
        {
          "internalType": "uint256",
          "name": "",
          "type": "uint256"
        }
      ],
      "stateMutability": "view",
      "type": "function"
    },
    {
      "inputs": [
        {
          "internalType": "address",
          "name": "_collateralToken",
          "type": "address"
        },
        {
          "internalType": "address",
          "name": "_indexToken",
          "type": "address"
        }
      ],
      "name": "updateCumulativeFundingRate",
      "outputs": [],
      "stateMutability": "nonpayable",
      "type": "function"
    },
    {
      "inputs": [
        {
          "internalType": "address",
          "name": "_newVault",
          "type": "address"
        },
        {
          "internalType": "address",
          "name": "_token",
          "type": "address"
        },
        {
          "internalType": "uint256",
          "name": "_amount",
          "type": "uint256"
        }
      ],
      "name": "upgradeVault",
      "outputs": [],
      "stateMutability": "nonpayable",
      "type": "function"
    },
    {
      "inputs": [
        {
          "internalType": "address",
          "name": "_token",
          "type": "address"
        },
        {
          "internalType": "uint256",
          "name": "_usdAmount",
          "type": "uint256"
        },
        {
          "internalType": "uint256",
          "name": "_price",
          "type": "uint256"
        }
      ],
      "name": "usdToToken",
      "outputs": [
        {
          "internalType": "uint256",
          "name": "",
          "type": "uint256"
        }
      ],
      "stateMutability": "view",
      "type": "function"
    },
    {
      "inputs": [
        {
          "internalType": "address",
          "name": "_token",
          "type": "address"
        },
        {
          "internalType": "uint256",
          "name": "_usdAmount",
          "type": "uint256"
        }
      ],
      "name": "usdToTokenMax",
      "outputs": [
        {
          "internalType": "uint256",
          "name": "",
          "type": "uint256"
        }
      ],
      "stateMutability": "view",
      "type": "function"
    },
    {
      "inputs": [
        {
          "internalType": "address",
          "name": "_token",
          "type": "address"
        },
        {
          "internalType": "uint256",
          "name": "_usdAmount",
          "type": "uint256"
        }
      ],
      "name": "usdToTokenMin",
      "outputs": [
        {
          "internalType": "uint256",
          "name": "",
          "type": "uint256"
        }
      ],
      "stateMutability": "view",
      "type": "function"
    },
    {
      "inputs": [],
      "name": "usdg",
      "outputs": [
        {
          "internalType": "address",
          "name": "",
          "type": "address"
        }
      ],
      "stateMutability": "view",
      "type": "function"
    },
    {
      "inputs": [
        {
          "internalType": "address",
          "name": "",
          "type": "address"
        }
      ],
      "name": "usdgAmounts",
      "outputs": [
        {
          "internalType": "uint256",
          "name": "",
          "type": "uint256"
        }
      ],
      "stateMutability": "view",
      "type": "function"
    },
    {
      "inputs": [],
      "name": "useSwapPricing",
      "outputs": [
        {
          "internalType": "bool",
          "name": "",
          "type": "bool"
        }
      ],
      "stateMutability": "view",
      "type": "function"
    },
    {
      "inputs": [
        {
          "internalType": "address",
          "name": "_account",
          "type": "address"
        },
        {
          "internalType": "address",
          "name": "_collateralToken",
          "type": "address"
        },
        {
          "internalType": "address",
          "name": "_indexToken",
          "type": "address"
        },
        {
          "internalType": "bool",
          "name": "_isLong",
          "type": "bool"
        },
        {
          "internalType": "bool",
          "name": "_raise",
          "type": "bool"
        }
      ],
      "name": "validateLiquidation",
      "outputs": [
        {
          "internalType": "uint256",
          "name": "",
          "type": "uint256"
        },
        {
          "internalType": "uint256",
          "name": "",
          "type": "uint256"
        }
      ],
      "stateMutability": "view",
      "type": "function"
    },
    {
      "inputs": [],
      "name": "vaultUtils",
      "outputs": [
        {
          "internalType": "contract IVaultUtils",
          "name": "",
          "type": "address"
        }
      ],
      "stateMutability": "view",
      "type": "function"
    },
    {
      "inputs": [],
      "name": "whitelistedTokenCount",
      "outputs": [
        {
          "internalType": "uint256",
          "name": "",
          "type": "uint256"
        }
      ],
      "stateMutability": "view",
      "type": "function"
    },
    {
      "inputs": [
        {
          "internalType": "address",
          "name": "",
          "type": "address"
        }
      ],
      "name": "whitelistedTokens",
      "outputs": [
        {
          "internalType": "bool",
          "name": "",
          "type": "bool"
        }
      ],
      "stateMutability": "view",
      "type": "function"
    },
    {
      "inputs": [
        {
          "internalType": "address",
          "name": "_token",
          "type": "address"
        },
        {
          "internalType": "address",
          "name": "_receiver",
          "type": "address"
        }
      ],
      "name": "withdrawFees",
      "outputs": [
        {
          "internalType": "uint256",
          "name": "",
          "type": "uint256"
        }
      ],
      "stateMutability": "nonpayable",
      "type": "function"
    }
  ],
  "bytecode": "0x60806040526001805462ff00001961ff00199091166101001716620100001781556207a1206008556032600a9081556014600b55601e600c819055600d556004600e55600f556011805460ff199081169091556170806012556016805463ffffff0019921690921716905534801561007657600080fd5b506001600055600680546001600160a01b03191633179055616074806200009e6000396000f3fe608060405234801561001057600080fd5b50600436106105a45760003560e01c80638585f4d2116102e9578063c7e074c31161018f578063c7e074c31461125c578063cea0c3281461129c578063cfad57a2146112d2578063d2fa635e146112f8578063d3127e6314611315578063d54d5a9f14611332578063d66b000d14611391578063d8f897c3146113bd578063d9ac4225146113e3578063da76524c146113eb578063daf9c21014611435578063db3555fb1461145b578063db97495f14611481578063dc8f5fac146114cd578063de2ea948146114d5578063df73a2671461151d578063e124e6d214611525578063e468baf01461154b578063e67f59a714611568578063efa10a6e1461158e578063f07456ce146115ba578063f07bbf77146115e0578063f2555278146115ff578063f3ae24151461162d578063f5b91b7b14611653578063f887ea401461165b578063fa12dbc014611663578063fbfded6d14611695578063fce28c10146116c3578063fdaf6ac3146116cb578063fed1a6061461170f576105a4565b80638585f4d214610ec7578063870d917c14610ef357806388b1fbdf14610efb5780638a27d46814610f215780638a39735a146106255780638a78daa814610f4a5780638ee573ac14610f705780638f7b840414610f965780639060b1ca14610fbc5780639331621214610fc457806395082d2514610ffc5780639698d25a146110045780639849e4121461102a5780639899cd02146110325780639d7432ca1461105e5780639f392eb314611090578063a22f239214611098578063a42ab3d2146110a0578063a5e90eee146110cc578063a93acac2146110fa578063ab08c1c614611120578063ab2f3ad414611128578063ad1e4f8d1461114e578063ae3302c214611174578063b06423f31461117c578063b136ca4914611184578063b1cc53ab146111aa578063b364accb146111e2578063c3c7b9e914611208578063c4f718bf1461122e578063c65bc7b114611236576105a4565b806345a6f3701161044e57806345a6f370146109a957806348d91abf14610a0257806348f35cbb14610a465780634a3f088d14610a4e5780634a993ee914610acf5780634befe2ca14610af55780634d47b30414610afd578063514ea4bf14610b0557806351723e8214610b5a578063523fba7f14610b98578063529a356f14610bbe57806352f55eed14610be45780635c07eaab14610c0a5780635f7bc11914610c4a5780636092219914610c7057806362287a3214610c9e5780636274980314610ca65780636a6f342414610ccc5780636abbe0c814610cf85780636ae0b15414610d005780636be6026b14610d2657806371089f4d14610d2e578063711e619014610d54578063724e78da14610d82578063728cdbca14610da8578063741bef1a14610df05780637a210a2b14610df85780637c2eb9f714610e00578063817bb85714610e1f57806381a612d614610e4d57806382a0849014610e73576105a4565b806304fef1db146105a957806307c58752146105e15780630842b076146105e95780630a48d5a9146105f157806310eb56c21461061d578063126082cf1461062557806312d43a511461062d578063134ca63b14610651578063174d269414610659578063181e210e146106615780631aa4ace51461067d5780631ce9cb8f146106a357806324b0c04d146106c957806324ca984e146106ea57806328e67be51461071057806329ff9615146107855780632c668ec1146107ab5780632d4b0576146107d757806330455ede14610815578063318bc6891461083457806334c1557d14610625578063351a964d1461083c578063392e53cd146108445780633a05dcc11461084c5780633c5a6e35146108725780633de39c11146108c05780633e72a262146108c857806340eb3802146108d0578063421528731461092157806342b60b03146109555780634453a3741461097b575b600080fd5b6105cf600480360360208110156105bf57600080fd5b50356001600160a01b03166117a1565b60408051918252519081900360200190f35b6105cf611804565b6105cf611815565b6105cf6004803603604081101561060757600080fd5b506001600160a01b03813516906020013561181b565b6105cf61186e565b6105cf611874565b61063561187a565b604080516001600160a01b039092168252519081900360200190f35b6105cf611889565b6105cf61188f565b610669611895565b604080519115158252519081900360200190f35b6105cf6004803603602081101561069357600080fd5b50356001600160a01b03166118a5565b6105cf600480360360208110156106b957600080fd5b50356001600160a01b03166118b7565b6106e8600480360360208110156106df57600080fd5b503515156118c9565b005b6106e86004803603602081101561070057600080fd5b50356001600160a01b03166118ed565b6106e86004803603604081101561072657600080fd5b81359190810190604081016020820135600160201b81111561074757600080fd5b82018360208201111561075957600080fd5b803590602001918460018302840111600160201b8311171561077a57600080fd5b50909250905061191e565b6105cf6004803603602081101561079b57600080fd5b50356001600160a01b031661199c565b6105cf600480360360408110156107c157600080fd5b506001600160a01b0381351690602001356119b0565b6105cf600480360360808110156107ed57600080fd5b506001600160a01b0381358116916020810135821691604082013516906060013515156119f5565b6106e86004803603602081101561082b57600080fd5b50351515611a4b565b6105cf611a6d565b610669611a73565b610669611a81565b6105cf6004803603602081101561086257600080fd5b50356001600160a01b0316611a8a565b6106e8600480360360e081101561088857600080fd5b506001600160a01b038135169060208101359060408101359060608101359060808101359060a081013515159060c001351515611b4a565b6105cf611c82565b610669611c88565b6106e860048036036101208110156108e757600080fd5b5080359060208101359060408101359060608101359060808101359060a08101359060c08101359060e08101359061010001351515611c97565b6105cf6004803603606081101561093757600080fd5b508035906001600160a01b0360208201358116916040013516611d51565b6106696004803603602081101561096b57600080fd5b50356001600160a01b0316611df3565b6106e86004803603604081101561099157600080fd5b506001600160a01b0381351690602001351515611e08565b6109e7600480360360808110156109bf57600080fd5b506001600160a01b038135811691602081013582169160408201351690606001351515611e3b565b60408051921515835260208301919091528051918290030190f35b6106e8600480360360a0811015610a1857600080fd5b506001600160a01b038135811691602081013582169160408201351690606081013590608001351515611ed9565b610635612306565b610a8c60048036036080811015610a6457600080fd5b506001600160a01b038135811691602081013582169160408201351690606001351515612315565b604080519889526020890197909752878701959095526060870193909352608086019190915260a0850152151560c084015260e083015251908190036101000190f35b6105cf60048036036020811015610ae557600080fd5b50356001600160a01b031661240b565b6105cf61241d565b6105cf612423565b610b2260048036036020811015610b1b57600080fd5b5035612429565b604080519788526020880196909652868601949094526060860192909252608085015260a084015260c0830152519081900360e00190f35b6105cf60048036036080811015610b7057600080fd5b506001600160a01b038135811691602081013582169160408201351690606001351515612466565b6105cf60048036036020811015610bae57600080fd5b50356001600160a01b031661250c565b61066960048036036020811015610bd457600080fd5b50356001600160a01b031661251e565b6105cf60048036036020811015610bfa57600080fd5b50356001600160a01b0316612533565b6109e7600480360360a0811015610c2057600080fd5b506001600160a01b0381351690602081013590604081013590606081013515159060800135612545565b6106e860048036036020811015610c6057600080fd5b50356001600160a01b031661263d565b61066960048036036040811015610c8657600080fd5b506001600160a01b0381358116916020013516612720565b6105cf612740565b6105cf60048036036020811015610cbc57600080fd5b50356001600160a01b0316612746565b6106e860048036036040811015610ce257600080fd5b506001600160a01b038135169060200135612758565b610635612766565b6106e860048036036020811015610d1657600080fd5b50356001600160a01b031661277c565b6105cf6127aa565b6106e860048036036020811015610d4457600080fd5b50356001600160a01b03166127b1565b6105cf60048036036040811015610d6a57600080fd5b506001600160a01b03813581169160200135166127e5565b6106e860048036036020811015610d9857600080fd5b50356001600160a01b0316612a79565b6106e8600480360360c0811015610dbe57600080fd5b506001600160a01b03813581169160208101358216916040820135169060608101359060808101359060a00135612aa3565b610635612b1a565b6105cf612b29565b6106e860048036036020811015610e1657600080fd5b50351515612b2f565b6105cf60048036036040811015610e3557600080fd5b506001600160a01b0381358116916020013516612b53565b6105cf60048036036020811015610e6357600080fd5b50356001600160a01b0316612f33565b6105cf600480360360e0811015610e8957600080fd5b506001600160a01b0381358116916020810135821691604082013581169160608101359160808201359160a081013515159160c09091013516612fde565b6106e860048036036040811015610edd57600080fd5b506001600160a01b03813516906020013561305c565b6105cf613080565b6105cf60048036036020811015610f1157600080fd5b50356001600160a01b0316613085565b6106e860048036036060811015610f3757600080fd5b5080359060208101359060400135613097565b6105cf60048036036020811015610f6057600080fd5b50356001600160a01b03166130dd565b6105cf60048036036020811015610f8657600080fd5b50356001600160a01b03166130ef565b6106e860048036036020811015610fac57600080fd5b50356001600160a01b0316613101565b61066961312b565b6105cf60048036036060811015610fda57600080fd5b506001600160a01b03813581169160208101358216916040909101351661313a565b6105cf613422565b6105cf6004803603602081101561101a57600080fd5b50356001600160a01b0316613432565b6105cf613444565b6105cf6004803603604081101561104857600080fd5b506001600160a01b03813516906020013561344a565b6105cf6004803603606081101561107457600080fd5b506001600160a01b03813516906020810135906040013561346c565b610669613515565b6105cf61351e565b6105cf600480360360408110156110b657600080fd5b506001600160a01b038135169060200135613524565b6106e8600480360360408110156110e257600080fd5b506001600160a01b0381351690602001351515613541565b6105cf6004803603602081101561111057600080fd5b50356001600160a01b0316613574565b610669613672565b6105cf6004803603602081101561113e57600080fd5b50356001600160a01b031661367b565b6105cf6004803603602081101561116457600080fd5b50356001600160a01b031661368d565b6105cf61369f565b6106696136a5565b6105cf6004803603602081101561119a57600080fd5b50356001600160a01b03166136b3565b6105cf600480360360608110156111c057600080fd5b506001600160a01b038135811691602081013590911690604001351515613754565b6109e7600480360360208110156111f857600080fd5b50356001600160a01b03166137ef565b6105cf6004803603602081101561121e57600080fd5b50356001600160a01b0316613887565b6105cf613899565b6105cf6004803603602081101561124c57600080fd5b50356001600160a01b031661389f565b6105cf600480360360a081101561127257600080fd5b506001600160a01b03813516906020810135906040810135906060810135906080013515156138b1565b6106e8600480360360608110156112b257600080fd5b506001600160a01b0381358116916020810135909116906040013561395b565b6106e8600480360360208110156112e857600080fd5b50356001600160a01b031661397c565b6106e86004803603602081101561130e57600080fd5b50356139a6565b6106e86004803603602081101561132b57600080fd5b50356139b3565b611378600480360360a081101561134857600080fd5b506001600160a01b03813581169160208101358216916040820135169060608101351515906080013515156139cf565b6040805192835260208301919091528051918290030190f35b6106e8600480360360408110156113a757600080fd5b506001600160a01b038135169060200135613a86565b6105cf600480360360208110156113d357600080fd5b50356001600160a01b0316613adb565b6105cf613aed565b6105cf600480360360c081101561140157600080fd5b506001600160a01b038135811691602081013582169160408201351690606081013515159060808101359060a00135613af3565b6106696004803603602081101561144b57600080fd5b50356001600160a01b0316613ba7565b6106696004803603602081101561147157600080fd5b50356001600160a01b0316613bbc565b6105cf600480360360e081101561149757600080fd5b506001600160a01b0381351690602081013590604081013590606081013515159060808101359060a08101359060c00135613bd0565b6105cf613c61565b6106e8600480360360a08110156114eb57600080fd5b506001600160a01b03813581169160208101358216916040820135811691606081013515159160809091013516613c67565b6105cf61402d565b6105cf6004803603602081101561153b57600080fd5b50356001600160a01b0316614033565b6106356004803603602081101561156157600080fd5b50356140ab565b6106e86004803603602081101561157e57600080fd5b50356001600160a01b03166140d2565b6106e8600480360360408110156115a457600080fd5b506001600160a01b0381351690602001356141a5565b6105cf600480360360208110156115d057600080fd5b50356001600160a01b03166141c9565b6106e8600480360360208110156115f657600080fd5b503515156141db565b6105cf6004803603604081101561161557600080fd5b506001600160a01b0381358116916020013516614201565b6106696004803603602081101561164357600080fd5b50356001600160a01b0316614257565b61063561426c565b61063561427b565b6105cf6004803603606081101561167957600080fd5b506001600160a01b03813516906020810135906040013561428a565b6106e8600480360360408110156116ab57600080fd5b506001600160a01b03813581169160200135166142c4565b6105cf61449d565b6105cf600480360360a08110156116e157600080fd5b506001600160a01b0381358116916020810135821691604082013516906060810135151590608001356144a3565b61172c6004803603602081101561172557600080fd5b5035614519565b6040805160208082528351818301528351919283929083019185019080838360005b8381101561176657818101518382015260200161174e565b50505050905090810190601f1680156117935780820380516001836020036101000a031916815260200191505b509250505060405180910390f35b6001600160a01b038116600090815260256020526040812054806117c95760009150506117ff565b6001600160a01b0383166000908152602660205260409020546117fb9082906117f590620f42406145b4565b9061460d565b9150505b919050565b6904ee2d6d415b85acef8160201b81565b601b5490565b60008161182a57506000611868565b600061183584612f33565b6001600160a01b0385166000908152601d6020526040902054909150611863600a82900a6117f586856145b4565b925050505b92915050565b600b5481565b61271081565b6006546001600160a01b031681565b60145481565b60095481565b6016546301000000900460ff1681565b60236020526000908152604090205481565b602c6020526000908152604090205481565b6118d161464c565b60168054911515620100000262ff000019909216919091179055565b3360009081526018602090815260408083206001600160a01b0394909416835292905220805460ff19166001179055565b6002546001600160a01b0316331461197d576040805162461bcd60e51b815260206004820152601e60248201527f5661756c743a20696e76616c6964206572726f72436f6e74726f6c6c65720000604482015290519081900360640190fd5b6000838152603060205260409020611996908383615e63565b50505050565b6000611868826119ab846136b3565b61181b565b6000806119bc84614033565b905060006119da826117f58668327cb2734119d3b7a9601e1b6145b4565b6005549091506118639082906001600160a01b031687611d51565b604080516001600160601b0319606096871b811660208084019190915295871b811660348301529390951b9092166048850152151560f81b605c8401528051603d818503018152605d9093019052815191012090565b611a5361464c565b600180549115156101000261ff0019909216919091179055565b600f5481565b600154610100900460ff1681565b60015460ff1681565b600080600560009054906101000a90046001600160a01b03166001600160a01b03166318160ddd6040518163ffffffff1660e01b815260040160206040518083038186803b158015611adb57600080fd5b505afa158015611aef573d6000803e3d6000fd5b505050506040513d6020811015611b0557600080fd5b5051905080611b185760009150506117ff565b6001600160a01b038316600090815260226020526040902054601554611b42906117f583856145b4565b949350505050565b611b5261464c565b6001600160a01b0387166000908152601c602052604090205460ff16611bcf57600754611b80906001614667565b600755601b80546001810182556000919091527f3ad8aa4f87544323a9d1e5dd902f40c356527a7955687113db5f9a85ad579dc10180546001600160a01b0319166001600160a01b0389161790555b6015546001600160a01b038816600090815260226020526040902054611bf69082906146bf565b6001600160a01b0389166000908152601c602090815260408083208054600160ff1991821617909155601d83528184208c9055602283528184208b9055601e83528184208a905560248352818420899055601f83528184208054821689151517905591805290912080549091168415151790559050611c758187614667565b6015555050505050505050565b60175481565b60015462010000900460ff1681565b611c9f61464c565b611caf6101f48a11156003614701565b611cbf6101f48911156004614701565b611ccf6101f48811156005614701565b611cdf6101f48711156006614701565b611cef6101f48611156007614701565b611cff6101f48511156008614701565b611d1a6904ee2d6d415b85acef8160201b8411156009614701565b600a98909855600b96909655600c94909455600d92909255600e55600f556009556010556011805460ff1916911515919091179055565b60055460009081906001600160a01b03858116911614611d89576001600160a01b0384166000908152601d6020526040902054611d8c565b60125b6005549091506000906001600160a01b03858116911614611dc5576001600160a01b0384166000908152601d6020526040902054611dc8565b60125b9050611de782600a0a6117f583600a0a896145b490919063ffffffff16565b925050505b9392505050565b601f6020526000908152604090205460ff1681565b611e1061464c565b6001600160a01b03919091166000908152601960205260409020805460ff1916911515919091179055565b6000806000611e4c878787876119f5565b9050611e56615ee1565b506000818152602b6020908152604091829020825160e081018452815480825260018301549382019390935260028201549381018490526003820154606082015260048201546080820152600582015460a082015260069091015460c082018190529092611eca9289929091908990612545565b93509350505094509492505050565b60026000541415611f1f576040805162461bcd60e51b815260206004820152601f6024820152600080516020615f34833981519152604482015290519081900360640190fd5b6002600055600154611f3b9062010000900460ff16601c614701565b611f436147ad565b611f4c856147c9565b611f5784848361482c565b60015460408051634eae147d60e11b81526001600160a01b038881166004830152878116602483015286811660448301526064820186905284151560848301529151630100000090930490911691639d5c28fa9160a480820192600092909190829003018186803b158015611fcb57600080fd5b505afa158015611fdf573d6000803e3d6000fd5b50505050611fed84846142c4565b6000611ffb868686856119f5565b6000818152602b602052604081209192508361201f5761201a86612f33565b612028565b61202886614033565b825490915061203957600282018190555b8154158015906120495750600085115b1561206f57612069868360000154846002015487858a8860060154613bd0565b60028301555b6000612088898989888a88600001548960030154614941565b90506000612095896149fd565b905060006120a38a8361181b565b60018601549091506120b59082614667565b600186018190556120ca90841115601d614701565b60018501546120d990846146bf565b60018601556120e98a8a89613754565b600386015584546120fa9089614667565b808655426006870155612110901515601e614701565b61212285600001548660010154614aaa565b6121308b8b8b8a60016139cf565b5050600061213e8b8a613524565b60048701549091506121509082614667565b600487015561215f8b82614ace565b87156121a4576121788b6121738b87614667565b614b6e565b6121828b83614bed565b61218c8b84614c6c565b61219f8b61219a8d8761344a565b614d84565b612210565b6001600160a01b038a166000908152602d60205260409020546121e1576001600160a01b038a166000908152602e60205260409020859055612206565b6121ec8a868b61346c565b6001600160a01b038b166000908152602e60205260409020555b6122108a8a614e57565b604080518881526001600160a01b03808f166020830152808e16828401528c1660608201526080810184905260a081018b905289151560c082015260e08101879052610100810186905290517f2fe68525253654c21998f35787a8d0f361905ef647c854092430ab65f2f15022918190036101200190a1855460018701546002880154600389015460048a015460058b0154604080518e81526020810197909752868101959095526060860193909352608085019190915260a084015260c083015260e0820187905251600080516020615f54833981519152918190036101000190a15050600160005550505050505050505050565b6002546001600160a01b031681565b600080600080600080600080600061232f8d8d8d8d6119f5565b9050612339615ee1565b602b60008381526020019081526020016000206040518060e001604052908160008201548152602001600182015481526020016002820154815260200160038201548152602001600482015481526020016005820154815260200160068201548152505090506000808260a00151136123b9578160a001516000036123bf565b8160a001515b9050816000015182602001518360400151846060015185608001518560008860a0015112158860c001519a509a509a509a509a509a509a509a5050505094995094995094999196509450565b60276020526000908152604090205481565b6101f481565b600c5481565b602b602052600090815260409020805460018201546002830154600384015460048501546005860154600690960154949593949293919290919087565b600080612475868686866119f5565b905061247f615ee1565b506000818152602b6020908152604091829020825160e0810184528154815260018201549281018390526002820154938101939093526003810154606084015260048101546080840152600581015460a08401526006015460c08301526124e99015156025614701565b6020810151815161250191906117f5906127106145b4565b979650505050505050565b60216020526000908152604090205481565b60196020526000908152604090205460ff1681565b60256020526000908152604090205481565b600080612556600086116026614701565b60008461256b5761256688614033565b612574565b61257488612f33565b9050600081871161258e5761258982886146bf565b612598565b61259887836146bf565b905060006125aa886117f58b856145b4565b9050600087156125bd57508783116125c2565b508288115b60006125d96010548961466790919063ffffffff16565b42116125fd576001600160a01b038c166000908152601e6020526040902054612600565b60005b905081801561262357506126148b826145b4565b612620846127106145b4565b11155b1561262d57600092505b509a909950975050505050505050565b60026000541415612683576040805162461bcd60e51b815260206004820152601f6024820152600080516020615f34833981519152604482015290519081900360640190fd5b600260009081556001600160a01b0382168152601c60205260409020546126ae9060ff16600e614701565b60006126b9826149fd565b90506126c960008211600f614701565b6126d38282614c6c565b604080516001600160a01b03841681526020810183905281517fa5a389190ebf6170a133bda5c769b77f4d6715b8aa172ec0ddf8473d0b4944bd929181900390910190a150506001600055565b601860209081526000928352604080842090915290825290205460ff1681565b60075481565b602e6020526000908152604090205481565b6127628282614e57565b5050565b600154630100000090046001600160a01b031681565b3360009081526018602090815260408083206001600160a01b0394909416835292905220805460ff19169055565b620f424081565b6127b961464c565b600180546001600160a01b039092166301000000026301000000600160b81b0319909216919091179055565b60006002600054141561282d576040805162461bcd60e51b815260206004820152601f6024820152600080516020615f34833981519152604482015290519081900360640190fd5b600260005561283a614f0f565b6001600160a01b0383166000908152601c60205260409020546128619060ff166013614701565b6016805461ff001916610100179055600554600090612888906001600160a01b03166149fd565b9050612898600082116014614701565b6128a284856142c4565b60006128ae85836119b0565b90506128be600082116015614701565b6128c88583614f3e565b6128d28582614d84565b60055460408051632770a7eb60e21b81523060048201526024810185905290516001600160a01b0390921691639dc29fac9160448082019260009290919082900301818387803b15801561292557600080fd5b505af1158015612939573d6000803e3d6000fd5b505060055461295392506001600160a01b03169050614ffc565b6001546040805163eb0835bf60e01b81526001600160a01b038881166004830152602482018690529151600093630100000090049092169163eb0835bf91604480820192602092909190829003018186803b1580156129b157600080fd5b505afa1580156129c5573d6000803e3d6000fd5b505050506040513d60208110156129db57600080fd5b5051905060006129ec878484615097565b90506129fc600082116016614701565b612a0787828861515f565b604080516001600160a01b03808916825289166020820152808201869052606081018390526080810184905290517fd732b7828fa6cee72c285eac756fc66a7477e3dc22e22e7c432f1c265d40b4839181900360a00190a16016805461ff001916905560016000559695505050505050565b612a8161464c565b600480546001600160a01b0319166001600160a01b0392909216919091179055565b612aab61464c565b60018054612abf9160ff9091161590614701565b6001805460ff191681179055600380546001600160a01b03199081166001600160a01b039889161790915560058054821696881696909617909555600480549095169390951692909217909255600991909155601355601455565b6004546001600160a01b031681565b600a5481565b612b3761464c565b60018054911515620100000262ff000019909216919091179055565b600060026000541415612b9b576040805162461bcd60e51b815260206004820152601f6024820152600080516020615f34833981519152604482015290519081900360640190fd5b6002600055612ba8614f0f565b6001600160a01b0383166000908152601c6020526040902054612bcf9060ff166010614701565b6016805461ff0019166101001790556000612be9846149fd565b9050612bf9600082116011614701565b60408051828152602081018290526017818301527617dd1c985b9cd9995c925b881d1bdad95b905b5bdd5b9d604a1b60608201529051600080516020615f948339815191529181900360800190a1612c5184856142c4565b6000612c5c85612f33565b604080518281526020810182905260058183015264707269636560d81b60608201529051919250600080516020615f94833981519152919081900360800190a16000612cb868327cb2734119d3b7a9601e1b6117f585856145b4565b600554909150612cd490829088906001600160a01b0316611d51565b9050612ce4600082116012614701565b6040805182815260208101829052600a81830152691d5cd919d05b5bdd5b9d60b21b60608201529051600080516020615f948339815191529181900360800190a16001546040805163256f6ee360e11b81526001600160a01b0389811660048301526024820185905291516000936301000000900490921691634adeddc691604480820192602092909190829003018186803b158015612d8357600080fd5b505afa158015612d97573d6000803e3d6000fd5b505050506040513d6020811015612dad57600080fd5b505190506000612dbe888684615097565b90506000612ddc68327cb2734119d3b7a9601e1b6117f584886145b4565b600554909150612df89082908b906001600160a01b0316611d51565b6040805182815260208101829052600a81830152691b5a5b9d105b5bdd5b9d60b21b60608201529051919250600080516020615f94833981519152919081900360800190a1612e478982615206565b612e518983614c6c565b600554604080516340c10f1960e01b81526001600160a01b038b8116600483015260248201859052915191909216916340c10f1991604480830192600092919082900301818387803b158015612ea657600080fd5b505af1158015612eba573d6000803e3d6000fd5b5050604080516001600160a01b03808d1682528d1660208201528082018a9052606081018590526080810187905290517fab4c77c74cd32c85f35416cf03e7ce9e2d4387f7b7f2c1f4bf53daaecf8ea72d93509081900360a0019150a16016805461ff0019169055600160005598975050505050505050565b60048054601654604080516317e1d38560e11b81526001600160a01b038681169582019590955260006024820181905260ff80851615156044840152610100909404909316151560648201529051919390921691632fc3a70a916084808301926020929190829003018186803b158015612fac57600080fd5b505afa158015612fc0573d6000803e3d6000fd5b505050506040513d6020811015612fd657600080fd5b505192915050565b600060026000541415613026576040805162461bcd60e51b815260206004820152601f6024820152600080516020615f34833981519152604482015290519081900360640190fd5b60026000556130336147ad565b61303c886147c9565b61304b888888888888886152c4565b600160005598975050505050505050565b61306461464c565b6001600160a01b03909116600090815260276020526040902055565b601281565b601e6020526000908152604090205481565b61309f61464c565b6130af610e10841015600a614701565b6130bf612710831115600b614701565b6130cf612710821115600c614701565b601292909255601355601455565b602d6020526000908152604090205481565b601d6020526000908152604090205481565b61310961464c565b600280546001600160a01b0319166001600160a01b0392909216919091179055565b60165462010000900460ff1681565b600060026000541415613182576040805162461bcd60e51b815260206004820152601f6024820152600080516020615f34833981519152604482015290519081900360640190fd5b600260005560015461319d90610100900460ff166017614701565b6001600160a01b0384166000908152601c60205260409020546131c49060ff166018614701565b6001600160a01b0383166000908152601c60205260409020546131eb9060ff166019614701565b61320b836001600160a01b0316856001600160a01b03161415601a614701565b6016805461ff00191661010017905561322484806142c4565b61322e83846142c4565b6000613239856149fd565b905061324960008211601b614701565b600061325486612f33565b9050600061326186614033565b90506000613273826117f586866145b4565b9050613280818989611d51565b9050600061329e68327cb2734119d3b7a9601e1b6117f587876145b4565b6005549091506132ba9082908b906001600160a01b0316611d51565b60015460408051636d099c0b60e11b81526001600160a01b038d811660048301528c8116602483015260448201859052915193945060009363010000009093049091169163da13381691606480820192602092909190829003018186803b15801561332457600080fd5b505afa158015613338573d6000803e3d6000fd5b505050506040513d602081101561334e57600080fd5b50519050600061335f8a8584615097565b905061336b8b84615206565b6133758a84614f3e565b61337f8b88614c6c565b6133898a85614d84565b6133928a615751565b61339d8a828b61515f565b604080516001600160a01b03808c168252808e1660208301528c1681830152606081018990526080810186905260a0810183905260c0810184905290517f0874b2d545cb271cdbda4e093020c452328b24af12382ed62c4d00f5c26709db9181900360e00190a16016805461ff001916905560016000559a9950505050505050505050565b68327cb2734119d3b7a9601e1b81565b602f6020526000908152604090205481565b60125481565b60008161345957506000611868565b611dec838361346786614033565b61428a565b6001600160a01b0383166000908152602d6020908152604080832054602e909252822054828582116134a7576134a286836146bf565b6134b1565b6134b182876146bf565b905060006134c3836117f586856145b4565b905086831160006134d48689614667565b90506000826134ec576134e78285614667565b6134f6565b6134f682856146bf565b9050613506816117f58c856145b4565b9b9a5050505050505050505050565b60115460ff1681565b600d5481565b60008161353357506000611868565b611dec838361346786612f33565b61354961464c565b6001600160a01b03919091166000908152601a60205260409020805460ff1916911515919091179055565b6012546001600160a01b0382166000908152602a60205260408120549091429161359d91614667565b11156135ab575060006117ff565b6012546001600160a01b0383166000908152602a602052604081205490916135d8916117f59042906146bf565b6001600160a01b03841660009081526025602052604090205490915080613604576000925050506117ff565b6001600160a01b0384166000908152601f602052604081205460ff1661362c57601354613630565b6014545b6001600160a01b0386166000908152602660205260409020549091506136699083906117f59086906136639086906145b4565b906145b4565b95945050505050565b60165460ff1681565b60226020526000908152604090205481565b60246020526000908152604090205481565b60085481565b601654610100900460ff1681565b6001600160a01b0381166000908152601f602052604081205460ff16156136f357506001600160a01b0381166000908152602560205260409020546117ff565b6001600160a01b03821660009081526028602052604081205461371790849061344a565b6001600160a01b0384166000908152602660209081526040808320546025909252909120549192506117fb9161374e908490614667565b906146bf565b6001546040805163b1cc53ab60e01b81526001600160a01b038681166004830152858116602483015284151560448301529151600093630100000090049092169163b1cc53ab91606480820192602092909190829003018186803b1580156137bb57600080fd5b505afa1580156137cf573d6000803e3d6000fd5b505050506040513d60208110156137e557600080fd5b5051949350505050565b6001600160a01b0381166000908152602d602052604081205481908061381c576000809250925050613882565b600061382785614033565b6001600160a01b0386166000908152602e60205260408120549192508282116138595761385483836146bf565b613863565b61386382846146bf565b90506000613875836117f587856145b4565b9390921195509193505050505b915091565b60266020526000908152604090205481565b60135481565b60296020526000908152604090205481565b6001546040805163c7e074c360e01b81526001600160a01b03888116600483015260248201889052604482018790526064820186905284151560848301529151600093630100000090049092169163c7e074c39160a480820192602092909190829003018186803b15801561392557600080fd5b505afa158015613939573d6000803e3d6000fd5b505050506040513d602081101561394f57600080fd5b50519695505050505050565b61396361464c565b6139776001600160a01b03831684836157c6565b505050565b61398461464c565b600680546001600160a01b0319166001600160a01b0392909216919091179055565b6139ae61464c565b601755565b6139bb61464c565b6139ca61271082116002614701565b600855565b6001546040805163d54d5a9f60e01b81526001600160a01b03888116600483015287811660248301528681166044830152851515606483015284151560848301528251600094859463010000009091049092169263d54d5a9f9260a4808301939192829003018186803b158015613a4557600080fd5b505afa158015613a59573d6000803e3d6000fd5b505050506040513d6040811015613a6f57600080fd5b508051602090910151909890975095505050505050565b613a8e61464c565b6001600160a01b03821660009081526023602052604090205480821115613ac857613ac283613abd84846146bf565b615206565b50612762565b61397783613ad683856146bf565b614f3e565b602a6020526000908152604090205481565b60105481565b6001546040805163369d949360e21b81526001600160a01b0389811660048301528881166024830152878116604483015286151560648301526084820186905260a482018590529151600093630100000090049092169163da76524c9160c480820192602092909190829003018186803b158015613b7057600080fd5b505afa158015613b84573d6000803e3d6000fd5b505050506040513d6020811015613b9a57600080fd5b5051979650505050505050565b601c6020526000908152604090205460ff1681565b602080526000908152604090205460ff1681565b6000806000613be28a8a8a8a88612545565b90925090506000613bf38a87614667565b905060008815613c225783613c1157613c0c82846146bf565b613c1b565b613c1b8284614667565b9050613c43565b83613c3657613c318284614667565b613c40565b613c4082846146bf565b90505b613c51816117f58a856145b4565b9c9b505050505050505050505050565b60155481565b60026000541415613cad576040805162461bcd60e51b815260206004820152601f6024820152600080516020615f34833981519152604482015290519081900360640190fd5b60026000556016546301000000900460ff1615613ce25733600090815260196020526040902054613ce29060ff166022614701565b6016805460ff19169055613cf684846142c4565b6000613d04868686866119f5565b9050613d0e615ee1565b506000818152602b6020908152604091829020825160e08101845281548082526001830154938201939093526002820154938101939093526003810154606084015260048101546080840152600581015460a08401526006015460c0830152613d7a9015156023614701565b600080613d8b8989898960006139cf565b91509150613d9e82600014156024614701565b8160021415613dd357613dbb898989600087600001518b8f6152c4565b50506016805460ff1916600117905550614021915050565b6000613ddf898361344a565b6001600160a01b038a166000908152602c6020526040902054909150613e059082614667565b6001600160a01b038a166000818152602c6020908152604091829020939093558051918252918101849052808201839052905160008051602061601f8339815191529181900360600190a1613e5e898560800151615818565b8615613e8d5760208401518451613e7f918b91613e7a916146bf565b614bed565b613e8d8961219a8b8561344a565b600087613ea257613e9d89614033565b613eab565b613eab89612f33565b90507f2e1f85a64a2f22cf2f0c42584e7c919ed4abe8d53675cff0f62bf1e95a1c676f868c8c8c8c8a600001518b602001518c608001518d60a001518a604051808b81526020018a6001600160a01b03168152602001896001600160a01b03168152602001886001600160a01b0316815260200187151581526020018681526020018581526020018481526020018381526020018281526020019a505050505050505050505060405180910390a187158015613f6a5750846020015183105b15613f98576020850151600090613f8190856146bf565b9050613f968b613f918d8461344a565b614c6c565b505b87613fab57613fab8986600001516158cd565b6000868152602b60205260408120818155600181018290556002810182905560038101829055600481018290556005810182905560060155600954613ff7908b9061219a90829061344a565b61400d8a6140078c60095461344a565b8961515f565b50506016805460ff19166001179055505050505b50506001600055505050565b600e5481565b60048054601654604080516317e1d38560e11b81526001600160a01b03868116958201959095526001602482015260ff80841615156044830152610100909304909216151560648301525160009390921691632fc3a70a91608480820192602092909190829003018186803b158015612fac57600080fd5b601b81815481106140b857fe5b6000918252602090912001546001600160a01b0316905081565b6140da61464c565b6001600160a01b0381166000908152601c60205260409020546141019060ff16600d614701565b6001600160a01b038116600090815260226020526040902054601554614126916146bf565b6015556001600160a01b0381166000908152601c60209081526040808320805460ff19908116909155601d835281842084905560228352818420849055601e835281842084905560248352818420849055601f83528184208054821690559180529091208054909116905560075461419f9060016146bf565b60075550565b6141ad61464c565b6001600160a01b039091166000908152602f6020526040902055565b60286020526000908152604090205481565b6141e361464c565b6016805491151563010000000263ff00000019909216919091179055565b600061420b61464c565b6001600160a01b0383166000908152602c602052604090205480614233576000915050611868565b6001600160a01b0384166000908152602c6020526040812055611dec84828561515f565b601a6020526000908152604090205460ff1681565b6005546001600160a01b031681565b6003546001600160a01b031681565b60008261429957506000611dec565b6001600160a01b0384166000908152601d6020526040902054613669836117f586600a85900a6145b4565b6001546040805163fbfded6d60e01b81526001600160a01b03858116600483015284811660248301529151600093630100000090049092169163fbfded6d9160448082019260209290919082900301818787803b15801561432457600080fd5b505af1158015614338573d6000803e3d6000fd5b505050506040513d602081101561434e57600080fd5b505190508061435d5750612762565b6001600160a01b0383166000908152602a60205260409020546143aa5760125461438b90613663428261460d565b6001600160a01b0384166000908152602a602052604090205550612762565b6012546001600160a01b0384166000908152602a602052604090205442916143d29190614667565b11156143de5750612762565b60006143e984613574565b6001600160a01b03851660009081526029602052604090205490915061440f9082614667565b6001600160a01b03851660009081526029602052604090205560125461443990613663428261460d565b6001600160a01b0385166000818152602a602090815260408083209490945560298152908390205483519283529082015281517fa146fc154e1913322e9817d49f0d5c37466c24326e15de10e739a948be815eab929181900390910190a150505050565b610e1081565b6001546040805163fdaf6ac360e01b81526001600160a01b038881166004830152878116602483015286811660448301528515156064830152608482018590529151600093630100000090049092169163fdaf6ac39160a480820192602092909190829003018186803b15801561392557600080fd5b60306020908152600091825260409182902080548351601f6002600019610100600186161502019093169290920491820184900484028101840190945280845290918301828280156145ac5780601f10614581576101008083540402835291602001916145ac565b820191906000526020600020905b81548152906001019060200180831161458f57829003601f168201915b505050505081565b6000826145c357506000611868565b828202828482816145d057fe5b0414611dec5760405162461bcd60e51b8152600401808060200182810382526021815260200180615fb46021913960400191505060405180910390fd5b6000611dec83836040518060400160405280601a815260200179536166654d6174683a206469766973696f6e206279207a65726f60301b815250615935565b600654614665906001600160a01b031633146035614701565b565b600082820183811015611dec576040805162461bcd60e51b815260206004820152601b60248201527a536166654d6174683a206164646974696f6e206f766572666c6f7760281b604482015290519081900360640190fd5b6000611dec83836040518060400160405280601e81526020017f536166654d6174683a207375627472616374696f6e206f766572666c6f7700008152506159d7565b6000818152603060205260409020826139775760405162461bcd60e51b815260206004820190815282546002600019610100600184161502019091160460248301819052909182916044909101908490801561479e5780601f106147735761010080835404028352916020019161479e565b820191906000526020600020905b81548152906001019060200180831161478157829003601f168201915b50509250505060405180910390fd5b6017546147b957614665565b6146656017543a11156037614701565b336001600160a01b03821614156147df57614829565b6003546001600160a01b03163314156147f757614829565b6001600160a01b03811660009081526018602090815260408083203384529091529020546148299060ff166029614701565b50565b80156148a557614851826001600160a01b0316846001600160a01b031614602a614701565b6001600160a01b0383166000908152601c60205260409020546148789060ff16602b614701565b6001600160a01b0383166000908152601f60205260409020546148a09060ff1615602c614701565b613977565b6001600160a01b0383166000908152601c60205260409020546148cc9060ff16602d614701565b6001600160a01b0383166000908152601f60205260409020546148f39060ff16602e614701565b6001600160a01b0382166000908152601f602052604090205461491b9060ff1615602f614701565b6001600160a01b03821660009081526020805260409020546139779060ff166030614701565b60008061495189898989896144a3565b905060006149638a8a8a8a8989613af3565b905061496f8282614667565b9150600061497d8a8461344a565b6001600160a01b038b166000908152602c60205260409020549091506149a39082614667565b6001600160a01b038b166000818152602c6020908152604091829020939093558051918252918101859052808201839052905160008051602061601f8339815191529181900360600190a150909998505050505050505050565b6001600160a01b03811660008181526021602090815260408083205481516370a0823160e01b8152306004820152915193949093859391926370a08231926024808301939192829003018186803b158015614a5757600080fd5b505afa158015614a6b573d6000803e3d6000fd5b505050506040513d6020811015614a8157600080fd5b50516001600160a01b03851660009081526021602052604090208190559050611b4281836146bf565b81614ac057614abb81156027614701565b612762565b612762818310156028614701565b6001600160a01b038216600090815260266020526040902054614af19082614667565b6001600160a01b038316600090815260266020818152604080842085905560258252909220549152614b269111156034614701565b604080516001600160a01b03841681526020810183905281517faa5649d82f5462be9d19b0f2b31a59b2259950a6076550bac9f3a1c07db9f66d929181900390910190a15050565b6001600160a01b038216600090815260286020526040902054614b919082614667565b6001600160a01b03831660008181526028602090815260409182902093909355805191825291810183905281517fd9d4761f75e0d0103b5cbeab941eeb443d7a56a35b5baf2a0787c03f03f4e474929181900390910190a15050565b6001600160a01b038216600090815260286020526040902054614c1090826146bf565b6001600160a01b03831660008181526028602090815260409182902093909355805191825291810183905281517f34e07158b9db50df5613e591c44ea2ebc82834eff4a4dc3a46e000e608261d68929181900390910190a15050565b6001600160a01b038216600090815260256020526040902054614c8f9082614667565b6001600160a01b03831660008181526025602090815260408083209490945583516370a0823160e01b8152306004820152935191936370a082319260248083019392829003018186803b158015614ce557600080fd5b505afa158015614cf9573d6000803e3d6000fd5b505050506040513d6020811015614d0f57600080fd5b50516001600160a01b038416600090815260256020526040902054909150614d3b908210156031614701565b604080516001600160a01b03851681526020810184905281517f976177fbe09a15e5e43f848844963a42b41ef919ef17ff21a17a5421de8f4737929181900390910190a1505050565b604080518082018252601a81527915985d5b1d0e881c1bdbdb105b5bdd5b9d08195e18d95959195960321b6020808301919091526001600160a01b038516600090815260259091529190912054614ddc9183906159d7565b6001600160a01b03831660009081526025602090815260408083208490556026909152902054614e0f9110156032614701565b604080516001600160a01b03841681526020810183905281517f112726233fbeaeed0f5b1dba5cb0b2b81883dee49fb35ff99fd98ed9f6d31eb0929181900390910190a15050565b6001600160a01b0382166000908152602d6020526040902054614e7a9082614667565b6001600160a01b0383166000908152602d6020908152604080832093909355602f905220548015613977576001600160a01b0383166000908152602d6020526040902054811015613977576040805162461bcd60e51b815260206004820152601a60248201527915985d5b1d0e881b585e081cda1bdc9d1cc8195e18d95959195960321b604482015290519081900360640190fd5b60165462010000900460ff161561466557336000908152601a60205260409020546146659060ff166036614701565b6001600160a01b038216600090815260236020526040902054818111614fa7576001600160a01b038316600081815260236020908152604080832092909255815192835282018390528051600080516020615fd58339815191529281900390910190a150612762565b614fb181836146bf565b6001600160a01b0384166000818152602360209081526040918290209390935580519182529181018490528151600080516020615fd5833981519152929181900390910190a1505050565b6000816001600160a01b03166370a08231306040518263ffffffff1660e01b815260040180826001600160a01b0316815260200191505060206040518083038186803b15801561504b57600080fd5b505afa15801561505f573d6000803e3d6000fd5b505050506040513d602081101561507557600080fd5b50516001600160a01b0390921660009081526021602052604090209190915550565b6000806150b46127106117f56150ad82876146bf565b87906145b4565b905060006150c285836146bf565b6001600160a01b0387166000908152602c60205260409020549091506150e89082614667565b6001600160a01b0387166000908152602c60205260409020557f47cd9dda0e50ce30bcaaacd0488452b596221c07ac402a581cfae4d3933cac2b8661512d818461181b565b604080516001600160a01b0390931683526020830191909152818101849052519081900360600190a150949350505050565b6151736001600160a01b03841682846157c6565b604080516370a0823160e01b815230600482015290516001600160a01b038516916370a08231916024808301926020929190829003018186803b1580156151b957600080fd5b505afa1580156151cd573d6000803e3d6000fd5b505050506040513d60208110156151e357600080fd5b50516001600160a01b039093166000908152602160205260409020929092555050565b6001600160a01b0382166000908152602360205260409020546152299082614667565b6001600160a01b038316600090815260236020908152604080832093909355602490522054801561527b576001600160a01b03831660009081526023602052604090205461527b908210156033614701565b604080516001600160a01b03851681526020810184905281517f64243679a443432e2293343b77d411ff6144370404618f00ca0d2025d9ca9882929181900390910190a1505050565b600154604080516381d11a2360e01b81526001600160a01b038a8116600483015289811660248301528881166044830152606482018890526084820187905285151560a483015284811660c4830152915160009363010000009004909216916381d11a239160e4808201928692909190829003018186803b15801561534857600080fd5b505afa15801561535c573d6000803e3d6000fd5b5050505061536a87876142c4565b6000615378898989876119f5565b6000818152602b60205260409020805491925090615399901515601f614701565b6153ab86826000015410156020614701565b6153bd87826001015410156021614701565b6001810154815460048301546000916153da916117f5908b6145b4565b60048401549091506153ec90826146bf565b60048401556153fb8b82615818565b5060008061540d8d8d8d8d8d8d615a31565b85549193509150891461558d576154258c8c8a613754565b60038501558354615436908a6146bf565b80855560018501546154489190614aaa565b6154568d8d8d8b60016139cf565b50508715615483576154798c6121738660010154866146bf90919063ffffffff16565b6154838c8a614bed565b600088615498576154938c614033565b6154a1565b6154a18c612f33565b9050600080516020615f74833981519152868f8f8f8f8f8f886154c48c8c6146bf565b60408051998a526001600160a01b0398891660208b015296881689880152949096166060880152608087019290925260a0860152151560c085015260e084019290925261010083019190915251908190036101200190a18454600186015460028701546003880154600489015460058a0154604080518d81526020810197909752868101959095526060860193909352608085019190915260a084015260c083015260e0820183905251600080516020615f54833981519152918190036101000190a1506156ef565b87156155a75761559d8c84614b6e565b6155a78c8a614bed565b6000886155bc576155b78c614033565b6155c5565b6155c58c612f33565b9050600080516020615f74833981519152868f8f8f8f8f8f886155e88c8c6146bf565b60408051998a526001600160a01b0398891660208b015296881689880152949096166060880152608087019290925260a0860152151560c085015260e084019290925261010083019190915251908190036101200190a18454600186015460028701546003880154600489015460058a0154604080518d81526020810197909752868101959095526060860193909352608085019190915260a084015260c0830152517f73af1d417d82c240fdb6d319b34ad884487c6bf2845d98980cc52ad9171cb4559181900360e00190a1506000858152602b602052604081208181556001810182905560028101829055600381018290556004810182905560058101829055600601555b876156fe576156fe8b8a6158cd565b811561573e578715615718576157188c61219a8e8561344a565b60006157248d8361344a565b90506157318d828a61515f565b9550612501945050505050565b5060009c9b505050505050505050505050565b6001600160a01b0381166000908152602760209081526040808320546025909252909120541015614829576040805162461bcd60e51b815260206004820152601a6024820152792b30bab63a1d103837b7b620b6b7bab73a101e10313ab33332b960311b604482015290519081900360640190fd5b604080516001600160a01b038416602482015260448082018490528251808303909101815260649091019091526020810180516001600160e01b031663a9059cbb60e01b179052613977908490615c2b565b604080518082018252601b81527a5661756c743a20696e73756666696369656e74207265736572766560281b6020808301919091526001600160a01b0385166000908152602690915291909120546158719183906159d7565b6001600160a01b03831660008181526026602090815260409182902093909355805191825291810183905281517f533cb5ed32be6a90284e96b5747a1bfc2d38fdb5768a6b5f67ff7d62144ed67b929181900390910190a15050565b6001600160a01b0382166000908152602d60205260409020548082111561590d57506001600160a01b0382166000908152602d6020526040812055612762565b61591781836146bf565b6001600160a01b0384166000908152602d6020526040902055505050565b600081836159c15760405162461bcd60e51b81526004018080602001828103825283818151815260200191508051906020019080838360005b8381101561598657818101518382015260200161596e565b50505050905090810190601f1680156159b35780820380516001836020036101000a031916815260200191505b509250505060405180910390fd5b5060008385816159cd57fe5b0495945050505050565b60008184841115615a295760405162461bcd60e51b815260206004820181815283516024840152835190928392604490910191908501908083836000831561598657818101518382015260200161596e565b505050900390565b6000806000615a42898989876119f5565b6000818152602b60205260408120805460038201549394509092615a6f918d918d918d918b918d91614941565b9050600080600080615a908d876000015488600201548d8a60060154612545565b87549195508593509150615aa8906117f58d846145b4565b925050506000828015615abb5750600082115b15615aeb5750600584018054820190558088615aeb576000615add8e8461344a565b9050615ae98e82614d84565b505b82158015615af95750600082115b15615b3d576001850154615b0d90836146bf565b600186015588615b31576000615b238e8461344a565b9050615b2f8e82614c6c565b505b60058501805483900390555b8a15615b6557615b4d818c614667565b6001860154909150615b5f908c6146bf565b60018601555b84548a1415615b88576001850154615b7e908290614667565b6000600187015590505b8084811115615ba257615b9b82866146bf565b9050615bd6565b6001860154615bb190866146bf565b60018701558915615bd6576000615bc88f8761344a565b9050615bd48f82614d84565b505b60408051888152851515602082015280820185905290517f3ff41bdde87755b687ae83d0221a232b6be51a803330ed9661c1b5d0105e0d8a9181900360600190a1909e909d509b505050505050505050505050565b6060615c80826040518060400160405280602081526020017f5361666545524332303a206c6f772d6c6576656c2063616c6c206661696c6564815250856001600160a01b0316615cdc9092919063ffffffff16565b80519091501561397757808060200190516020811015615c9f57600080fd5b50516139775760405162461bcd60e51b815260040180806020018281038252602a815260200180615ff5602a913960400191505060405180910390fd5b6060611b42848460008585615cf085615df7565b615d41576040805162461bcd60e51b815260206004820152601d60248201527f416464726573733a2063616c6c20746f206e6f6e2d636f6e7472616374000000604482015290519081900360640190fd5b60006060866001600160a01b031685876040518082805190602001908083835b60208310615d805780518252601f199092019160209182019101615d61565b6001836020036101000a03801982511681845116808217855250505050505090500191505060006040518083038185875af1925050503d8060008114615de2576040519150601f19603f3d011682016040523d82523d6000602084013e615de7565b606091505b5091509150612501828286615dfd565b3b151590565b60608315615e0c575081611dec565b825115615e1c5782518084602001fd5b60405162461bcd60e51b815260206004820181815284516024840152845185939192839260440191908501908083836000831561598657818101518382015260200161596e565b828054600181600116156101000203166002900490600052602060002090601f016020900481019282601f10615ea45782800160ff19823516178555615ed1565b82800160010185558215615ed1579182015b82811115615ed1578235825591602001919060010190615eb6565b50615edd929150615f1e565b5090565b6040518060e00160405280600081526020016000815260200160008152602001600081526020016000815260200160008152602001600081525090565b5b80821115615edd5760008155600101615f1f56fe5265656e7472616e637947756172643a207265656e7472616e742063616c6c0020853733b590dce729d9f4628682ebd9a34d2354e72679e66f43a008fc03b77393d75d64d1f84fc6f430a64fc578bdd4c1e090e90ea2d51773e626d19de56d302ccccc5fa46a4a55e969e7340ef613f539c149a9908c6d7fd2bf9e158d9d3958536166654d6174683a206d756c7469706c69636174696f6e206f766572666c6f77e1e812596aac93a06ecc4ca627014d18e30f5c33b825160cc9d5c0ba61e452275361666545524332303a204552433230206f7065726174696f6e20646964206e6f7420737563636565645d0c0019d3d45fadeb74eff9d2c9924d146d000ac6bcf3c28bf0ac3c9baa011aa2646970667358221220c60d59bac352df14bd9bb32814419329d68ec6a886f0a99140fde425908a592364736f6c634300060c0033",
  "linkReferences": {},
  "deployedLinkReferences": {}
}