{
  "_format": "hh-sol-artifact-1",
  "contractName": "Vault",
  "sourceName": "contracts/core/Vault.sol",
  "abi": [
    {
      "inputs": [],
      "stateMutability": "nonpayable",
      "type": "constructor"
    },
    {
      "anonymous": false,
      "inputs": [
        {
          "indexed": false,
          "internalType": "address",
          "name": "account",
          "type": "address"
        },
        {
          "indexed": false,
          "internalType": "address",
          "name": "token",
          "type": "address"
        },
        {
          "indexed": false,
          "internalType": "uint256",
          "name": "tokenAmount",
          "type": "uint256"
        },
        {
          "indexed": false,
          "internalType": "uint256",
          "name": "usdgAmount",
          "type": "uint256"
        },
        {
          "indexed": false,
          "internalType": "uint256",
          "name": "feeBasisPoints",
          "type": "uint256"
        }
      ],
      "name": "BuyUSDG",
      "type": "event"
    },
    {
      "anonymous": false,
      "inputs": [
        {
          "indexed": false,
          "internalType": "bytes32",
          "name": "key",
          "type": "bytes32"
        },
        {
          "indexed": false,
          "internalType": "uint256",
          "name": "size",
          "type": "uint256"
        },
        {
          "indexed": false,
          "internalType": "uint256",
          "name": "collateral",
          "type": "uint256"
        },
        {
          "indexed": false,
          "internalType": "uint256",
          "name": "averagePrice",
          "type": "uint256"
        },
        {
          "indexed": false,
          "internalType": "uint256",
          "name": "entryFundingRate",
          "type": "uint256"
        },
        {
          "indexed": false,
          "internalType": "uint256",
          "name": "reserveAmount",
          "type": "uint256"
        },
        {
          "indexed": false,
          "internalType": "int256",
          "name": "realisedPnl",
          "type": "int256"
        }
      ],
      "name": "ClosePosition",
      "type": "event"
    },
    {
      "anonymous": false,
      "inputs": [
        {
          "indexed": false,
          "internalType": "address",
          "name": "token",
          "type": "address"
        },
        {
          "indexed": false,
          "internalType": "uint256",
          "name": "feeUsd",
          "type": "uint256"
        },
        {
          "indexed": false,
          "internalType": "uint256",
          "name": "feeTokens",
          "type": "uint256"
        }
      ],
      "name": "CollectMarginFees",
      "type": "event"
    },
    {
      "anonymous": false,
      "inputs": [
        {
          "indexed": false,
          "internalType": "address",
          "name": "token",
          "type": "address"
        },
        {
          "indexed": false,
          "internalType": "uint256",
          "name": "feeUsd",
          "type": "uint256"
        },
        {
          "indexed": false,
          "internalType": "uint256",
          "name": "feeTokens",
          "type": "uint256"
        }
      ],
      "name": "CollectSwapFees",
      "type": "event"
    },
    {
      "anonymous": false,
      "inputs": [
        {
          "indexed": false,
          "internalType": "address",
          "name": "token",
          "type": "address"
        },
        {
          "indexed": false,
          "internalType": "uint256",
          "name": "amount",
          "type": "uint256"
        }
      ],
      "name": "DecreaseGuaranteedUsd",
      "type": "event"
    },
    {
      "anonymous": false,
      "inputs": [
        {
          "indexed": false,
          "internalType": "address",
          "name": "token",
          "type": "address"
        },
        {
          "indexed": false,
          "internalType": "uint256",
          "name": "amount",
          "type": "uint256"
        }
      ],
      "name": "DecreasePoolAmount",
      "type": "event"
    },
    {
      "anonymous": false,
      "inputs": [
        {
          "indexed": false,
          "internalType": "bytes32",
          "name": "key",
          "type": "bytes32"
        },
        {
          "indexed": false,
          "internalType": "address",
          "name": "account",
          "type": "address"
        },
        {
          "indexed": false,
          "internalType": "address",
          "name": "collateralToken",
          "type": "address"
        },
        {
          "indexed": false,
          "internalType": "address",
          "name": "indexToken",
          "type": "address"
        },
        {
          "indexed": false,
          "internalType": "uint256",
          "name": "collateralDelta",
          "type": "uint256"
        },
        {
          "indexed": false,
          "internalType": "uint256",
          "name": "sizeDelta",
          "type": "uint256"
        },
        {
          "indexed": false,
          "internalType": "bool",
          "name": "isLong",
          "type": "bool"
        },
        {
          "indexed": false,
          "internalType": "uint256",
          "name": "price",
          "type": "uint256"
        },
        {
          "indexed": false,
          "internalType": "uint256",
          "name": "fee",
          "type": "uint256"
        }
      ],
      "name": "DecreasePosition",
      "type": "event"
    },
    {
      "anonymous": false,
      "inputs": [
        {
          "indexed": false,
          "internalType": "address",
          "name": "token",
          "type": "address"
        },
        {
          "indexed": false,
          "internalType": "uint256",
          "name": "amount",
          "type": "uint256"
        }
      ],
      "name": "DecreaseReservedAmount",
      "type": "event"
    },
    {
      "anonymous": false,
      "inputs": [
        {
          "indexed": false,
          "internalType": "address",
          "name": "token",
          "type": "address"
        },
        {
          "indexed": false,
          "internalType": "uint256",
          "name": "amount",
          "type": "uint256"
        }
      ],
      "name": "DecreaseUsdgAmount",
      "type": "event"
    },
    {
      "anonymous": false,
      "inputs": [
        {
          "indexed": false,
          "internalType": "address",
          "name": "token",
          "type": "address"
        },
        {
          "indexed": false,
          "internalType": "uint256",
          "name": "amount",
          "type": "uint256"
        }
      ],
      "name": "DirectPoolDeposit",
      "type": "event"
    },
    {
      "anonymous": false,
      "inputs": [
        {
          "indexed": false,
          "internalType": "address",
          "name": "token",
          "type": "address"
        },
        {
          "indexed": false,
          "internalType": "uint256",
          "name": "amount",
          "type": "uint256"
        }
      ],
      "name": "IncreaseGuaranteedUsd",
      "type": "event"
    },
    {
      "anonymous": false,
      "inputs": [
        {
          "indexed": false,
          "internalType": "address",
          "name": "token",
          "type": "address"
        },
        {
          "indexed": false,
          "internalType": "uint256",
          "name": "amount",
          "type": "uint256"
        }
      ],
      "name": "IncreasePoolAmount",
      "type": "event"
    },
    {
      "anonymous": false,
      "inputs": [
        {
          "indexed": false,
          "internalType": "bytes32",
          "name": "key",
          "type": "bytes32"
        },
        {
          "indexed": false,
          "internalType": "address",
          "name": "account",
          "type": "address"
        },
        {
          "indexed": false,
          "internalType": "address",
          "name": "collateralToken",
          "type": "address"
        },
        {
          "indexed": false,
          "internalType": "address",
          "name": "indexToken",
          "type": "address"
        },
        {
          "indexed": false,
          "internalType": "uint256",
          "name": "collateralDelta",
          "type": "uint256"
        },
        {
          "indexed": false,
          "internalType": "uint256",
          "name": "sizeDelta",
          "type": "uint256"
        },
        {
          "indexed": false,
          "internalType": "bool",
          "name": "isLong",
          "type": "bool"
        },
        {
          "indexed": false,
          "internalType": "uint256",
          "name": "price",
          "type": "uint256"
        },
        {
          "indexed": false,
          "internalType": "uint256",
          "name": "fee",
          "type": "uint256"
        }
      ],
      "name": "IncreasePosition",
      "type": "event"
    },
    {
      "anonymous": false,
      "inputs": [
        {
          "indexed": false,
          "internalType": "address",
          "name": "token",
          "type": "address"
        },
        {
          "indexed": false,
          "internalType": "uint256",
          "name": "amount",
          "type": "uint256"
        }
      ],
      "name": "IncreaseReservedAmount",
      "type": "event"
    },
    {
      "anonymous": false,
      "inputs": [
        {
          "indexed": false,
          "internalType": "address",
          "name": "token",
          "type": "address"
        },
        {
          "indexed": false,
          "internalType": "uint256",
          "name": "amount",
          "type": "uint256"
        }
      ],
      "name": "IncreaseUsdgAmount",
      "type": "event"
    },
    {
      "anonymous": false,
      "inputs": [
        {
          "indexed": false,
          "internalType": "bytes32",
          "name": "key",
          "type": "bytes32"
        },
        {
          "indexed": false,
          "internalType": "address",
          "name": "account",
          "type": "address"
        },
        {
          "indexed": false,
          "internalType": "address",
          "name": "collateralToken",
          "type": "address"
        },
        {
          "indexed": false,
          "internalType": "address",
          "name": "indexToken",
          "type": "address"
        },
        {
          "indexed": false,
          "internalType": "bool",
          "name": "isLong",
          "type": "bool"
        },
        {
          "indexed": false,
          "internalType": "uint256",
          "name": "size",
          "type": "uint256"
        },
        {
          "indexed": false,
          "internalType": "uint256",
          "name": "collateral",
          "type": "uint256"
        },
        {
          "indexed": false,
          "internalType": "uint256",
          "name": "reserveAmount",
          "type": "uint256"
        },
        {
          "indexed": false,
          "internalType": "int256",
          "name": "realisedPnl",
          "type": "int256"
        },
        {
          "indexed": false,
          "internalType": "uint256",
          "name": "markPrice",
          "type": "uint256"
        }
      ],
      "name": "LiquidatePosition",
      "type": "event"
    },
    {
      "anonymous": false,
      "inputs": [
        {
          "indexed": false,
          "internalType": "address",
          "name": "account",
          "type": "address"
        },
        {
          "indexed": false,
          "internalType": "address",
          "name": "token",
          "type": "address"
        },
        {
          "indexed": false,
          "internalType": "uint256",
          "name": "usdgAmount",
          "type": "uint256"
        },
        {
          "indexed": false,
          "internalType": "uint256",
          "name": "tokenAmount",
          "type": "uint256"
        },
        {
          "indexed": false,
          "internalType": "uint256",
          "name": "feeBasisPoints",
          "type": "uint256"
        }
      ],
      "name": "SellUSDG",
      "type": "event"
    },
    {
      "anonymous": false,
      "inputs": [
        {
          "indexed": false,
          "internalType": "address",
          "name": "account",
          "type": "address"
        },
        {
          "indexed": false,
          "internalType": "address",
          "name": "tokenIn",
          "type": "address"
        },
        {
          "indexed": false,
          "internalType": "address",
          "name": "tokenOut",
          "type": "address"
        },
        {
          "indexed": false,
          "internalType": "uint256",
          "name": "amountIn",
          "type": "uint256"
        },
        {
          "indexed": false,
          "internalType": "uint256",
          "name": "amountOut",
          "type": "uint256"
        },
        {
          "indexed": false,
          "internalType": "uint256",
          "name": "amountOutAfterFees",
          "type": "uint256"
        },
        {
          "indexed": false,
          "internalType": "uint256",
          "name": "feeBasisPoints",
          "type": "uint256"
        }
      ],
      "name": "Swap",
      "type": "event"
    },
    {
      "anonymous": false,
      "inputs": [
        {
          "indexed": false,
          "internalType": "uint256",
          "name": "arg",
          "type": "uint256"
        },
        {
          "indexed": false,
          "internalType": "string",
          "name": "name",
          "type": "string"
        }
      ],
      "name": "Test",
      "type": "event"
    },
    {
      "anonymous": false,
      "inputs": [
        {
          "indexed": false,
          "internalType": "address",
          "name": "token",
          "type": "address"
        },
        {
          "indexed": false,
          "internalType": "uint256",
          "name": "fundingRate",
          "type": "uint256"
        }
      ],
      "name": "UpdateFundingRate",
      "type": "event"
    },
    {
      "anonymous": false,
      "inputs": [
        {
          "indexed": false,
          "internalType": "bytes32",
          "name": "key",
          "type": "bytes32"
        },
        {
          "indexed": false,
          "internalType": "bool",
          "name": "hasProfit",
          "type": "bool"
        },
        {
          "indexed": false,
          "internalType": "uint256",
          "name": "delta",
          "type": "uint256"
        }
      ],
      "name": "UpdatePnl",
      "type": "event"
    },
    {
      "anonymous": false,
      "inputs": [
        {
          "indexed": false,
          "internalType": "bytes32",
          "name": "key",
          "type": "bytes32"
        },
        {
          "indexed": false,
          "internalType": "uint256",
          "name": "size",
          "type": "uint256"
        },
        {
          "indexed": false,
          "internalType": "uint256",
          "name": "collateral",
          "type": "uint256"
        },
        {
          "indexed": false,
          "internalType": "uint256",
          "name": "averagePrice",
          "type": "uint256"
        },
        {
          "indexed": false,
          "internalType": "uint256",
          "name": "entryFundingRate",
          "type": "uint256"
        },
        {
          "indexed": false,
          "internalType": "uint256",
          "name": "reserveAmount",
          "type": "uint256"
        },
        {
          "indexed": false,
          "internalType": "int256",
          "name": "realisedPnl",
          "type": "int256"
        },
        {
          "indexed": false,
          "internalType": "uint256",
          "name": "markPrice",
          "type": "uint256"
        }
      ],
      "name": "UpdatePosition",
      "type": "event"
    },
    {
      "inputs": [],
      "name": "BASIS_POINTS_DIVISOR",
      "outputs": [
        {
          "internalType": "uint256",
          "name": "",
          "type": "uint256"
        }
      ],
      "stateMutability": "view",
      "type": "function"
    },
    {
      "inputs": [],
      "name": "FUNDING_RATE_PRECISION",
      "outputs": [
        {
          "internalType": "uint256",
          "name": "",
          "type": "uint256"
        }
      ],
      "stateMutability": "view",
      "type": "function"
    },
    {
      "inputs": [],
      "name": "MAX_FEE_BASIS_POINTS",
      "outputs": [
        {
          "internalType": "uint256",
          "name": "",
          "type": "uint256"
        }
      ],
      "stateMutability": "view",
      "type": "function"
    },
    {
      "inputs": [],
      "name": "MAX_FUNDING_RATE_FACTOR",
      "outputs": [
        {
          "internalType": "uint256",
          "name": "",
          "type": "uint256"
        }
      ],
      "stateMutability": "view",
      "type": "function"
    },
    {
      "inputs": [],
      "name": "MAX_LIQUIDATION_FEE_USD",
      "outputs": [
        {
          "internalType": "uint256",
          "name": "",
          "type": "uint256"
        }
      ],
      "stateMutability": "view",
      "type": "function"
    },
    {
      "inputs": [],
      "name": "MIN_FUNDING_RATE_INTERVAL",
      "outputs": [
        {
          "internalType": "uint256",
          "name": "",
          "type": "uint256"
        }
      ],
      "stateMutability": "view",
      "type": "function"
    },
    {
      "inputs": [],
      "name": "MIN_LEVERAGE",
      "outputs": [
        {
          "internalType": "uint256",
          "name": "",
          "type": "uint256"
        }
      ],
      "stateMutability": "view",
      "type": "function"
    },
    {
      "inputs": [],
      "name": "PRICE_PRECISION",
      "outputs": [
        {
          "internalType": "uint256",
          "name": "",
          "type": "uint256"
        }
      ],
      "stateMutability": "view",
      "type": "function"
    },
    {
      "inputs": [],
      "name": "USDG_DECIMALS",
      "outputs": [
        {
          "internalType": "uint256",
          "name": "",
          "type": "uint256"
        }
      ],
      "stateMutability": "view",
      "type": "function"
    },
    {
      "inputs": [
        {
          "internalType": "address",
          "name": "_router",
          "type": "address"
        }
      ],
      "name": "addRouter",
      "outputs": [],
      "stateMutability": "nonpayable",
      "type": "function"
    },
    {
      "inputs": [
        {
          "internalType": "uint256",
          "name": "_amount",
          "type": "uint256"
        },
        {
          "internalType": "address",
          "name": "_tokenDiv",
          "type": "address"
        },
        {
          "internalType": "address",
          "name": "_tokenMul",
          "type": "address"
        }
      ],
      "name": "adjustForDecimals",
      "outputs": [
        {
          "internalType": "uint256",
          "name": "",
          "type": "uint256"
        }
      ],
      "stateMutability": "view",
      "type": "function"
    },
    {
      "inputs": [
        {
          "internalType": "uint256",
          "name": "",
          "type": "uint256"
        }
      ],
      "name": "allWhitelistedTokens",
      "outputs": [
        {
          "internalType": "address",
          "name": "",
          "type": "address"
        }
      ],
      "stateMutability": "view",
      "type": "function"
    },
    {
      "inputs": [],
      "name": "allWhitelistedTokensLength",
      "outputs": [
        {
          "internalType": "uint256",
          "name": "",
          "type": "uint256"
        }
      ],
      "stateMutability": "view",
      "type": "function"
    },
    {
      "inputs": [
        {
          "internalType": "address",
          "name": "",
          "type": "address"
        },
        {
          "internalType": "address",
          "name": "",
          "type": "address"
        }
      ],
      "name": "approvedRouters",
      "outputs": [
        {
          "internalType": "bool",
          "name": "",
          "type": "bool"
        }
      ],
      "stateMutability": "view",
      "type": "function"
    },
    {
      "inputs": [
        {
          "internalType": "address",
          "name": "",
          "type": "address"
        }
      ],
      "name": "bufferAmounts",
      "outputs": [
        {
          "internalType": "uint256",
          "name": "",
          "type": "uint256"
        }
      ],
      "stateMutability": "view",
      "type": "function"
    },
    {
      "inputs": [
        {
          "internalType": "address",
          "name": "_token",
          "type": "address"
        },
        {
          "internalType": "address",
          "name": "_receiver",
          "type": "address"
        }
      ],
      "name": "buyUSDG",
      "outputs": [
        {
          "internalType": "uint256",
          "name": "",
          "type": "uint256"
        }
      ],
      "stateMutability": "nonpayable",
      "type": "function"
    },
    {
      "inputs": [
        {
          "internalType": "address",
          "name": "_token",
          "type": "address"
        }
      ],
      "name": "clearTokenConfig",
      "outputs": [],
      "stateMutability": "nonpayable",
      "type": "function"
    },
    {
      "inputs": [
        {
          "internalType": "address",
          "name": "",
          "type": "address"
        }
      ],
      "name": "cumulativeFundingRates",
      "outputs": [
        {
          "internalType": "uint256",
          "name": "",
          "type": "uint256"
        }
      ],
      "stateMutability": "view",
      "type": "function"
    },
    {
      "inputs": [
        {
          "internalType": "address",
          "name": "_account",
          "type": "address"
        },
        {
          "internalType": "address",
          "name": "_collateralToken",
          "type": "address"
        },
        {
          "internalType": "address",
          "name": "_indexToken",
          "type": "address"
        },
        {
          "internalType": "uint256",
          "name": "_collateralDelta",
          "type": "uint256"
        },
        {
          "internalType": "uint256",
          "name": "_sizeDelta",
          "type": "uint256"
        },
        {
          "internalType": "bool",
          "name": "_isLong",
          "type": "bool"
        },
        {
          "internalType": "address",
          "name": "_receiver",
          "type": "address"
        }
      ],
      "name": "decreasePosition",
      "outputs": [
        {
          "internalType": "uint256",
          "name": "",
          "type": "uint256"
        }
      ],
      "stateMutability": "nonpayable",
      "type": "function"
    },
    {
      "inputs": [
        {
          "internalType": "address",
          "name": "_token",
          "type": "address"
        }
      ],
      "name": "directPoolDeposit",
      "outputs": [],
      "stateMutability": "nonpayable",
      "type": "function"
    },
    {
      "inputs": [],
      "name": "errorController",
      "outputs": [
        {
          "internalType": "address",
          "name": "",
          "type": "address"
        }
      ],
      "stateMutability": "view",
      "type": "function"
    },
    {
      "inputs": [
        {
          "internalType": "uint256",
          "name": "",
          "type": "uint256"
        }
      ],
      "name": "errors",
      "outputs": [
        {
          "internalType": "string",
          "name": "",
          "type": "string"
        }
      ],
      "stateMutability": "view",
      "type": "function"
    },
    {
      "inputs": [
        {
          "internalType": "address",
          "name": "",
          "type": "address"
        }
      ],
      "name": "feeReserves",
      "outputs": [
        {
          "internalType": "uint256",
          "name": "",
          "type": "uint256"
        }
      ],
      "stateMutability": "view",
      "type": "function"
    },
    {
      "inputs": [],
      "name": "fundingInterval",
      "outputs": [
        {
          "internalType": "uint256",
          "name": "",
          "type": "uint256"
        }
      ],
      "stateMutability": "view",
      "type": "function"
    },
    {
      "inputs": [],
      "name": "fundingRateFactor",
      "outputs": [
        {
          "internalType": "uint256",
          "name": "",
          "type": "uint256"
        }
      ],
      "stateMutability": "view",
      "type": "function"
    },
    {
      "inputs": [
        {
          "internalType": "address",
          "name": "_indexToken",
          "type": "address"
        },
        {
          "internalType": "uint256",
          "name": "_size",
          "type": "uint256"
        },
        {
          "internalType": "uint256",
          "name": "_averagePrice",
          "type": "uint256"
        },
        {
          "internalType": "bool",
          "name": "_isLong",
          "type": "bool"
        },
        {
          "internalType": "uint256",
          "name": "_lastIncreasedTime",
          "type": "uint256"
        }
      ],
      "name": "getDelta",
      "outputs": [
        {
          "internalType": "bool",
          "name": "",
          "type": "bool"
        },
        {
          "internalType": "uint256",
          "name": "",
          "type": "uint256"
        }
      ],
      "stateMutability": "view",
      "type": "function"
    },
    {
      "inputs": [
        {
          "internalType": "address",
          "name": "_collateralToken",
          "type": "address"
        },
        {
          "internalType": "address",
          "name": "_indexToken",
          "type": "address"
        },
        {
          "internalType": "bool",
          "name": "_isLong",
          "type": "bool"
        }
      ],
      "name": "getEntryFundingRate",
      "outputs": [
        {
          "internalType": "uint256",
          "name": "",
          "type": "uint256"
        }
      ],
      "stateMutability": "view",
      "type": "function"
    },
    {
      "inputs": [
        {
          "internalType": "address",
          "name": "_token",
          "type": "address"
        },
        {
          "internalType": "uint256",
          "name": "_usdgDelta",
          "type": "uint256"
        },
        {
          "internalType": "uint256",
          "name": "_feeBasisPoints",
          "type": "uint256"
        },
        {
          "internalType": "uint256",
          "name": "_taxBasisPoints",
          "type": "uint256"
        },
        {
          "internalType": "bool",
          "name": "_increment",
          "type": "bool"
        }
      ],
      "name": "getFeeBasisPoints",
      "outputs": [
        {
          "internalType": "uint256",
          "name": "",
          "type": "uint256"
        }
      ],
      "stateMutability": "view",
      "type": "function"
    },
    {
      "inputs": [
        {
          "internalType": "address",
          "name": "_account",
          "type": "address"
        },
        {
          "internalType": "address",
          "name": "_collateralToken",
          "type": "address"
        },
        {
          "internalType": "address",
          "name": "_indexToken",
          "type": "address"
        },
        {
          "internalType": "bool",
          "name": "_isLong",
          "type": "bool"
        },
        {
          "internalType": "uint256",
          "name": "_size",
          "type": "uint256"
        },
        {
          "internalType": "uint256",
          "name": "_entryFundingRate",
          "type": "uint256"
        }
      ],
      "name": "getFundingFee",
      "outputs": [
        {
          "internalType": "uint256",
          "name": "",
          "type": "uint256"
        }
      ],
      "stateMutability": "view",
      "type": "function"
    },
    {
      "inputs": [
        {
          "internalType": "address",
          "name": "_token",
          "type": "address"
        }
      ],
      "name": "getGlobalShortDelta",
      "outputs": [
        {
          "internalType": "bool",
          "name": "",
          "type": "bool"
        },
        {
          "internalType": "uint256",
          "name": "",
          "type": "uint256"
        }
      ],
      "stateMutability": "view",
      "type": "function"
    },
    {
      "inputs": [
        {
          "internalType": "address",
          "name": "_token",
          "type": "address"
        }
      ],
      "name": "getMaxPrice",
      "outputs": [
        {
          "internalType": "uint256",
          "name": "",
          "type": "uint256"
        }
      ],
      "stateMutability": "view",
      "type": "function"
    },
    {
      "inputs": [
        {
          "internalType": "address",
          "name": "_token",
          "type": "address"
        }
      ],
      "name": "getMinPrice",
      "outputs": [
        {
          "internalType": "uint256",
          "name": "",
          "type": "uint256"
        }
      ],
      "stateMutability": "view",
      "type": "function"
    },
    {
      "inputs": [
        {
          "internalType": "address",
          "name": "_indexToken",
          "type": "address"
        },
        {
          "internalType": "uint256",
          "name": "_size",
          "type": "uint256"
        },
        {
          "internalType": "uint256",
          "name": "_averagePrice",
          "type": "uint256"
        },
        {
          "internalType": "bool",
          "name": "_isLong",
          "type": "bool"
        },
        {
          "internalType": "uint256",
          "name": "_nextPrice",
          "type": "uint256"
        },
        {
          "internalType": "uint256",
          "name": "_sizeDelta",
          "type": "uint256"
        },
        {
          "internalType": "uint256",
          "name": "_lastIncreasedTime",
          "type": "uint256"
        }
      ],
      "name": "getNextAveragePrice",
      "outputs": [
        {
          "internalType": "uint256",
          "name": "",
          "type": "uint256"
        }
      ],
      "stateMutability": "view",
      "type": "function"
    },
    {
      "inputs": [
        {
          "internalType": "address",
          "name": "_token",
          "type": "address"
        }
      ],
      "name": "getNextFundingRate",
      "outputs": [
        {
          "internalType": "uint256",
          "name": "",
          "type": "uint256"
        }
      ],
      "stateMutability": "view",
      "type": "function"
    },
    {
      "inputs": [
        {
          "internalType": "address",
          "name": "_indexToken",
          "type": "address"
        },
        {
          "internalType": "uint256",
          "name": "_nextPrice",
          "type": "uint256"
        },
        {
          "internalType": "uint256",
          "name": "_sizeDelta",
          "type": "uint256"
        }
      ],
      "name": "getNextGlobalShortAveragePrice",
      "outputs": [
        {
          "internalType": "uint256",
          "name": "",
          "type": "uint256"
        }
      ],
      "stateMutability": "view",
      "type": "function"
    },
    {
      "inputs": [
        {
          "internalType": "address",
          "name": "_account",
          "type": "address"
        },
        {
          "internalType": "address",
          "name": "_collateralToken",
          "type": "address"
        },
        {
          "internalType": "address",
          "name": "_indexToken",
          "type": "address"
        },
        {
          "internalType": "bool",
          "name": "_isLong",
          "type": "bool"
        }
      ],
      "name": "getPosition",
      "outputs": [
        {
          "internalType": "uint256",
          "name": "",
          "type": "uint256"
        },
        {
          "internalType": "uint256",
          "name": "",
          "type": "uint256"
        },
        {
          "internalType": "uint256",
          "name": "",
          "type": "uint256"
        },
        {
          "internalType": "uint256",
          "name": "",
          "type": "uint256"
        },
        {
          "internalType": "uint256",
          "name": "",
          "type": "uint256"
        },
        {
          "internalType": "uint256",
          "name": "",
          "type": "uint256"
        },
        {
          "internalType": "bool",
          "name": "",
          "type": "bool"
        },
        {
          "internalType": "uint256",
          "name": "",
          "type": "uint256"
        }
      ],
      "stateMutability": "view",
      "type": "function"
    },
    {
      "inputs": [
        {
          "internalType": "address",
          "name": "_account",
          "type": "address"
        },
        {
          "internalType": "address",
          "name": "_collateralToken",
          "type": "address"
        },
        {
          "internalType": "address",
          "name": "_indexToken",
          "type": "address"
        },
        {
          "internalType": "bool",
          "name": "_isLong",
          "type": "bool"
        }
      ],
      "name": "getPositionDelta",
      "outputs": [
        {
          "internalType": "bool",
          "name": "",
          "type": "bool"
        },
        {
          "internalType": "uint256",
          "name": "",
          "type": "uint256"
        }
      ],
      "stateMutability": "view",
      "type": "function"
    },
    {
      "inputs": [
        {
          "internalType": "address",
          "name": "_account",
          "type": "address"
        },
        {
          "internalType": "address",
          "name": "_collateralToken",
          "type": "address"
        },
        {
          "internalType": "address",
          "name": "_indexToken",
          "type": "address"
        },
        {
          "internalType": "bool",
          "name": "_isLong",
          "type": "bool"
        },
        {
          "internalType": "uint256",
          "name": "_sizeDelta",
          "type": "uint256"
        }
      ],
      "name": "getPositionFee",
      "outputs": [
        {
          "internalType": "uint256",
          "name": "",
          "type": "uint256"
        }
      ],
      "stateMutability": "view",
      "type": "function"
    },
    {
      "inputs": [
        {
          "internalType": "address",
          "name": "_account",
          "type": "address"
        },
        {
          "internalType": "address",
          "name": "_collateralToken",
          "type": "address"
        },
        {
          "internalType": "address",
          "name": "_indexToken",
          "type": "address"
        },
        {
          "internalType": "bool",
          "name": "_isLong",
          "type": "bool"
        }
      ],
      "name": "getPositionKey",
      "outputs": [
        {
          "internalType": "bytes32",
          "name": "",
          "type": "bytes32"
        }
      ],
      "stateMutability": "pure",
      "type": "function"
    },
    {
      "inputs": [
        {
          "internalType": "address",
          "name": "_account",
          "type": "address"
        },
        {
          "internalType": "address",
          "name": "_collateralToken",
          "type": "address"
        },
        {
          "internalType": "address",
          "name": "_indexToken",
          "type": "address"
        },
        {
          "internalType": "bool",
          "name": "_isLong",
          "type": "bool"
        }
      ],
      "name": "getPositionLeverage",
      "outputs": [
        {
          "internalType": "uint256",
          "name": "",
          "type": "uint256"
        }
      ],
      "stateMutability": "view",
      "type": "function"
    },
    {
      "inputs": [
        {
          "internalType": "address",
          "name": "_token",
          "type": "address"
        },
        {
          "internalType": "uint256",
          "name": "_usdgAmount",
          "type": "uint256"
        }
      ],
      "name": "getRedemptionAmount",
      "outputs": [
        {
          "internalType": "uint256",
          "name": "",
          "type": "uint256"
        }
      ],
      "stateMutability": "view",
      "type": "function"
    },
    {
      "inputs": [
        {
          "internalType": "address",
          "name": "_token",
          "type": "address"
        }
      ],
      "name": "getRedemptionCollateral",
      "outputs": [
        {
          "internalType": "uint256",
          "name": "",
          "type": "uint256"
        }
      ],
      "stateMutability": "view",
      "type": "function"
    },
    {
      "inputs": [
        {
          "internalType": "address",
          "name": "_token",
          "type": "address"
        }
      ],
      "name": "getRedemptionCollateralUsd",
      "outputs": [
        {
          "internalType": "uint256",
          "name": "",
          "type": "uint256"
        }
      ],
      "stateMutability": "view",
      "type": "function"
    },
    {
      "inputs": [
        {
          "internalType": "address",
          "name": "_token",
          "type": "address"
        }
      ],
      "name": "getTargetUsdgAmount",
      "outputs": [
        {
          "internalType": "uint256",
          "name": "",
          "type": "uint256"
        }
      ],
      "stateMutability": "view",
      "type": "function"
    },
    {
      "inputs": [
        {
          "internalType": "address",
          "name": "_token",
          "type": "address"
        }
      ],
      "name": "getUtilisation",
      "outputs": [
        {
          "internalType": "uint256",
          "name": "",
          "type": "uint256"
        }
      ],
      "stateMutability": "view",
      "type": "function"
    },
    {
      "inputs": [
        {
          "internalType": "address",
          "name": "",
          "type": "address"
        }
      ],
      "name": "globalShortAveragePrices",
      "outputs": [
        {
          "internalType": "uint256",
          "name": "",
          "type": "uint256"
        }
      ],
      "stateMutability": "view",
      "type": "function"
    },
    {
      "inputs": [
        {
          "internalType": "address",
          "name": "",
          "type": "address"
        }
      ],
      "name": "globalShortSizes",
      "outputs": [
        {
          "internalType": "uint256",
          "name": "",
          "type": "uint256"
        }
      ],
      "stateMutability": "view",
      "type": "function"
    },
    {
      "inputs": [],
      "name": "gov",
      "outputs": [
        {
          "internalType": "address",
          "name": "",
          "type": "address"
        }
      ],
      "stateMutability": "view",
      "type": "function"
    },
    {
      "inputs": [
        {
          "internalType": "address",
          "name": "",
          "type": "address"
        }
      ],
      "name": "guaranteedUsd",
      "outputs": [
        {
          "internalType": "uint256",
          "name": "",
          "type": "uint256"
        }
      ],
      "stateMutability": "view",
      "type": "function"
    },
    {
      "inputs": [],
      "name": "hasDynamicFees",
      "outputs": [
        {
          "internalType": "bool",
          "name": "",
          "type": "bool"
        }
      ],
      "stateMutability": "view",
      "type": "function"
    },
    {
      "inputs": [],
      "name": "inManagerMode",
      "outputs": [
        {
          "internalType": "bool",
          "name": "",
          "type": "bool"
        }
      ],
      "stateMutability": "view",
      "type": "function"
    },
    {
      "inputs": [],
      "name": "inPrivateLiquidationMode",
      "outputs": [
        {
          "internalType": "bool",
          "name": "",
          "type": "bool"
        }
      ],
      "stateMutability": "view",
      "type": "function"
    },
    {
      "inputs": [],
      "name": "includeAmmPrice",
      "outputs": [
        {
          "internalType": "bool",
          "name": "",
          "type": "bool"
        }
      ],
      "stateMutability": "view",
      "type": "function"
    },
    {
      "inputs": [
        {
          "internalType": "address",
          "name": "_account",
          "type": "address"
        },
        {
          "internalType": "address",
          "name": "_collateralToken",
          "type": "address"
        },
        {
          "internalType": "address",
          "name": "_indexToken",
          "type": "address"
        },
        {
          "internalType": "uint256",
          "name": "_sizeDelta",
          "type": "uint256"
        },
        {
          "internalType": "bool",
          "name": "_isLong",
          "type": "bool"
        }
      ],
      "name": "increasePosition",
      "outputs": [],
      "stateMutability": "nonpayable",
      "type": "function"
    },
    {
      "inputs": [
        {
          "internalType": "address",
          "name": "_router",
          "type": "address"
        },
        {
          "internalType": "address",
          "name": "_usdg",
          "type": "address"
        },
        {
          "internalType": "address",
          "name": "_priceFeed",
          "type": "address"
        },
        {
          "internalType": "uint256",
          "name": "_liquidationFeeUsd",
          "type": "uint256"
        },
        {
          "internalType": "uint256",
          "name": "_fundingRateFactor",
          "type": "uint256"
        },
        {
          "internalType": "uint256",
          "name": "_stableFundingRateFactor",
          "type": "uint256"
        }
      ],
      "name": "initialize",
      "outputs": [],
      "stateMutability": "nonpayable",
      "type": "function"
    },
    {
      "inputs": [],
      "name": "isInitialized",
      "outputs": [
        {
          "internalType": "bool",
          "name": "",
          "type": "bool"
        }
      ],
      "stateMutability": "view",
      "type": "function"
    },
    {
      "inputs": [],
      "name": "isLeverageEnabled",
      "outputs": [
        {
          "internalType": "bool",
          "name": "",
          "type": "bool"
        }
      ],
      "stateMutability": "view",
      "type": "function"
    },
    {
      "inputs": [
        {
          "internalType": "address",
          "name": "",
          "type": "address"
        }
      ],
      "name": "isLiquidator",
      "outputs": [
        {
          "internalType": "bool",
          "name": "",
          "type": "bool"
        }
      ],
      "stateMutability": "view",
      "type": "function"
    },
    {
      "inputs": [
        {
          "internalType": "address",
          "name": "",
          "type": "address"
        }
      ],
      "name": "isManager",
      "outputs": [
        {
          "internalType": "bool",
          "name": "",
          "type": "bool"
        }
      ],
      "stateMutability": "view",
      "type": "function"
    },
    {
      "inputs": [],
      "name": "isSwapEnabled",
      "outputs": [
        {
          "internalType": "bool",
          "name": "",
          "type": "bool"
        }
      ],
      "stateMutability": "view",
      "type": "function"
    },
    {
      "inputs": [
        {
          "internalType": "address",
          "name": "",
          "type": "address"
        }
      ],
      "name": "lastFundingTimes",
      "outputs": [
        {
          "internalType": "uint256",
          "name": "",
          "type": "uint256"
        }
      ],
      "stateMutability": "view",
      "type": "function"
    },
    {
      "inputs": [
        {
          "internalType": "address",
          "name": "_account",
          "type": "address"
        },
        {
          "internalType": "address",
          "name": "_collateralToken",
          "type": "address"
        },
        {
          "internalType": "address",
          "name": "_indexToken",
          "type": "address"
        },
        {
          "internalType": "bool",
          "name": "_isLong",
          "type": "bool"
        },
        {
          "internalType": "address",
          "name": "_feeReceiver",
          "type": "address"
        }
      ],
      "name": "liquidatePosition",
      "outputs": [],
      "stateMutability": "nonpayable",
      "type": "function"
    },
    {
      "inputs": [],
      "name": "liquidationFeeUsd",
      "outputs": [
        {
          "internalType": "uint256",
          "name": "",
          "type": "uint256"
        }
      ],
      "stateMutability": "view",
      "type": "function"
    },
    {
      "inputs": [],
      "name": "marginFeeBasisPoints",
      "outputs": [
        {
          "internalType": "uint256",
          "name": "",
          "type": "uint256"
        }
      ],
      "stateMutability": "view",
      "type": "function"
    },
    {
      "inputs": [],
      "name": "maxGasPrice",
      "outputs": [
        {
          "internalType": "uint256",
          "name": "",
          "type": "uint256"
        }
      ],
      "stateMutability": "view",
      "type": "function"
    },
    {
      "inputs": [
        {
          "internalType": "address",
          "name": "",
          "type": "address"
        }
      ],
      "name": "maxGlobalShortSizes",
      "outputs": [
        {
          "internalType": "uint256",
          "name": "",
          "type": "uint256"
        }
      ],
      "stateMutability": "view",
      "type": "function"
    },
    {
      "inputs": [],
      "name": "maxLeverage",
      "outputs": [
        {
          "internalType": "uint256",
          "name": "",
          "type": "uint256"
        }
      ],
      "stateMutability": "view",
      "type": "function"
    },
    {
      "inputs": [
        {
          "internalType": "address",
          "name": "",
          "type": "address"
        }
      ],
      "name": "maxUsdgAmounts",
      "outputs": [
        {
          "internalType": "uint256",
          "name": "",
          "type": "uint256"
        }
      ],
      "stateMutability": "view",
      "type": "function"
    },
    {
      "inputs": [
        {
          "internalType": "address",
          "name": "",
          "type": "address"
        }
      ],
      "name": "minProfitBasisPoints",
      "outputs": [
        {
          "internalType": "uint256",
          "name": "",
          "type": "uint256"
        }
      ],
      "stateMutability": "view",
      "type": "function"
    },
    {
      "inputs": [],
      "name": "minProfitTime",
      "outputs": [
        {
          "internalType": "uint256",
          "name": "",
          "type": "uint256"
        }
      ],
      "stateMutability": "view",
      "type": "function"
    },
    {
      "inputs": [],
      "name": "mintBurnFeeBasisPoints",
      "outputs": [
        {
          "internalType": "uint256",
          "name": "",
          "type": "uint256"
        }
      ],
      "stateMutability": "view",
      "type": "function"
    },
    {
      "inputs": [
        {
          "internalType": "address",
          "name": "",
          "type": "address"
        }
      ],
      "name": "poolAmounts",
      "outputs": [
        {
          "internalType": "uint256",
          "name": "",
          "type": "uint256"
        }
      ],
      "stateMutability": "view",
      "type": "function"
    },
    {
      "inputs": [
        {
          "internalType": "bytes32",
          "name": "",
          "type": "bytes32"
        }
      ],
      "name": "positions",
      "outputs": [
        {
          "internalType": "uint256",
          "name": "size",
          "type": "uint256"
        },
        {
          "internalType": "uint256",
          "name": "collateral",
          "type": "uint256"
        },
        {
          "internalType": "uint256",
          "name": "averagePrice",
          "type": "uint256"
        },
        {
          "internalType": "uint256",
          "name": "entryFundingRate",
          "type": "uint256"
        },
        {
          "internalType": "uint256",
          "name": "reserveAmount",
          "type": "uint256"
        },
        {
          "internalType": "int256",
          "name": "realisedPnl",
          "type": "int256"
        },
        {
          "internalType": "uint256",
          "name": "lastIncreasedTime",
          "type": "uint256"
        }
      ],
      "stateMutability": "view",
      "type": "function"
    },
    {
      "inputs": [],
      "name": "priceFeed",
      "outputs": [
        {
          "internalType": "address",
          "name": "",
          "type": "address"
        }
      ],
      "stateMutability": "view",
      "type": "function"
    },
    {
      "inputs": [
        {
          "internalType": "address",
          "name": "_router",
          "type": "address"
        }
      ],
      "name": "removeRouter",
      "outputs": [],
      "stateMutability": "nonpayable",
      "type": "function"
    },
    {
      "inputs": [
        {
          "internalType": "address",
          "name": "",
          "type": "address"
        }
      ],
      "name": "reservedAmounts",
      "outputs": [
        {
          "internalType": "uint256",
          "name": "",
          "type": "uint256"
        }
      ],
      "stateMutability": "view",
      "type": "function"
    },
    {
      "inputs": [],
      "name": "router",
      "outputs": [
        {
          "internalType": "address",
          "name": "",
          "type": "address"
        }
      ],
      "stateMutability": "view",
      "type": "function"
    },
    {
      "inputs": [
        {
          "internalType": "address",
          "name": "_token",
          "type": "address"
        },
        {
          "internalType": "address",
          "name": "_receiver",
          "type": "address"
        }
      ],
      "name": "sellUSDG",
      "outputs": [
        {
          "internalType": "uint256",
          "name": "",
          "type": "uint256"
        }
      ],
      "stateMutability": "nonpayable",
      "type": "function"
    },
    {
      "inputs": [
        {
          "internalType": "address",
          "name": "_token",
          "type": "address"
        },
        {
          "internalType": "uint256",
          "name": "_amount",
          "type": "uint256"
        }
      ],
      "name": "setBufferAmount",
      "outputs": [],
      "stateMutability": "nonpayable",
      "type": "function"
    },
    {
      "inputs": [
        {
          "internalType": "uint256",
          "name": "_errorCode",
          "type": "uint256"
        },
        {
          "internalType": "string",
          "name": "_error",
          "type": "string"
        }
      ],
      "name": "setError",
      "outputs": [],
      "stateMutability": "nonpayable",
      "type": "function"
    },
    {
      "inputs": [
        {
          "internalType": "address",
          "name": "_errorController",
          "type": "address"
        }
      ],
      "name": "setErrorController",
      "outputs": [],
      "stateMutability": "nonpayable",
      "type": "function"
    },
    {
      "inputs": [
        {
          "internalType": "uint256",
          "name": "_taxBasisPoints",
          "type": "uint256"
        },
        {
          "internalType": "uint256",
          "name": "_stableTaxBasisPoints",
          "type": "uint256"
        },
        {
          "internalType": "uint256",
          "name": "_mintBurnFeeBasisPoints",
          "type": "uint256"
        },
        {
          "internalType": "uint256",
          "name": "_swapFeeBasisPoints",
          "type": "uint256"
        },
        {
          "internalType": "uint256",
          "name": "_stableSwapFeeBasisPoints",
          "type": "uint256"
        },
        {
          "internalType": "uint256",
          "name": "_marginFeeBasisPoints",
          "type": "uint256"
        },
        {
          "internalType": "uint256",
          "name": "_liquidationFeeUsd",
          "type": "uint256"
        },
        {
          "internalType": "uint256",
          "name": "_minProfitTime",
          "type": "uint256"
        },
        {
          "internalType": "bool",
          "name": "_hasDynamicFees",
          "type": "bool"
        }
      ],
      "name": "setFees",
      "outputs": [],
      "stateMutability": "nonpayable",
      "type": "function"
    },
    {
      "inputs": [
        {
          "internalType": "uint256",
          "name": "_fundingInterval",
          "type": "uint256"
        },
        {
          "internalType": "uint256",
          "name": "_fundingRateFactor",
          "type": "uint256"
        },
        {
          "internalType": "uint256",
          "name": "_stableFundingRateFactor",
          "type": "uint256"
        }
      ],
      "name": "setFundingRate",
      "outputs": [],
      "stateMutability": "nonpayable",
      "type": "function"
    },
    {
      "inputs": [
        {
          "internalType": "address",
          "name": "_gov",
          "type": "address"
        }
      ],
      "name": "setGov",
      "outputs": [],
      "stateMutability": "nonpayable",
      "type": "function"
    },
    {
      "inputs": [
        {
          "internalType": "bool",
          "name": "_inManagerMode",
          "type": "bool"
        }
      ],
      "name": "setInManagerMode",
      "outputs": [],
      "stateMutability": "nonpayable",
      "type": "function"
    },
    {
      "inputs": [
        {
          "internalType": "bool",
          "name": "_inPrivateLiquidationMode",
          "type": "bool"
        }
      ],
      "name": "setInPrivateLiquidationMode",
      "outputs": [],
      "stateMutability": "nonpayable",
      "type": "function"
    },
    {
      "inputs": [
        {
          "internalType": "bool",
          "name": "_isLeverageEnabled",
          "type": "bool"
        }
      ],
      "name": "setIsLeverageEnabled",
      "outputs": [],
      "stateMutability": "nonpayable",
      "type": "function"
    },
    {
      "inputs": [
        {
          "internalType": "bool",
          "name": "_isSwapEnabled",
          "type": "bool"
        }
      ],
      "name": "setIsSwapEnabled",
      "outputs": [],
      "stateMutability": "nonpayable",
      "type": "function"
    },
    {
      "inputs": [
        {
          "internalType": "address",
          "name": "_liquidator",
          "type": "address"
        },
        {
          "internalType": "bool",
          "name": "_isActive",
          "type": "bool"
        }
      ],
      "name": "setLiquidator",
      "outputs": [],
      "stateMutability": "nonpayable",
      "type": "function"
    },
    {
      "inputs": [
        {
          "internalType": "address",
          "name": "_manager",
          "type": "address"
        },
        {
          "internalType": "bool",
          "name": "_isManager",
          "type": "bool"
        }
      ],
      "name": "setManager",
      "outputs": [],
      "stateMutability": "nonpayable",
      "type": "function"
    },
    {
      "inputs": [
        {
          "internalType": "uint256",
          "name": "_maxGasPrice",
          "type": "uint256"
        }
      ],
      "name": "setMaxGasPrice",
      "outputs": [],
      "stateMutability": "nonpayable",
      "type": "function"
    },
    {
      "inputs": [
        {
          "internalType": "address",
          "name": "_token",
          "type": "address"
        },
        {
          "internalType": "uint256",
          "name": "_amount",
          "type": "uint256"
        }
      ],
      "name": "setMaxGlobalShortSize",
      "outputs": [],
      "stateMutability": "nonpayable",
      "type": "function"
    },
    {
      "inputs": [
        {
          "internalType": "uint256",
          "name": "_maxLeverage",
          "type": "uint256"
        }
      ],
      "name": "setMaxLeverage",
      "outputs": [],
      "stateMutability": "nonpayable",
      "type": "function"
    },
    {
      "inputs": [
        {
          "internalType": "address",
          "name": "_priceFeed",
          "type": "address"
        }
      ],
      "name": "setPriceFeed",
      "outputs": [],
      "stateMutability": "nonpayable",
      "type": "function"
    },
    {
      "inputs": [
        {
          "internalType": "address",
          "name": "_token",
          "type": "address"
        },
        {
          "internalType": "uint256",
          "name": "_tokenDecimals",
          "type": "uint256"
        },
        {
          "internalType": "uint256",
          "name": "_tokenWeight",
          "type": "uint256"
        },
        {
          "internalType": "uint256",
          "name": "_minProfitBps",
          "type": "uint256"
        },
        {
          "internalType": "uint256",
          "name": "_maxUsdgAmount",
          "type": "uint256"
        },
        {
          "internalType": "bool",
          "name": "_isStable",
          "type": "bool"
        },
        {
          "internalType": "bool",
          "name": "_isShortable",
          "type": "bool"
        }
      ],
      "name": "setTokenConfig",
      "outputs": [],
      "stateMutability": "nonpayable",
      "type": "function"
    },
    {
      "inputs": [
        {
          "internalType": "address",
          "name": "_token",
          "type": "address"
        },
        {
          "internalType": "uint256",
          "name": "_amount",
          "type": "uint256"
        }
      ],
      "name": "setUsdgAmount",
      "outputs": [],
      "stateMutability": "nonpayable",
      "type": "function"
    },
    {
      "inputs": [
        {
          "internalType": "contract IVaultUtils",
          "name": "_vaultUtils",
          "type": "address"
        }
      ],
      "name": "setVaultUtils",
      "outputs": [],
      "stateMutability": "nonpayable",
      "type": "function"
    },
    {
      "inputs": [
        {
          "internalType": "address",
          "name": "",
          "type": "address"
        }
      ],
      "name": "shortableTokens",
      "outputs": [
        {
          "internalType": "bool",
          "name": "",
          "type": "bool"
        }
      ],
      "stateMutability": "view",
      "type": "function"
    },
    {
      "inputs": [],
      "name": "stableFundingRateFactor",
      "outputs": [
        {
          "internalType": "uint256",
          "name": "",
          "type": "uint256"
        }
      ],
      "stateMutability": "view",
      "type": "function"
    },
    {
      "inputs": [],
      "name": "stableSwapFeeBasisPoints",
      "outputs": [
        {
          "internalType": "uint256",
          "name": "",
          "type": "uint256"
        }
      ],
      "stateMutability": "view",
      "type": "function"
    },
    {
      "inputs": [],
      "name": "stableTaxBasisPoints",
      "outputs": [
        {
          "internalType": "uint256",
          "name": "",
          "type": "uint256"
        }
      ],
      "stateMutability": "view",
      "type": "function"
    },
    {
      "inputs": [
        {
          "internalType": "address",
          "name": "",
          "type": "address"
        }
      ],
      "name": "stableTokens",
      "outputs": [
        {
          "internalType": "bool",
          "name": "",
          "type": "bool"
        }
      ],
      "stateMutability": "view",
      "type": "function"
    },
    {
      "inputs": [
        {
          "internalType": "address",
          "name": "_tokenIn",
          "type": "address"
        },
        {
          "internalType": "address",
          "name": "_tokenOut",
          "type": "address"
        },
        {
          "internalType": "address",
          "name": "_receiver",
          "type": "address"
        }
      ],
      "name": "swap",
      "outputs": [
        {
          "internalType": "uint256",
          "name": "",
          "type": "uint256"
        }
      ],
      "stateMutability": "nonpayable",
      "type": "function"
    },
    {
      "inputs": [],
      "name": "swapFeeBasisPoints",
      "outputs": [
        {
          "internalType": "uint256",
          "name": "",
          "type": "uint256"
        }
      ],
      "stateMutability": "view",
      "type": "function"
    },
    {
      "inputs": [],
      "name": "taxBasisPoints",
      "outputs": [
        {
          "internalType": "uint256",
          "name": "",
          "type": "uint256"
        }
      ],
      "stateMutability": "view",
      "type": "function"
    },
    {
      "inputs": [
        {
          "internalType": "address",
          "name": "",
          "type": "address"
        }
      ],
      "name": "tokenBalances",
      "outputs": [
        {
          "internalType": "uint256",
          "name": "",
          "type": "uint256"
        }
      ],
      "stateMutability": "view",
      "type": "function"
    },
    {
      "inputs": [
        {
          "internalType": "address",
          "name": "",
          "type": "address"
        }
      ],
      "name": "tokenDecimals",
      "outputs": [
        {
          "internalType": "uint256",
          "name": "",
          "type": "uint256"
        }
      ],
      "stateMutability": "view",
      "type": "function"
    },
    {
      "inputs": [
        {
          "internalType": "address",
          "name": "_token",
          "type": "address"
        },
        {
          "internalType": "uint256",
          "name": "_tokenAmount",
          "type": "uint256"
        }
      ],
      "name": "tokenToUsdMin",
      "outputs": [
        {
          "internalType": "uint256",
          "name": "",
          "type": "uint256"
        }
      ],
      "stateMutability": "view",
      "type": "function"
    },
    {
      "inputs": [
        {
          "internalType": "address",
          "name": "",
          "type": "address"
        }
      ],
      "name": "tokenWeights",
      "outputs": [
        {
          "internalType": "uint256",
          "name": "",
          "type": "uint256"
        }
      ],
      "stateMutability": "view",
      "type": "function"
    },
    {
      "inputs": [],
      "name": "totalTokenWeights",
      "outputs": [
        {
          "internalType": "uint256",
          "name": "",
          "type": "uint256"
        }
      ],
      "stateMutability": "view",
      "type": "function"
    },
    {
      "inputs": [
        {
          "internalType": "address",
          "name": "_collateralToken",
          "type": "address"
        },
        {
          "internalType": "address",
          "name": "_indexToken",
          "type": "address"
        }
      ],
      "name": "updateCumulativeFundingRate",
      "outputs": [],
      "stateMutability": "nonpayable",
      "type": "function"
    },
    {
      "inputs": [
        {
          "internalType": "address",
          "name": "_newVault",
          "type": "address"
        },
        {
          "internalType": "address",
          "name": "_token",
          "type": "address"
        },
        {
          "internalType": "uint256",
          "name": "_amount",
          "type": "uint256"
        }
      ],
      "name": "upgradeVault",
      "outputs": [],
      "stateMutability": "nonpayable",
      "type": "function"
    },
    {
      "inputs": [
        {
          "internalType": "address",
          "name": "_token",
          "type": "address"
        },
        {
          "internalType": "uint256",
          "name": "_usdAmount",
          "type": "uint256"
        },
        {
          "internalType": "uint256",
          "name": "_price",
          "type": "uint256"
        }
      ],
      "name": "usdToToken",
      "outputs": [
        {
          "internalType": "uint256",
          "name": "",
          "type": "uint256"
        }
      ],
      "stateMutability": "view",
      "type": "function"
    },
    {
      "inputs": [
        {
          "internalType": "address",
          "name": "_token",
          "type": "address"
        },
        {
          "internalType": "uint256",
          "name": "_usdAmount",
          "type": "uint256"
        }
      ],
      "name": "usdToTokenMax",
      "outputs": [
        {
          "internalType": "uint256",
          "name": "",
          "type": "uint256"
        }
      ],
      "stateMutability": "view",
      "type": "function"
    },
    {
      "inputs": [
        {
          "internalType": "address",
          "name": "_token",
          "type": "address"
        },
        {
          "internalType": "uint256",
          "name": "_usdAmount",
          "type": "uint256"
        }
      ],
      "name": "usdToTokenMin",
      "outputs": [
        {
          "internalType": "uint256",
          "name": "",
          "type": "uint256"
        }
      ],
      "stateMutability": "view",
      "type": "function"
    },
    {
      "inputs": [],
      "name": "usdg",
      "outputs": [
        {
          "internalType": "address",
          "name": "",
          "type": "address"
        }
      ],
      "stateMutability": "view",
      "type": "function"
    },
    {
      "inputs": [
        {
          "internalType": "address",
          "name": "",
          "type": "address"
        }
      ],
      "name": "usdgAmounts",
      "outputs": [
        {
          "internalType": "uint256",
          "name": "",
          "type": "uint256"
        }
      ],
      "stateMutability": "view",
      "type": "function"
    },
    {
      "inputs": [],
      "name": "useSwapPricing",
      "outputs": [
        {
          "internalType": "bool",
          "name": "",
          "type": "bool"
        }
      ],
      "stateMutability": "view",
      "type": "function"
    },
    {
      "inputs": [
        {
          "internalType": "address",
          "name": "_account",
          "type": "address"
        },
        {
          "internalType": "address",
          "name": "_collateralToken",
          "type": "address"
        },
        {
          "internalType": "address",
          "name": "_indexToken",
          "type": "address"
        },
        {
          "internalType": "bool",
          "name": "_isLong",
          "type": "bool"
        },
        {
          "internalType": "bool",
          "name": "_raise",
          "type": "bool"
        }
      ],
      "name": "validateLiquidation",
      "outputs": [
        {
          "internalType": "uint256",
          "name": "",
          "type": "uint256"
        },
        {
          "internalType": "uint256",
          "name": "",
          "type": "uint256"
        }
      ],
      "stateMutability": "view",
      "type": "function"
    },
    {
      "inputs": [],
      "name": "vaultUtils",
      "outputs": [
        {
          "internalType": "contract IVaultUtils",
          "name": "",
          "type": "address"
        }
      ],
      "stateMutability": "view",
      "type": "function"
    },
    {
      "inputs": [],
      "name": "whitelistedTokenCount",
      "outputs": [
        {
          "internalType": "uint256",
          "name": "",
          "type": "uint256"
        }
      ],
      "stateMutability": "view",
      "type": "function"
    },
    {
      "inputs": [
        {
          "internalType": "address",
          "name": "",
          "type": "address"
        }
      ],
      "name": "whitelistedTokens",
      "outputs": [
        {
          "internalType": "bool",
          "name": "",
          "type": "bool"
        }
      ],
      "stateMutability": "view",
      "type": "function"
    },
    {
      "inputs": [
        {
          "internalType": "address",
          "name": "_token",
          "type": "address"
        },
        {
          "internalType": "address",
          "name": "_receiver",
          "type": "address"
        }
      ],
      "name": "withdrawFees",
      "outputs": [
        {
          "internalType": "uint256",
          "name": "",
          "type": "uint256"
        }
      ],
      "stateMutability": "nonpayable",
      "type": "function"
    }
  ],
  "bytecode": "0x60806040526001805462ff00001961ff00199091166101001716620100001781556207a1206008556032600a9081556014600b55601e600c819055600d556004600e55600f556011805460ff199081169091556170806012556016805463ffffff0019921690921716905534801561007657600080fd5b506001600055600680546001600160a01b03191633179055616033806200009e6000396000f3fe608060405234801561001057600080fd5b50600436106105995760003560e01c80638585f4d2116102e9578063c7e074c31161018f578063c7e074c314611225578063cea0c32814611265578063cfad57a21461129b578063d2fa635e146112c1578063d3127e63146112de578063d54d5a9f146112fb578063d66b000d1461135a578063d8f897c314611386578063d9ac4225146113ac578063da76524c146113b4578063daf9c210146113fe578063db3555fb14611424578063db97495f1461144a578063dc8f5fac14611496578063de2ea9481461149e578063df73a267146114e6578063e124e6d2146114ee578063e468baf014611514578063e67f59a714611531578063efa10a6e14611557578063f07456ce14611583578063f07bbf77146115a9578063f2555278146115c8578063f3ae2415146115f6578063f5b91b7b1461161c578063f887ea4014611624578063fa12dbc01461162c578063fbfded6d1461165e578063fce28c101461168c578063fdaf6ac314611694578063fed1a606146116d857610599565b80638585f4d214610e90578063870d917c14610ebc57806388b1fbdf14610ec45780638a27d46814610eea5780638a39735a1461061a5780638a78daa814610f135780638ee573ac14610f395780638f7b840414610f5f5780639060b1ca14610f855780639331621214610f8d57806395082d2514610fc55780639698d25a14610fcd5780639849e41214610ff35780639899cd0214610ffb5780639d7432ca146110275780639f392eb314611059578063a22f239214611061578063a42ab3d214611069578063a5e90eee14611095578063a93acac2146110c3578063ab08c1c6146110e9578063ab2f3ad4146110f1578063ad1e4f8d14611117578063ae3302c21461113d578063b06423f314611145578063b136ca491461114d578063b1cc53ab14611173578063b364accb146111ab578063c3c7b9e9146111d1578063c4f718bf146111f7578063c65bc7b1146111ff57610599565b80634453a3741161044e5780634453a3741461097057806345a6f3701461099e57806348d91abf146109f757806348f35cbb14610a3b5780634a3f088d14610a435780634a993ee914610ac45780634befe2ca14610aea5780634d47b30414610af2578063514ea4bf14610afa57806351723e8214610b4f578063523fba7f14610b8d578063529a356f14610bb357806352f55eed14610bd95780635c07eaab14610bff5780635f7bc11914610c3f5780636092219914610c6557806362287a3214610c935780636274980314610c9b5780636abbe0c814610cc15780636ae0b15414610cc95780636be6026b14610cef57806371089f4d14610cf7578063711e619014610d1d578063724e78da14610d4b578063728cdbca14610d71578063741bef1a14610db95780637a210a2b14610dc15780637c2eb9f714610dc9578063817bb85714610de857806381a612d614610e1657806382a0849014610e3c57610599565b806304fef1db1461059e57806307c58752146105d65780630842b076146105de5780630a48d5a9146105e657806310eb56c214610612578063126082cf1461061a57806312d43a5114610622578063134ca63b14610646578063174d26941461064e578063181e210e146106565780631aa4ace5146106725780631ce9cb8f1461069857806324b0c04d146106be57806324ca984e146106df57806328e67be51461070557806329ff96151461077a5780632c668ec1146107a05780632d4b0576146107cc57806330455ede1461080a578063318bc6891461082957806334c1557d1461061a578063351a964d14610831578063392e53cd146108395780633a05dcc1146108415780633c5a6e35146108675780633de39c11146108b55780633e72a262146108bd57806340eb3802146108c5578063421528731461091657806342b60b031461094a575b600080fd5b6105c4600480360360208110156105b457600080fd5b50356001600160a01b031661176a565b60408051918252519081900360200190f35b6105c46117cd565b6105c46117de565b6105c4600480360360408110156105fc57600080fd5b506001600160a01b0381351690602001356117e4565b6105c4611837565b6105c461183d565b61062a611843565b604080516001600160a01b039092168252519081900360200190f35b6105c4611852565b6105c4611858565b61065e61185e565b604080519115158252519081900360200190f35b6105c46004803603602081101561068857600080fd5b50356001600160a01b031661186e565b6105c4600480360360208110156106ae57600080fd5b50356001600160a01b0316611880565b6106dd600480360360208110156106d457600080fd5b50351515611892565b005b6106dd600480360360208110156106f557600080fd5b50356001600160a01b03166118b6565b6106dd6004803603604081101561071b57600080fd5b81359190810190604081016020820135600160201b81111561073c57600080fd5b82018360208201111561074e57600080fd5b803590602001918460018302840111600160201b8311171561076f57600080fd5b5090925090506118e7565b6105c46004803603602081101561079057600080fd5b50356001600160a01b0316611965565b6105c4600480360360408110156107b657600080fd5b506001600160a01b038135169060200135611979565b6105c4600480360360808110156107e257600080fd5b506001600160a01b0381358116916020810135821691604082013516906060013515156119be565b6106dd6004803603602081101561082057600080fd5b50351515611a14565b6105c4611a36565b61065e611a3c565b61065e611a4a565b6105c46004803603602081101561085757600080fd5b50356001600160a01b0316611a53565b6106dd600480360360e081101561087d57600080fd5b506001600160a01b038135169060208101359060408101359060608101359060808101359060a081013515159060c001351515611b13565b6105c4611c4b565b61065e611c51565b6106dd60048036036101208110156108dc57600080fd5b5080359060208101359060408101359060608101359060808101359060a08101359060c08101359060e08101359061010001351515611c60565b6105c46004803603606081101561092c57600080fd5b508035906001600160a01b0360208201358116916040013516611d1a565b61065e6004803603602081101561096057600080fd5b50356001600160a01b0316611dbc565b6106dd6004803603604081101561098657600080fd5b506001600160a01b0381351690602001351515611dd1565b6109dc600480360360808110156109b457600080fd5b506001600160a01b038135811691602081013582169160408201351690606001351515611e04565b60408051921515835260208301919091528051918290030190f35b6106dd600480360360a0811015610a0d57600080fd5b506001600160a01b038135811691602081013582169160408201351690606081013590608001351515611ea2565b61062a6122cf565b610a8160048036036080811015610a5957600080fd5b506001600160a01b0381358116916020810135821691604082013516906060013515156122de565b604080519889526020890197909752878701959095526060870193909352608086019190915260a0850152151560c084015260e083015251908190036101000190f35b6105c460048036036020811015610ada57600080fd5b50356001600160a01b03166123d4565b6105c46123e6565b6105c46123ec565b610b1760048036036020811015610b1057600080fd5b50356123f2565b604080519788526020880196909652868601949094526060860192909252608085015260a084015260c0830152519081900360e00190f35b6105c460048036036080811015610b6557600080fd5b506001600160a01b03813581169160208101358216916040820135169060600135151561242f565b6105c460048036036020811015610ba357600080fd5b50356001600160a01b03166124d5565b61065e60048036036020811015610bc957600080fd5b50356001600160a01b03166124e7565b6105c460048036036020811015610bef57600080fd5b50356001600160a01b03166124fc565b6109dc600480360360a0811015610c1557600080fd5b506001600160a01b038135169060208101359060408101359060608101351515906080013561250e565b6106dd60048036036020811015610c5557600080fd5b50356001600160a01b0316612606565b61065e60048036036040811015610c7b57600080fd5b506001600160a01b03813581169160200135166126e9565b6105c4612709565b6105c460048036036020811015610cb157600080fd5b50356001600160a01b031661270f565b61062a612721565b6106dd60048036036020811015610cdf57600080fd5b50356001600160a01b0316612737565b6105c4612765565b6106dd60048036036020811015610d0d57600080fd5b50356001600160a01b031661276c565b6105c460048036036040811015610d3357600080fd5b506001600160a01b03813581169160200135166127a0565b6106dd60048036036020811015610d6157600080fd5b50356001600160a01b0316612a34565b6106dd600480360360c0811015610d8757600080fd5b506001600160a01b03813581169160208101358216916040820135169060608101359060808101359060a00135612a5e565b61062a612ad5565b6105c4612ae4565b6106dd60048036036020811015610ddf57600080fd5b50351515612aea565b6105c460048036036040811015610dfe57600080fd5b506001600160a01b0381358116916020013516612b0e565b6105c460048036036020811015610e2c57600080fd5b50356001600160a01b0316612eee565b6105c4600480360360e0811015610e5257600080fd5b506001600160a01b0381358116916020810135821691604082013581169160608101359160808201359160a081013515159160c09091013516612f99565b6106dd60048036036040811015610ea657600080fd5b506001600160a01b038135169060200135613017565b6105c461303b565b6105c460048036036020811015610eda57600080fd5b50356001600160a01b0316613040565b6106dd60048036036060811015610f0057600080fd5b5080359060208101359060400135613052565b6105c460048036036020811015610f2957600080fd5b50356001600160a01b0316613098565b6105c460048036036020811015610f4f57600080fd5b50356001600160a01b03166130aa565b6106dd60048036036020811015610f7557600080fd5b50356001600160a01b03166130bc565b61065e6130e6565b6105c460048036036060811015610fa357600080fd5b506001600160a01b0381358116916020810135821691604090910135166130f5565b6105c46133dd565b6105c460048036036020811015610fe357600080fd5b50356001600160a01b03166133ed565b6105c46133ff565b6105c46004803603604081101561101157600080fd5b506001600160a01b038135169060200135613405565b6105c46004803603606081101561103d57600080fd5b506001600160a01b038135169060208101359060400135613427565b61065e6134d0565b6105c46134d9565b6105c46004803603604081101561107f57600080fd5b506001600160a01b0381351690602001356134df565b6106dd600480360360408110156110ab57600080fd5b506001600160a01b03813516906020013515156134fc565b6105c4600480360360208110156110d957600080fd5b50356001600160a01b031661352f565b61065e61362d565b6105c46004803603602081101561110757600080fd5b50356001600160a01b0316613636565b6105c46004803603602081101561112d57600080fd5b50356001600160a01b0316613648565b6105c461365a565b61065e613660565b6105c46004803603602081101561116357600080fd5b50356001600160a01b031661366e565b6105c46004803603606081101561118957600080fd5b506001600160a01b03813581169160208101359091169060400135151561370f565b6109dc600480360360208110156111c157600080fd5b50356001600160a01b03166137aa565b6105c4600480360360208110156111e757600080fd5b50356001600160a01b0316613842565b6105c4613854565b6105c46004803603602081101561121557600080fd5b50356001600160a01b031661385a565b6105c4600480360360a081101561123b57600080fd5b506001600160a01b038135169060208101359060408101359060608101359060800135151561386c565b6106dd6004803603606081101561127b57600080fd5b506001600160a01b03813581169160208101359091169060400135613916565b6106dd600480360360208110156112b157600080fd5b50356001600160a01b0316613937565b6106dd600480360360208110156112d757600080fd5b5035613961565b6106dd600480360360208110156112f457600080fd5b503561396e565b611341600480360360a081101561131157600080fd5b506001600160a01b038135811691602081013582169160408201351690606081013515159060800135151561398a565b6040805192835260208301919091528051918290030190f35b6106dd6004803603604081101561137057600080fd5b506001600160a01b038135169060200135613a41565b6105c46004803603602081101561139c57600080fd5b50356001600160a01b0316613a9a565b6105c4613aac565b6105c4600480360360c08110156113ca57600080fd5b506001600160a01b038135811691602081013582169160408201351690606081013515159060808101359060a00135613ab2565b61065e6004803603602081101561141457600080fd5b50356001600160a01b0316613b66565b61065e6004803603602081101561143a57600080fd5b50356001600160a01b0316613b7b565b6105c4600480360360e081101561146057600080fd5b506001600160a01b0381351690602081013590604081013590606081013515159060808101359060a08101359060c00135613b8f565b6105c4613c20565b6106dd600480360360a08110156114b457600080fd5b506001600160a01b03813581169160208101358216916040820135811691606081013515159160809091013516613c26565b6105c4613fec565b6105c46004803603602081101561150457600080fd5b50356001600160a01b0316613ff2565b61062a6004803603602081101561152a57600080fd5b503561406a565b6106dd6004803603602081101561154757600080fd5b50356001600160a01b0316614091565b6106dd6004803603604081101561156d57600080fd5b506001600160a01b038135169060200135614164565b6105c46004803603602081101561159957600080fd5b50356001600160a01b0316614188565b6106dd600480360360208110156115bf57600080fd5b5035151561419a565b6105c4600480360360408110156115de57600080fd5b506001600160a01b03813581169160200135166141c0565b61065e6004803603602081101561160c57600080fd5b50356001600160a01b0316614216565b61062a61422b565b61062a61423a565b6105c46004803603606081101561164257600080fd5b506001600160a01b038135169060208101359060400135614249565b6106dd6004803603604081101561167457600080fd5b506001600160a01b0381358116916020013516614283565b6105c461445c565b6105c4600480360360a08110156116aa57600080fd5b506001600160a01b038135811691602081013582169160408201351690606081013515159060800135614462565b6116f5600480360360208110156116ee57600080fd5b50356144d8565b6040805160208082528351818301528351919283929083019185019080838360005b8381101561172f578181015183820152602001611717565b50505050905090810190601f16801561175c5780820380516001836020036101000a031916815260200191505b509250505060405180910390f35b6001600160a01b038116600090815260256020526040812054806117925760009150506117c8565b6001600160a01b0383166000908152602660205260409020546117c49082906117be90620f4240614573565b906145cc565b9150505b919050565b6904ee2d6d415b85acef8160201b81565b601b5490565b6000816117f357506000611831565b60006117fe84612eee565b6001600160a01b0385166000908152601d602052604090205490915061182c600a82900a6117be8685614573565b925050505b92915050565b600b5481565b61271081565b6006546001600160a01b031681565b60145481565b60095481565b6016546301000000900460ff1681565b60236020526000908152604090205481565b602c6020526000908152604090205481565b61189a61460b565b60168054911515620100000262ff000019909216919091179055565b3360009081526018602090815260408083206001600160a01b0394909416835292905220805460ff19166001179055565b6002546001600160a01b03163314611946576040805162461bcd60e51b815260206004820152601e60248201527f5661756c743a20696e76616c6964206572726f72436f6e74726f6c6c65720000604482015290519081900360640190fd5b600083815260306020526040902061195f908383615e22565b50505050565b6000611831826119748461366e565b6117e4565b60008061198584613ff2565b905060006119a3826117be8668327cb2734119d3b7a9601e1b614573565b60055490915061182c9082906001600160a01b031687611d1a565b604080516001600160601b0319606096871b811660208084019190915295871b811660348301529390951b9092166048850152151560f81b605c8401528051603d818503018152605d9093019052815191012090565b611a1c61460b565b600180549115156101000261ff0019909216919091179055565b600f5481565b600154610100900460ff1681565b60015460ff1681565b600080600560009054906101000a90046001600160a01b03166001600160a01b03166318160ddd6040518163ffffffff1660e01b815260040160206040518083038186803b158015611aa457600080fd5b505afa158015611ab8573d6000803e3d6000fd5b505050506040513d6020811015611ace57600080fd5b5051905080611ae15760009150506117c8565b6001600160a01b038316600090815260226020526040902054601554611b0b906117be8385614573565b949350505050565b611b1b61460b565b6001600160a01b0387166000908152601c602052604090205460ff16611b9857600754611b49906001614626565b600755601b80546001810182556000919091527f3ad8aa4f87544323a9d1e5dd902f40c356527a7955687113db5f9a85ad579dc10180546001600160a01b0319166001600160a01b0389161790555b6015546001600160a01b038816600090815260226020526040902054611bbf90829061467e565b6001600160a01b0389166000908152601c602090815260408083208054600160ff1991821617909155601d83528184208c9055602283528184208b9055601e83528184208a905560248352818420899055601f83528184208054821689151517905591805290912080549091168415151790559050611c3e8187614626565b6015555050505050505050565b60175481565b60015462010000900460ff1681565b611c6861460b565b611c786101f48a111560036146c0565b611c886101f489111560046146c0565b611c986101f488111560056146c0565b611ca86101f487111560066146c0565b611cb86101f486111560076146c0565b611cc86101f485111560086146c0565b611ce36904ee2d6d415b85acef8160201b84111560096146c0565b600a98909855600b96909655600c94909455600d92909255600e55600f556009556010556011805460ff1916911515919091179055565b60055460009081906001600160a01b03858116911614611d52576001600160a01b0384166000908152601d6020526040902054611d55565b60125b6005549091506000906001600160a01b03858116911614611d8e576001600160a01b0384166000908152601d6020526040902054611d91565b60125b9050611db082600a0a6117be83600a0a8961457390919063ffffffff16565b925050505b9392505050565b601f6020526000908152604090205460ff1681565b611dd961460b565b6001600160a01b03919091166000908152601960205260409020805460ff1916911515919091179055565b6000806000611e15878787876119be565b9050611e1f615ea0565b506000818152602b6020908152604091829020825160e081018452815480825260018301549382019390935260028201549381018490526003820154606082015260048201546080820152600582015460a082015260069091015460c082018190529092611e93928992909190899061250e565b93509350505094509492505050565b60026000541415611ee8576040805162461bcd60e51b815260206004820152601f6024820152600080516020615ef3833981519152604482015290519081900360640190fd5b6002600055600154611f049062010000900460ff16601c6146c0565b611f0c61476c565b611f1585614788565b611f208484836147eb565b60015460408051634eae147d60e11b81526001600160a01b038881166004830152878116602483015286811660448301526064820186905284151560848301529151630100000090930490911691639d5c28fa9160a480820192600092909190829003018186803b158015611f9457600080fd5b505afa158015611fa8573d6000803e3d6000fd5b50505050611fb68484614283565b6000611fc4868686856119be565b6000818152602b6020526040812091925083611fe857611fe386612eee565b611ff1565b611ff186613ff2565b825490915061200257600282018190555b8154158015906120125750600085115b1561203857612032868360000154846002015487858a8860060154613b8f565b60028301555b6000612051898989888a88600001548960030154614900565b9050600061205e896149bc565b9050600061206c8a836117e4565b600186015490915061207e9082614626565b6001860181905561209390841115601d6146c0565b60018501546120a2908461467e565b60018601556120b28a8a8961370f565b600386015584546120c39089614626565b8086554260068701556120d9901515601e6146c0565b6120eb85600001548660010154614a69565b6120f98b8b8b8a600161398a565b505060006121078b8a6134df565b60048701549091506121199082614626565b60048701556121288b82614a8d565b871561216d576121418b61213c8b87614626565b614b2d565b61214b8b83614bac565b6121558b84614c2b565b6121688b6121638d87613405565b614d43565b6121d9565b6001600160a01b038a166000908152602d60205260409020546121aa576001600160a01b038a166000908152602e602052604090208590556121cf565b6121b58a868b613427565b6001600160a01b038b166000908152602e60205260409020555b6121d98a8a614e16565b604080518881526001600160a01b03808f166020830152808e16828401528c1660608201526080810184905260a081018b905289151560c082015260e08101879052610100810186905290517f2fe68525253654c21998f35787a8d0f361905ef647c854092430ab65f2f15022918190036101200190a1855460018701546002880154600389015460048a015460058b0154604080518e81526020810197909752868101959095526060860193909352608085019190915260a084015260c083015260e0820187905251600080516020615f13833981519152918190036101000190a15050600160005550505050505050505050565b6002546001600160a01b031681565b60008060008060008060008060006122f88d8d8d8d6119be565b9050612302615ea0565b602b60008381526020019081526020016000206040518060e001604052908160008201548152602001600182015481526020016002820154815260200160038201548152602001600482015481526020016005820154815260200160068201548152505090506000808260a0015113612382578160a00151600003612388565b8160a001515b9050816000015182602001518360400151846060015185608001518560008860a0015112158860c001519a509a509a509a509a509a509a509a5050505094995094995094999196509450565b60276020526000908152604090205481565b6101f481565b600c5481565b602b602052600090815260409020805460018201546002830154600384015460048501546005860154600690960154949593949293919290919087565b60008061243e868686866119be565b9050612448615ea0565b506000818152602b6020908152604091829020825160e0810184528154815260018201549281018390526002820154938101939093526003810154606084015260048101546080840152600581015460a08401526006015460c08301526124b290151560256146c0565b602081015181516124ca91906117be90612710614573565b979650505050505050565b60216020526000908152604090205481565b60196020526000908152604090205460ff1681565b60256020526000908152604090205481565b60008061251f6000861160266146c0565b6000846125345761252f88613ff2565b61253d565b61253d88612eee565b9050600081871161255757612552828861467e565b612561565b612561878361467e565b90506000612573886117be8b85614573565b905060008715612586575087831161258b565b508288115b60006125a26010548961462690919063ffffffff16565b42116125c6576001600160a01b038c166000908152601e60205260409020546125c9565b60005b90508180156125ec57506125dd8b82614573565b6125e984612710614573565b11155b156125f657600092505b509a909950975050505050505050565b6002600054141561264c576040805162461bcd60e51b815260206004820152601f6024820152600080516020615ef3833981519152604482015290519081900360640190fd5b600260009081556001600160a01b0382168152601c60205260409020546126779060ff16600e6146c0565b6000612682826149bc565b905061269260008211600f6146c0565b61269c8282614c2b565b604080516001600160a01b03841681526020810183905281517fa5a389190ebf6170a133bda5c769b77f4d6715b8aa172ec0ddf8473d0b4944bd929181900390910190a150506001600055565b601860209081526000928352604080842090915290825290205460ff1681565b60075481565b602e6020526000908152604090205481565b600154630100000090046001600160a01b031681565b3360009081526018602090815260408083206001600160a01b0394909416835292905220805460ff19169055565b620f424081565b61277461460b565b600180546001600160a01b039092166301000000026301000000600160b81b0319909216919091179055565b6000600260005414156127e8576040805162461bcd60e51b815260206004820152601f6024820152600080516020615ef3833981519152604482015290519081900360640190fd5b60026000556127f5614ece565b6001600160a01b0383166000908152601c602052604090205461281c9060ff1660136146c0565b6016805461ff001916610100179055600554600090612843906001600160a01b03166149bc565b90506128536000821160146146c0565b61285d8485614283565b60006128698583611979565b90506128796000821160156146c0565b6128838583614efd565b61288d8582614d43565b60055460408051632770a7eb60e21b81523060048201526024810185905290516001600160a01b0390921691639dc29fac9160448082019260009290919082900301818387803b1580156128e057600080fd5b505af11580156128f4573d6000803e3d6000fd5b505060055461290e92506001600160a01b03169050614fbb565b6001546040805163eb0835bf60e01b81526001600160a01b038881166004830152602482018690529151600093630100000090049092169163eb0835bf91604480820192602092909190829003018186803b15801561296c57600080fd5b505afa158015612980573d6000803e3d6000fd5b505050506040513d602081101561299657600080fd5b5051905060006129a7878484615056565b90506129b76000821160166146c0565b6129c287828861511e565b604080516001600160a01b03808916825289166020820152808201869052606081018390526080810184905290517fd732b7828fa6cee72c285eac756fc66a7477e3dc22e22e7c432f1c265d40b4839181900360a00190a16016805461ff001916905560016000559695505050505050565b612a3c61460b565b600480546001600160a01b0319166001600160a01b0392909216919091179055565b612a6661460b565b60018054612a7a9160ff90911615906146c0565b6001805460ff191681179055600380546001600160a01b03199081166001600160a01b039889161790915560058054821696881696909617909555600480549095169390951692909217909255600991909155601355601455565b6004546001600160a01b031681565b600a5481565b612af261460b565b60018054911515620100000262ff000019909216919091179055565b600060026000541415612b56576040805162461bcd60e51b815260206004820152601f6024820152600080516020615ef3833981519152604482015290519081900360640190fd5b6002600055612b63614ece565b6001600160a01b0383166000908152601c6020526040902054612b8a9060ff1660106146c0565b6016805461ff0019166101001790556000612ba4846149bc565b9050612bb46000821160116146c0565b60408051828152602081018290526017818301527617dd1c985b9cd9995c925b881d1bdad95b905b5bdd5b9d604a1b60608201529051600080516020615f538339815191529181900360800190a1612c0c8485614283565b6000612c1785612eee565b604080518281526020810182905260058183015264707269636560d81b60608201529051919250600080516020615f53833981519152919081900360800190a16000612c7368327cb2734119d3b7a9601e1b6117be8585614573565b600554909150612c8f90829088906001600160a01b0316611d1a565b9050612c9f6000821160126146c0565b6040805182815260208101829052600a81830152691d5cd919d05b5bdd5b9d60b21b60608201529051600080516020615f538339815191529181900360800190a16001546040805163256f6ee360e11b81526001600160a01b0389811660048301526024820185905291516000936301000000900490921691634adeddc691604480820192602092909190829003018186803b158015612d3e57600080fd5b505afa158015612d52573d6000803e3d6000fd5b505050506040513d6020811015612d6857600080fd5b505190506000612d79888684615056565b90506000612d9768327cb2734119d3b7a9601e1b6117be8488614573565b600554909150612db39082908b906001600160a01b0316611d1a565b6040805182815260208101829052600a81830152691b5a5b9d105b5bdd5b9d60b21b60608201529051919250600080516020615f53833981519152919081900360800190a1612e0289826151c5565b612e0c8983614c2b565b600554604080516340c10f1960e01b81526001600160a01b038b8116600483015260248201859052915191909216916340c10f1991604480830192600092919082900301818387803b158015612e6157600080fd5b505af1158015612e75573d6000803e3d6000fd5b5050604080516001600160a01b03808d1682528d1660208201528082018a9052606081018590526080810187905290517fab4c77c74cd32c85f35416cf03e7ce9e2d4387f7b7f2c1f4bf53daaecf8ea72d93509081900360a0019150a16016805461ff0019169055600160005598975050505050505050565b60048054601654604080516317e1d38560e11b81526001600160a01b038681169582019590955260006024820181905260ff80851615156044840152610100909404909316151560648201529051919390921691632fc3a70a916084808301926020929190829003018186803b158015612f6757600080fd5b505afa158015612f7b573d6000803e3d6000fd5b505050506040513d6020811015612f9157600080fd5b505192915050565b600060026000541415612fe1576040805162461bcd60e51b815260206004820152601f6024820152600080516020615ef3833981519152604482015290519081900360640190fd5b6002600055612fee61476c565b612ff788614788565b61300688888888888888615283565b600160005598975050505050505050565b61301f61460b565b6001600160a01b03909116600090815260276020526040902055565b601281565b601e6020526000908152604090205481565b61305a61460b565b61306a610e10841015600a6146c0565b61307a612710831115600b6146c0565b61308a612710821115600c6146c0565b601292909255601355601455565b602d6020526000908152604090205481565b601d6020526000908152604090205481565b6130c461460b565b600280546001600160a01b0319166001600160a01b0392909216919091179055565b60165462010000900460ff1681565b60006002600054141561313d576040805162461bcd60e51b815260206004820152601f6024820152600080516020615ef3833981519152604482015290519081900360640190fd5b600260005560015461315890610100900460ff1660176146c0565b6001600160a01b0384166000908152601c602052604090205461317f9060ff1660186146c0565b6001600160a01b0383166000908152601c60205260409020546131a69060ff1660196146c0565b6131c6836001600160a01b0316856001600160a01b03161415601a6146c0565b6016805461ff0019166101001790556131df8480614283565b6131e98384614283565b60006131f4856149bc565b905061320460008211601b6146c0565b600061320f86612eee565b9050600061321c86613ff2565b9050600061322e826117be8686614573565b905061323b818989611d1a565b9050600061325968327cb2734119d3b7a9601e1b6117be8787614573565b6005549091506132759082908b906001600160a01b0316611d1a565b60015460408051636d099c0b60e11b81526001600160a01b038d811660048301528c8116602483015260448201859052915193945060009363010000009093049091169163da13381691606480820192602092909190829003018186803b1580156132df57600080fd5b505afa1580156132f3573d6000803e3d6000fd5b505050506040513d602081101561330957600080fd5b50519050600061331a8a8584615056565b90506133268b846151c5565b6133308a84614efd565b61333a8b88614c2b565b6133448a85614d43565b61334d8a615710565b6133588a828b61511e565b604080516001600160a01b03808c168252808e1660208301528c1681830152606081018990526080810186905260a0810183905260c0810184905290517f0874b2d545cb271cdbda4e093020c452328b24af12382ed62c4d00f5c26709db9181900360e00190a16016805461ff001916905560016000559a9950505050505050505050565b68327cb2734119d3b7a9601e1b81565b602f6020526000908152604090205481565b60125481565b60008161341457506000611831565b611db5838361342286613ff2565b614249565b6001600160a01b0383166000908152602d6020908152604080832054602e909252822054828582116134625761345d868361467e565b61346c565b61346c828761467e565b9050600061347e836117be8685614573565b9050868311600061348f8689614626565b90506000826134a7576134a28285614626565b6134b1565b6134b1828561467e565b90506134c1816117be8c85614573565b9b9a5050505050505050505050565b60115460ff1681565b600d5481565b6000816134ee57506000611831565b611db5838361342286612eee565b61350461460b565b6001600160a01b03919091166000908152601a60205260409020805460ff1916911515919091179055565b6012546001600160a01b0382166000908152602a60205260408120549091429161355891614626565b1115613566575060006117c8565b6012546001600160a01b0383166000908152602a60205260408120549091613593916117be90429061467e565b6001600160a01b038416600090815260256020526040902054909150806135bf576000925050506117c8565b6001600160a01b0384166000908152601f602052604081205460ff166135e7576013546135eb565b6014545b6001600160a01b0386166000908152602660205260409020549091506136249083906117be90869061361e908690614573565b90614573565b95945050505050565b60165460ff1681565b60226020526000908152604090205481565b60246020526000908152604090205481565b60085481565b601654610100900460ff1681565b6001600160a01b0381166000908152601f602052604081205460ff16156136ae57506001600160a01b0381166000908152602560205260409020546117c8565b6001600160a01b0382166000908152602860205260408120546136d2908490613405565b6001600160a01b0384166000908152602660209081526040808320546025909252909120549192506117c491613709908490614626565b9061467e565b6001546040805163b1cc53ab60e01b81526001600160a01b038681166004830152858116602483015284151560448301529151600093630100000090049092169163b1cc53ab91606480820192602092909190829003018186803b15801561377657600080fd5b505afa15801561378a573d6000803e3d6000fd5b505050506040513d60208110156137a057600080fd5b5051949350505050565b6001600160a01b0381166000908152602d60205260408120548190806137d757600080925092505061383d565b60006137e285613ff2565b6001600160a01b0386166000908152602e60205260408120549192508282116138145761380f838361467e565b61381e565b61381e828461467e565b90506000613830836117be8785614573565b9390921195509193505050505b915091565b60266020526000908152604090205481565b60135481565b60296020526000908152604090205481565b6001546040805163c7e074c360e01b81526001600160a01b03888116600483015260248201889052604482018790526064820186905284151560848301529151600093630100000090049092169163c7e074c39160a480820192602092909190829003018186803b1580156138e057600080fd5b505afa1580156138f4573d6000803e3d6000fd5b505050506040513d602081101561390a57600080fd5b50519695505050505050565b61391e61460b565b6139326001600160a01b0383168483615785565b505050565b61393f61460b565b600680546001600160a01b0319166001600160a01b0392909216919091179055565b61396961460b565b601755565b61397661460b565b613985612710821160026146c0565b600855565b6001546040805163d54d5a9f60e01b81526001600160a01b03888116600483015287811660248301528681166044830152851515606483015284151560848301528251600094859463010000009091049092169263d54d5a9f9260a4808301939192829003018186803b158015613a0057600080fd5b505afa158015613a14573d6000803e3d6000fd5b505050506040513d6040811015613a2a57600080fd5b508051602090910151909890975095505050505050565b613a4961460b565b6001600160a01b03821660009081526023602052604090205480821115613a8357613a7d83613a78848461467e565b6151c5565b50613a96565b61393283613a91838561467e565b614efd565b5050565b602a6020526000908152604090205481565b60105481565b6001546040805163369d949360e21b81526001600160a01b0389811660048301528881166024830152878116604483015286151560648301526084820186905260a482018590529151600093630100000090049092169163da76524c9160c480820192602092909190829003018186803b158015613b2f57600080fd5b505afa158015613b43573d6000803e3d6000fd5b505050506040513d6020811015613b5957600080fd5b5051979650505050505050565b601c6020526000908152604090205460ff1681565b602080526000908152604090205460ff1681565b6000806000613ba18a8a8a8a8861250e565b90925090506000613bb28a87614626565b905060008815613be15783613bd057613bcb828461467e565b613bda565b613bda8284614626565b9050613c02565b83613bf557613bf08284614626565b613bff565b613bff828461467e565b90505b613c10816117be8a85614573565b9c9b505050505050505050505050565b60155481565b60026000541415613c6c576040805162461bcd60e51b815260206004820152601f6024820152600080516020615ef3833981519152604482015290519081900360640190fd5b60026000556016546301000000900460ff1615613ca15733600090815260196020526040902054613ca19060ff1660226146c0565b6016805460ff19169055613cb58484614283565b6000613cc3868686866119be565b9050613ccd615ea0565b506000818152602b6020908152604091829020825160e08101845281548082526001830154938201939093526002820154938101939093526003810154606084015260048101546080840152600581015460a08401526006015460c0830152613d3990151560236146c0565b600080613d4a89898989600061398a565b91509150613d5d826000141560246146c0565b8160021415613d9257613d7a898989600087600001518b8f615283565b50506016805460ff1916600117905550613fe0915050565b6000613d9e8983613405565b6001600160a01b038a166000908152602c6020526040902054909150613dc49082614626565b6001600160a01b038a166000818152602c60209081526040918290209390935580519182529181018490528082018390529051600080516020615fde8339815191529181900360600190a1613e1d8985608001516157d7565b8615613e4c5760208401518451613e3e918b91613e399161467e565b614bac565b613e4c896121638b85613405565b600087613e6157613e5c89613ff2565b613e6a565b613e6a89612eee565b90507f2e1f85a64a2f22cf2f0c42584e7c919ed4abe8d53675cff0f62bf1e95a1c676f868c8c8c8c8a600001518b602001518c608001518d60a001518a604051808b81526020018a6001600160a01b03168152602001896001600160a01b03168152602001886001600160a01b0316815260200187151581526020018681526020018581526020018481526020018381526020018281526020019a505050505050505050505060405180910390a187158015613f295750846020015183105b15613f57576020850151600090613f40908561467e565b9050613f558b613f508d84613405565b614c2b565b505b87613f6a57613f6a89866000015161588c565b6000868152602b60205260408120818155600181018290556002810182905560038101829055600481018290556005810182905560060155600954613fb6908b90612163908290613405565b613fcc8a613fc68c600954613405565b8961511e565b50506016805460ff19166001179055505050505b50506001600055505050565b600e5481565b60048054601654604080516317e1d38560e11b81526001600160a01b03868116958201959095526001602482015260ff80841615156044830152610100909304909216151560648301525160009390921691632fc3a70a91608480820192602092909190829003018186803b158015612f6757600080fd5b601b818154811061407757fe5b6000918252602090912001546001600160a01b0316905081565b61409961460b565b6001600160a01b0381166000908152601c60205260409020546140c09060ff16600d6146c0565b6001600160a01b0381166000908152602260205260409020546015546140e59161467e565b6015556001600160a01b0381166000908152601c60209081526040808320805460ff19908116909155601d835281842084905560228352818420849055601e835281842084905560248352818420849055601f83528184208054821690559180529091208054909116905560075461415e90600161467e565b60075550565b61416c61460b565b6001600160a01b039091166000908152602f6020526040902055565b60286020526000908152604090205481565b6141a261460b565b6016805491151563010000000263ff00000019909216919091179055565b60006141ca61460b565b6001600160a01b0383166000908152602c6020526040902054806141f2576000915050611831565b6001600160a01b0384166000908152602c6020526040812055611db584828561511e565b601a6020526000908152604090205460ff1681565b6005546001600160a01b031681565b6003546001600160a01b031681565b60008261425857506000611db5565b6001600160a01b0384166000908152601d6020526040902054613624836117be86600a85900a614573565b6001546040805163fbfded6d60e01b81526001600160a01b03858116600483015284811660248301529151600093630100000090049092169163fbfded6d9160448082019260209290919082900301818787803b1580156142e357600080fd5b505af11580156142f7573d6000803e3d6000fd5b505050506040513d602081101561430d57600080fd5b505190508061431c5750613a96565b6001600160a01b0383166000908152602a60205260409020546143695760125461434a9061361e42826145cc565b6001600160a01b0384166000908152602a602052604090205550613a96565b6012546001600160a01b0384166000908152602a602052604090205442916143919190614626565b111561439d5750613a96565b60006143a88461352f565b6001600160a01b0385166000908152602960205260409020549091506143ce9082614626565b6001600160a01b0385166000908152602960205260409020556012546143f89061361e42826145cc565b6001600160a01b0385166000818152602a602090815260408083209490945560298152908390205483519283529082015281517fa146fc154e1913322e9817d49f0d5c37466c24326e15de10e739a948be815eab929181900390910190a150505050565b610e1081565b6001546040805163fdaf6ac360e01b81526001600160a01b038881166004830152878116602483015286811660448301528515156064830152608482018590529151600093630100000090049092169163fdaf6ac39160a480820192602092909190829003018186803b1580156138e057600080fd5b60306020908152600091825260409182902080548351601f60026000196101006001861615020190931692909204918201849004840281018401909452808452909183018282801561456b5780601f106145405761010080835404028352916020019161456b565b820191906000526020600020905b81548152906001019060200180831161454e57829003601f168201915b505050505081565b60008261458257506000611831565b8282028284828161458f57fe5b0414611db55760405162461bcd60e51b8152600401808060200182810382526021815260200180615f736021913960400191505060405180910390fd5b6000611db583836040518060400160405280601a815260200179536166654d6174683a206469766973696f6e206279207a65726f60301b8152506158f4565b600654614624906001600160a01b0316331460356146c0565b565b600082820183811015611db5576040805162461bcd60e51b815260206004820152601b60248201527a536166654d6174683a206164646974696f6e206f766572666c6f7760281b604482015290519081900360640190fd5b6000611db583836040518060400160405280601e81526020017f536166654d6174683a207375627472616374696f6e206f766572666c6f770000815250615996565b6000818152603060205260409020826139325760405162461bcd60e51b815260206004820190815282546002600019610100600184161502019091160460248301819052909182916044909101908490801561475d5780601f106147325761010080835404028352916020019161475d565b820191906000526020600020905b81548152906001019060200180831161474057829003601f168201915b50509250505060405180910390fd5b60175461477857614624565b6146246017543a111560376146c0565b336001600160a01b038216141561479e576147e8565b6003546001600160a01b03163314156147b6576147e8565b6001600160a01b03811660009081526018602090815260408083203384529091529020546147e89060ff1660296146c0565b50565b801561486457614810826001600160a01b0316846001600160a01b031614602a6146c0565b6001600160a01b0383166000908152601c60205260409020546148379060ff16602b6146c0565b6001600160a01b0383166000908152601f602052604090205461485f9060ff1615602c6146c0565b613932565b6001600160a01b0383166000908152601c602052604090205461488b9060ff16602d6146c0565b6001600160a01b0383166000908152601f60205260409020546148b29060ff16602e6146c0565b6001600160a01b0382166000908152601f60205260409020546148da9060ff1615602f6146c0565b6001600160a01b03821660009081526020805260409020546139329060ff1660306146c0565b6000806149108989898989614462565b905060006149228a8a8a8a8989613ab2565b905061492e8282614626565b9150600061493c8a84613405565b6001600160a01b038b166000908152602c60205260409020549091506149629082614626565b6001600160a01b038b166000818152602c60209081526040918290209390935580519182529181018590528082018390529051600080516020615fde8339815191529181900360600190a150909998505050505050505050565b6001600160a01b03811660008181526021602090815260408083205481516370a0823160e01b8152306004820152915193949093859391926370a08231926024808301939192829003018186803b158015614a1657600080fd5b505afa158015614a2a573d6000803e3d6000fd5b505050506040513d6020811015614a4057600080fd5b50516001600160a01b03851660009081526021602052604090208190559050611b0b818361467e565b81614a7f57614a7a811560276146c0565b613a96565b613a968183101560286146c0565b6001600160a01b038216600090815260266020526040902054614ab09082614626565b6001600160a01b038316600090815260266020818152604080842085905560258252909220549152614ae591111560346146c0565b604080516001600160a01b03841681526020810183905281517faa5649d82f5462be9d19b0f2b31a59b2259950a6076550bac9f3a1c07db9f66d929181900390910190a15050565b6001600160a01b038216600090815260286020526040902054614b509082614626565b6001600160a01b03831660008181526028602090815260409182902093909355805191825291810183905281517fd9d4761f75e0d0103b5cbeab941eeb443d7a56a35b5baf2a0787c03f03f4e474929181900390910190a15050565b6001600160a01b038216600090815260286020526040902054614bcf908261467e565b6001600160a01b03831660008181526028602090815260409182902093909355805191825291810183905281517f34e07158b9db50df5613e591c44ea2ebc82834eff4a4dc3a46e000e608261d68929181900390910190a15050565b6001600160a01b038216600090815260256020526040902054614c4e9082614626565b6001600160a01b03831660008181526025602090815260408083209490945583516370a0823160e01b8152306004820152935191936370a082319260248083019392829003018186803b158015614ca457600080fd5b505afa158015614cb8573d6000803e3d6000fd5b505050506040513d6020811015614cce57600080fd5b50516001600160a01b038416600090815260256020526040902054909150614cfa9082101560316146c0565b604080516001600160a01b03851681526020810184905281517f976177fbe09a15e5e43f848844963a42b41ef919ef17ff21a17a5421de8f4737929181900390910190a1505050565b604080518082018252601a81527915985d5b1d0e881c1bdbdb105b5bdd5b9d08195e18d95959195960321b6020808301919091526001600160a01b038516600090815260259091529190912054614d9b918390615996565b6001600160a01b03831660009081526025602090815260408083208490556026909152902054614dce91101560326146c0565b604080516001600160a01b03841681526020810183905281517f112726233fbeaeed0f5b1dba5cb0b2b81883dee49fb35ff99fd98ed9f6d31eb0929181900390910190a15050565b6001600160a01b0382166000908152602d6020526040902054614e399082614626565b6001600160a01b0383166000908152602d6020908152604080832093909355602f905220548015613932576001600160a01b0383166000908152602d6020526040902054811015613932576040805162461bcd60e51b815260206004820152601a60248201527915985d5b1d0e881b585e081cda1bdc9d1cc8195e18d95959195960321b604482015290519081900360640190fd5b60165462010000900460ff161561462457336000908152601a60205260409020546146249060ff1660366146c0565b6001600160a01b038216600090815260236020526040902054818111614f66576001600160a01b038316600081815260236020908152604080832092909255815192835282018390528051600080516020615f948339815191529281900390910190a150613a96565b614f70818361467e565b6001600160a01b0384166000818152602360209081526040918290209390935580519182529181018490528151600080516020615f94833981519152929181900390910190a1505050565b6000816001600160a01b03166370a08231306040518263ffffffff1660e01b815260040180826001600160a01b0316815260200191505060206040518083038186803b15801561500a57600080fd5b505afa15801561501e573d6000803e3d6000fd5b505050506040513d602081101561503457600080fd5b50516001600160a01b0390921660009081526021602052604090209190915550565b6000806150736127106117be61506c828761467e565b8790614573565b90506000615081858361467e565b6001600160a01b0387166000908152602c60205260409020549091506150a79082614626565b6001600160a01b0387166000908152602c60205260409020557f47cd9dda0e50ce30bcaaacd0488452b596221c07ac402a581cfae4d3933cac2b866150ec81846117e4565b604080516001600160a01b0390931683526020830191909152818101849052519081900360600190a150949350505050565b6151326001600160a01b0384168284615785565b604080516370a0823160e01b815230600482015290516001600160a01b038516916370a08231916024808301926020929190829003018186803b15801561517857600080fd5b505afa15801561518c573d6000803e3d6000fd5b505050506040513d60208110156151a257600080fd5b50516001600160a01b039093166000908152602160205260409020929092555050565b6001600160a01b0382166000908152602360205260409020546151e89082614626565b6001600160a01b038316600090815260236020908152604080832093909355602490522054801561523a576001600160a01b03831660009081526023602052604090205461523a9082101560336146c0565b604080516001600160a01b03851681526020810184905281517f64243679a443432e2293343b77d411ff6144370404618f00ca0d2025d9ca9882929181900390910190a1505050565b600154604080516381d11a2360e01b81526001600160a01b038a8116600483015289811660248301528881166044830152606482018890526084820187905285151560a483015284811660c4830152915160009363010000009004909216916381d11a239160e4808201928692909190829003018186803b15801561530757600080fd5b505afa15801561531b573d6000803e3d6000fd5b505050506153298787614283565b6000615337898989876119be565b6000818152602b60205260409020805491925090615358901515601f6146c0565b61536a868260000154101560206146c0565b61537c878260010154101560216146c0565b600181015481546004830154600091615399916117be908b614573565b60048401549091506153ab908261467e565b60048401556153ba8b826157d7565b506000806153cc8d8d8d8d8d8d6159f0565b85549193509150891461554c576153e48c8c8a61370f565b600385015583546153f5908a61467e565b80855560018501546154079190614a69565b6154158d8d8d8b600161398a565b50508715615442576154388c61213c86600101548661467e90919063ffffffff16565b6154428c8a614bac565b600088615457576154528c613ff2565b615460565b6154608c612eee565b9050600080516020615f33833981519152868f8f8f8f8f8f886154838c8c61467e565b60408051998a526001600160a01b0398891660208b015296881689880152949096166060880152608087019290925260a0860152151560c085015260e084019290925261010083019190915251908190036101200190a18454600186015460028701546003880154600489015460058a0154604080518d81526020810197909752868101959095526060860193909352608085019190915260a084015260c083015260e0820183905251600080516020615f13833981519152918190036101000190a1506156ae565b87156155665761555c8c84614b2d565b6155668c8a614bac565b60008861557b576155768c613ff2565b615584565b6155848c612eee565b9050600080516020615f33833981519152868f8f8f8f8f8f886155a78c8c61467e565b60408051998a526001600160a01b0398891660208b015296881689880152949096166060880152608087019290925260a0860152151560c085015260e084019290925261010083019190915251908190036101200190a18454600186015460028701546003880154600489015460058a0154604080518d81526020810197909752868101959095526060860193909352608085019190915260a084015260c0830152517f73af1d417d82c240fdb6d319b34ad884487c6bf2845d98980cc52ad9171cb4559181900360e00190a1506000858152602b602052604081208181556001810182905560028101829055600381018290556004810182905560058101829055600601555b876156bd576156bd8b8a61588c565b81156156fd5787156156d7576156d78c6121638e85613405565b60006156e38d83613405565b90506156f08d828a61511e565b95506124ca945050505050565b5060009c9b505050505050505050505050565b6001600160a01b03811660009081526027602090815260408083205460259092529091205410156147e8576040805162461bcd60e51b815260206004820152601a6024820152792b30bab63a1d103837b7b620b6b7bab73a101e10313ab33332b960311b604482015290519081900360640190fd5b604080516001600160a01b038416602482015260448082018490528251808303909101815260649091019091526020810180516001600160e01b031663a9059cbb60e01b179052613932908490615bea565b604080518082018252601b81527a5661756c743a20696e73756666696369656e74207265736572766560281b6020808301919091526001600160a01b038516600090815260269091529190912054615830918390615996565b6001600160a01b03831660008181526026602090815260409182902093909355805191825291810183905281517f533cb5ed32be6a90284e96b5747a1bfc2d38fdb5768a6b5f67ff7d62144ed67b929181900390910190a15050565b6001600160a01b0382166000908152602d6020526040902054808211156158cc57506001600160a01b0382166000908152602d6020526040812055613a96565b6158d6818361467e565b6001600160a01b0384166000908152602d6020526040902055505050565b600081836159805760405162461bcd60e51b81526004018080602001828103825283818151815260200191508051906020019080838360005b8381101561594557818101518382015260200161592d565b50505050905090810190601f1680156159725780820380516001836020036101000a031916815260200191505b509250505060405180910390fd5b50600083858161598c57fe5b0495945050505050565b600081848411156159e85760405162461bcd60e51b815260206004820181815283516024840152835190928392604490910191908501908083836000831561594557818101518382015260200161592d565b505050900390565b6000806000615a01898989876119be565b6000818152602b60205260408120805460038201549394509092615a2e918d918d918d918b918d91614900565b9050600080600080615a4f8d876000015488600201548d8a6006015461250e565b87549195508593509150615a67906117be8d84614573565b925050506000828015615a7a5750600082115b15615aaa5750600584018054820190558088615aaa576000615a9c8e84613405565b9050615aa88e82614d43565b505b82158015615ab85750600082115b15615afc576001850154615acc908361467e565b600186015588615af0576000615ae28e84613405565b9050615aee8e82614c2b565b505b60058501805483900390555b8a15615b2457615b0c818c614626565b6001860154909150615b1e908c61467e565b60018601555b84548a1415615b47576001850154615b3d908290614626565b6000600187015590505b8084811115615b6157615b5a828661467e565b9050615b95565b6001860154615b70908661467e565b60018701558915615b95576000615b878f87613405565b9050615b938f82614d43565b505b60408051888152851515602082015280820185905290517f3ff41bdde87755b687ae83d0221a232b6be51a803330ed9661c1b5d0105e0d8a9181900360600190a1909e909d509b505050505050505050505050565b6060615c3f826040518060400160405280602081526020017f5361666545524332303a206c6f772d6c6576656c2063616c6c206661696c6564815250856001600160a01b0316615c9b9092919063ffffffff16565b80519091501561393257808060200190516020811015615c5e57600080fd5b50516139325760405162461bcd60e51b815260040180806020018281038252602a815260200180615fb4602a913960400191505060405180910390fd5b6060611b0b848460008585615caf85615db6565b615d00576040805162461bcd60e51b815260206004820152601d60248201527f416464726573733a2063616c6c20746f206e6f6e2d636f6e7472616374000000604482015290519081900360640190fd5b60006060866001600160a01b031685876040518082805190602001908083835b60208310615d3f5780518252601f199092019160209182019101615d20565b6001836020036101000a03801982511681845116808217855250505050505090500191505060006040518083038185875af1925050503d8060008114615da1576040519150601f19603f3d011682016040523d82523d6000602084013e615da6565b606091505b50915091506124ca828286615dbc565b3b151590565b60608315615dcb575081611db5565b825115615ddb5782518084602001fd5b60405162461bcd60e51b815260206004820181815284516024840152845185939192839260440191908501908083836000831561594557818101518382015260200161592d565b828054600181600116156101000203166002900490600052602060002090601f016020900481019282601f10615e635782800160ff19823516178555615e90565b82800160010185558215615e90579182015b82811115615e90578235825591602001919060010190615e75565b50615e9c929150615edd565b5090565b6040518060e00160405280600081526020016000815260200160008152602001600081526020016000815260200160008152602001600081525090565b5b80821115615e9c5760008155600101615ede56fe5265656e7472616e637947756172643a207265656e7472616e742063616c6c0020853733b590dce729d9f4628682ebd9a34d2354e72679e66f43a008fc03b77393d75d64d1f84fc6f430a64fc578bdd4c1e090e90ea2d51773e626d19de56d302ccccc5fa46a4a55e969e7340ef613f539c149a9908c6d7fd2bf9e158d9d3958536166654d6174683a206d756c7469706c69636174696f6e206f766572666c6f77e1e812596aac93a06ecc4ca627014d18e30f5c33b825160cc9d5c0ba61e452275361666545524332303a204552433230206f7065726174696f6e20646964206e6f7420737563636565645d0c0019d3d45fadeb74eff9d2c9924d146d000ac6bcf3c28bf0ac3c9baa011aa2646970667358221220fba9b7d292027dd7ef535837ce6ef514dcc9224fc8b60e633318b394499dfef864736f6c634300060c0033",
  "linkReferences": {},
  "deployedLinkReferences": {}
}