{
  "_format": "hh-sol-artifact-1",
  "contractName": "Vault",
  "sourceName": "contracts/core/Vault.sol",
  "abi": [
    {
      "inputs": [],
      "stateMutability": "nonpayable",
      "type": "constructor"
    },
    {
      "anonymous": false,
      "inputs": [
        {
          "indexed": false,
          "internalType": "address",
          "name": "account",
          "type": "address"
        },
        {
          "indexed": false,
          "internalType": "address",
          "name": "token",
          "type": "address"
        },
        {
          "indexed": false,
          "internalType": "uint256",
          "name": "tokenAmount",
          "type": "uint256"
        },
        {
          "indexed": false,
          "internalType": "uint256",
          "name": "usdgAmount",
          "type": "uint256"
        },
        {
          "indexed": false,
          "internalType": "uint256",
          "name": "feeBasisPoints",
          "type": "uint256"
        }
      ],
      "name": "BuyUSDG",
      "type": "event"
    },
    {
      "anonymous": false,
      "inputs": [
        {
          "indexed": false,
          "internalType": "bytes32",
          "name": "key",
          "type": "bytes32"
        },
        {
          "indexed": false,
          "internalType": "uint256",
          "name": "size",
          "type": "uint256"
        },
        {
          "indexed": false,
          "internalType": "uint256",
          "name": "collateral",
          "type": "uint256"
        },
        {
          "indexed": false,
          "internalType": "uint256",
          "name": "averagePrice",
          "type": "uint256"
        },
        {
          "indexed": false,
          "internalType": "uint256",
          "name": "entryFundingRate",
          "type": "uint256"
        },
        {
          "indexed": false,
          "internalType": "uint256",
          "name": "reserveAmount",
          "type": "uint256"
        },
        {
          "indexed": false,
          "internalType": "int256",
          "name": "realisedPnl",
          "type": "int256"
        }
      ],
      "name": "ClosePosition",
      "type": "event"
    },
    {
      "anonymous": false,
      "inputs": [
        {
          "indexed": false,
          "internalType": "address",
          "name": "token",
          "type": "address"
        },
        {
          "indexed": false,
          "internalType": "uint256",
          "name": "feeUsd",
          "type": "uint256"
        },
        {
          "indexed": false,
          "internalType": "uint256",
          "name": "feeTokens",
          "type": "uint256"
        }
      ],
      "name": "CollectMarginFees",
      "type": "event"
    },
    {
      "anonymous": false,
      "inputs": [
        {
          "indexed": false,
          "internalType": "address",
          "name": "token",
          "type": "address"
        },
        {
          "indexed": false,
          "internalType": "uint256",
          "name": "feeUsd",
          "type": "uint256"
        },
        {
          "indexed": false,
          "internalType": "uint256",
          "name": "feeTokens",
          "type": "uint256"
        }
      ],
      "name": "CollectSwapFees",
      "type": "event"
    },
    {
      "anonymous": false,
      "inputs": [
        {
          "indexed": false,
          "internalType": "address",
          "name": "token",
          "type": "address"
        },
        {
          "indexed": false,
          "internalType": "uint256",
          "name": "amount",
          "type": "uint256"
        }
      ],
      "name": "DecreaseGuaranteedUsd",
      "type": "event"
    },
    {
      "anonymous": false,
      "inputs": [
        {
          "indexed": false,
          "internalType": "address",
          "name": "token",
          "type": "address"
        },
        {
          "indexed": false,
          "internalType": "uint256",
          "name": "amount",
          "type": "uint256"
        }
      ],
      "name": "DecreasePoolAmount",
      "type": "event"
    },
    {
      "anonymous": false,
      "inputs": [
        {
          "indexed": false,
          "internalType": "bytes32",
          "name": "key",
          "type": "bytes32"
        },
        {
          "indexed": false,
          "internalType": "address",
          "name": "account",
          "type": "address"
        },
        {
          "indexed": false,
          "internalType": "address",
          "name": "collateralToken",
          "type": "address"
        },
        {
          "indexed": false,
          "internalType": "address",
          "name": "indexToken",
          "type": "address"
        },
        {
          "indexed": false,
          "internalType": "uint256",
          "name": "collateralDelta",
          "type": "uint256"
        },
        {
          "indexed": false,
          "internalType": "uint256",
          "name": "sizeDelta",
          "type": "uint256"
        },
        {
          "indexed": false,
          "internalType": "bool",
          "name": "isLong",
          "type": "bool"
        },
        {
          "indexed": false,
          "internalType": "uint256",
          "name": "price",
          "type": "uint256"
        },
        {
          "indexed": false,
          "internalType": "uint256",
          "name": "fee",
          "type": "uint256"
        }
      ],
      "name": "DecreasePosition",
      "type": "event"
    },
    {
      "anonymous": false,
      "inputs": [
        {
          "indexed": false,
          "internalType": "address",
          "name": "token",
          "type": "address"
        },
        {
          "indexed": false,
          "internalType": "uint256",
          "name": "amount",
          "type": "uint256"
        }
      ],
      "name": "DecreaseReservedAmount",
      "type": "event"
    },
    {
      "anonymous": false,
      "inputs": [
        {
          "indexed": false,
          "internalType": "address",
          "name": "token",
          "type": "address"
        },
        {
          "indexed": false,
          "internalType": "uint256",
          "name": "amount",
          "type": "uint256"
        }
      ],
      "name": "DecreaseUsdgAmount",
      "type": "event"
    },
    {
      "anonymous": false,
      "inputs": [
        {
          "indexed": false,
          "internalType": "address",
          "name": "token",
          "type": "address"
        },
        {
          "indexed": false,
          "internalType": "uint256",
          "name": "amount",
          "type": "uint256"
        }
      ],
      "name": "DirectPoolDeposit",
      "type": "event"
    },
    {
      "anonymous": false,
      "inputs": [
        {
          "indexed": false,
          "internalType": "address",
          "name": "token",
          "type": "address"
        },
        {
          "indexed": false,
          "internalType": "uint256",
          "name": "amount",
          "type": "uint256"
        }
      ],
      "name": "IncreaseGuaranteedUsd",
      "type": "event"
    },
    {
      "anonymous": false,
      "inputs": [
        {
          "indexed": false,
          "internalType": "address",
          "name": "token",
          "type": "address"
        },
        {
          "indexed": false,
          "internalType": "uint256",
          "name": "amount",
          "type": "uint256"
        }
      ],
      "name": "IncreasePoolAmount",
      "type": "event"
    },
    {
      "anonymous": false,
      "inputs": [
        {
          "indexed": false,
          "internalType": "bytes32",
          "name": "key",
          "type": "bytes32"
        },
        {
          "indexed": false,
          "internalType": "address",
          "name": "account",
          "type": "address"
        },
        {
          "indexed": false,
          "internalType": "address",
          "name": "collateralToken",
          "type": "address"
        },
        {
          "indexed": false,
          "internalType": "address",
          "name": "indexToken",
          "type": "address"
        },
        {
          "indexed": false,
          "internalType": "uint256",
          "name": "collateralDelta",
          "type": "uint256"
        },
        {
          "indexed": false,
          "internalType": "uint256",
          "name": "sizeDelta",
          "type": "uint256"
        },
        {
          "indexed": false,
          "internalType": "bool",
          "name": "isLong",
          "type": "bool"
        },
        {
          "indexed": false,
          "internalType": "uint256",
          "name": "price",
          "type": "uint256"
        },
        {
          "indexed": false,
          "internalType": "uint256",
          "name": "fee",
          "type": "uint256"
        }
      ],
      "name": "IncreasePosition",
      "type": "event"
    },
    {
      "anonymous": false,
      "inputs": [
        {
          "indexed": false,
          "internalType": "address",
          "name": "token",
          "type": "address"
        },
        {
          "indexed": false,
          "internalType": "uint256",
          "name": "amount",
          "type": "uint256"
        }
      ],
      "name": "IncreaseReservedAmount",
      "type": "event"
    },
    {
      "anonymous": false,
      "inputs": [
        {
          "indexed": false,
          "internalType": "address",
          "name": "token",
          "type": "address"
        },
        {
          "indexed": false,
          "internalType": "uint256",
          "name": "amount",
          "type": "uint256"
        }
      ],
      "name": "IncreaseUsdgAmount",
      "type": "event"
    },
    {
      "anonymous": false,
      "inputs": [
        {
          "indexed": false,
          "internalType": "bytes32",
          "name": "key",
          "type": "bytes32"
        },
        {
          "indexed": false,
          "internalType": "address",
          "name": "account",
          "type": "address"
        },
        {
          "indexed": false,
          "internalType": "address",
          "name": "collateralToken",
          "type": "address"
        },
        {
          "indexed": false,
          "internalType": "address",
          "name": "indexToken",
          "type": "address"
        },
        {
          "indexed": false,
          "internalType": "bool",
          "name": "isLong",
          "type": "bool"
        },
        {
          "indexed": false,
          "internalType": "uint256",
          "name": "size",
          "type": "uint256"
        },
        {
          "indexed": false,
          "internalType": "uint256",
          "name": "collateral",
          "type": "uint256"
        },
        {
          "indexed": false,
          "internalType": "uint256",
          "name": "reserveAmount",
          "type": "uint256"
        },
        {
          "indexed": false,
          "internalType": "int256",
          "name": "realisedPnl",
          "type": "int256"
        },
        {
          "indexed": false,
          "internalType": "uint256",
          "name": "markPrice",
          "type": "uint256"
        }
      ],
      "name": "LiquidatePosition",
      "type": "event"
    },
    {
      "anonymous": false,
      "inputs": [
        {
          "indexed": false,
          "internalType": "address",
          "name": "account",
          "type": "address"
        },
        {
          "indexed": false,
          "internalType": "address",
          "name": "token",
          "type": "address"
        },
        {
          "indexed": false,
          "internalType": "uint256",
          "name": "usdgAmount",
          "type": "uint256"
        },
        {
          "indexed": false,
          "internalType": "uint256",
          "name": "tokenAmount",
          "type": "uint256"
        },
        {
          "indexed": false,
          "internalType": "uint256",
          "name": "feeBasisPoints",
          "type": "uint256"
        }
      ],
      "name": "SellUSDG",
      "type": "event"
    },
    {
      "anonymous": false,
      "inputs": [
        {
          "indexed": false,
          "internalType": "address",
          "name": "account",
          "type": "address"
        },
        {
          "indexed": false,
          "internalType": "address",
          "name": "tokenIn",
          "type": "address"
        },
        {
          "indexed": false,
          "internalType": "address",
          "name": "tokenOut",
          "type": "address"
        },
        {
          "indexed": false,
          "internalType": "uint256",
          "name": "amountIn",
          "type": "uint256"
        },
        {
          "indexed": false,
          "internalType": "uint256",
          "name": "amountOut",
          "type": "uint256"
        },
        {
          "indexed": false,
          "internalType": "uint256",
          "name": "amountOutAfterFees",
          "type": "uint256"
        },
        {
          "indexed": false,
          "internalType": "uint256",
          "name": "feeBasisPoints",
          "type": "uint256"
        }
      ],
      "name": "Swap",
      "type": "event"
    },
    {
      "anonymous": false,
      "inputs": [
        {
          "indexed": false,
          "internalType": "uint256",
          "name": "arg",
          "type": "uint256"
        },
        {
          "indexed": false,
          "internalType": "string",
          "name": "name",
          "type": "string"
        }
      ],
      "name": "Test",
      "type": "event"
    },
    {
      "anonymous": false,
      "inputs": [
        {
          "indexed": false,
          "internalType": "address",
          "name": "token",
          "type": "address"
        },
        {
          "indexed": false,
          "internalType": "uint256",
          "name": "fundingRate",
          "type": "uint256"
        }
      ],
      "name": "UpdateFundingRate",
      "type": "event"
    },
    {
      "anonymous": false,
      "inputs": [
        {
          "indexed": false,
          "internalType": "bytes32",
          "name": "key",
          "type": "bytes32"
        },
        {
          "indexed": false,
          "internalType": "bool",
          "name": "hasProfit",
          "type": "bool"
        },
        {
          "indexed": false,
          "internalType": "uint256",
          "name": "delta",
          "type": "uint256"
        }
      ],
      "name": "UpdatePnl",
      "type": "event"
    },
    {
      "anonymous": false,
      "inputs": [
        {
          "indexed": false,
          "internalType": "bytes32",
          "name": "key",
          "type": "bytes32"
        },
        {
          "indexed": false,
          "internalType": "uint256",
          "name": "size",
          "type": "uint256"
        },
        {
          "indexed": false,
          "internalType": "uint256",
          "name": "collateral",
          "type": "uint256"
        },
        {
          "indexed": false,
          "internalType": "uint256",
          "name": "averagePrice",
          "type": "uint256"
        },
        {
          "indexed": false,
          "internalType": "uint256",
          "name": "entryFundingRate",
          "type": "uint256"
        },
        {
          "indexed": false,
          "internalType": "uint256",
          "name": "reserveAmount",
          "type": "uint256"
        },
        {
          "indexed": false,
          "internalType": "int256",
          "name": "realisedPnl",
          "type": "int256"
        },
        {
          "indexed": false,
          "internalType": "uint256",
          "name": "markPrice",
          "type": "uint256"
        }
      ],
      "name": "UpdatePosition",
      "type": "event"
    },
    {
      "inputs": [],
      "name": "BASIS_POINTS_DIVISOR",
      "outputs": [
        {
          "internalType": "uint256",
          "name": "",
          "type": "uint256"
        }
      ],
      "stateMutability": "view",
      "type": "function"
    },
    {
      "inputs": [],
      "name": "FUNDING_RATE_PRECISION",
      "outputs": [
        {
          "internalType": "uint256",
          "name": "",
          "type": "uint256"
        }
      ],
      "stateMutability": "view",
      "type": "function"
    },
    {
      "inputs": [],
      "name": "MAX_FEE_BASIS_POINTS",
      "outputs": [
        {
          "internalType": "uint256",
          "name": "",
          "type": "uint256"
        }
      ],
      "stateMutability": "view",
      "type": "function"
    },
    {
      "inputs": [],
      "name": "MAX_FUNDING_RATE_FACTOR",
      "outputs": [
        {
          "internalType": "uint256",
          "name": "",
          "type": "uint256"
        }
      ],
      "stateMutability": "view",
      "type": "function"
    },
    {
      "inputs": [],
      "name": "MAX_LIQUIDATION_FEE_USD",
      "outputs": [
        {
          "internalType": "uint256",
          "name": "",
          "type": "uint256"
        }
      ],
      "stateMutability": "view",
      "type": "function"
    },
    {
      "inputs": [],
      "name": "MIN_FUNDING_RATE_INTERVAL",
      "outputs": [
        {
          "internalType": "uint256",
          "name": "",
          "type": "uint256"
        }
      ],
      "stateMutability": "view",
      "type": "function"
    },
    {
      "inputs": [],
      "name": "MIN_LEVERAGE",
      "outputs": [
        {
          "internalType": "uint256",
          "name": "",
          "type": "uint256"
        }
      ],
      "stateMutability": "view",
      "type": "function"
    },
    {
      "inputs": [],
      "name": "PRICE_PRECISION",
      "outputs": [
        {
          "internalType": "uint256",
          "name": "",
          "type": "uint256"
        }
      ],
      "stateMutability": "view",
      "type": "function"
    },
    {
      "inputs": [],
      "name": "USDG_DECIMALS",
      "outputs": [
        {
          "internalType": "uint256",
          "name": "",
          "type": "uint256"
        }
      ],
      "stateMutability": "view",
      "type": "function"
    },
    {
      "inputs": [
        {
          "internalType": "address",
          "name": "_router",
          "type": "address"
        }
      ],
      "name": "addRouter",
      "outputs": [],
      "stateMutability": "nonpayable",
      "type": "function"
    },
    {
      "inputs": [
        {
          "internalType": "uint256",
          "name": "_amount",
          "type": "uint256"
        },
        {
          "internalType": "address",
          "name": "_tokenDiv",
          "type": "address"
        },
        {
          "internalType": "address",
          "name": "_tokenMul",
          "type": "address"
        }
      ],
      "name": "adjustForDecimals",
      "outputs": [
        {
          "internalType": "uint256",
          "name": "",
          "type": "uint256"
        }
      ],
      "stateMutability": "view",
      "type": "function"
    },
    {
      "inputs": [
        {
          "internalType": "uint256",
          "name": "",
          "type": "uint256"
        }
      ],
      "name": "allWhitelistedTokens",
      "outputs": [
        {
          "internalType": "address",
          "name": "",
          "type": "address"
        }
      ],
      "stateMutability": "view",
      "type": "function"
    },
    {
      "inputs": [],
      "name": "allWhitelistedTokensLength",
      "outputs": [
        {
          "internalType": "uint256",
          "name": "",
          "type": "uint256"
        }
      ],
      "stateMutability": "view",
      "type": "function"
    },
    {
      "inputs": [
        {
          "internalType": "address",
          "name": "",
          "type": "address"
        },
        {
          "internalType": "address",
          "name": "",
          "type": "address"
        }
      ],
      "name": "approvedRouters",
      "outputs": [
        {
          "internalType": "bool",
          "name": "",
          "type": "bool"
        }
      ],
      "stateMutability": "view",
      "type": "function"
    },
    {
      "inputs": [
        {
          "internalType": "address",
          "name": "",
          "type": "address"
        }
      ],
      "name": "bufferAmounts",
      "outputs": [
        {
          "internalType": "uint256",
          "name": "",
          "type": "uint256"
        }
      ],
      "stateMutability": "view",
      "type": "function"
    },
    {
      "inputs": [
        {
          "internalType": "address",
          "name": "_token",
          "type": "address"
        },
        {
          "internalType": "address",
          "name": "_receiver",
          "type": "address"
        }
      ],
      "name": "buyUSDG",
      "outputs": [
        {
          "internalType": "uint256",
          "name": "",
          "type": "uint256"
        }
      ],
      "stateMutability": "nonpayable",
      "type": "function"
    },
    {
      "inputs": [
        {
          "internalType": "address",
          "name": "_token",
          "type": "address"
        }
      ],
      "name": "clearTokenConfig",
      "outputs": [],
      "stateMutability": "nonpayable",
      "type": "function"
    },
    {
      "inputs": [
        {
          "internalType": "address",
          "name": "",
          "type": "address"
        }
      ],
      "name": "cumulativeFundingRates",
      "outputs": [
        {
          "internalType": "uint256",
          "name": "",
          "type": "uint256"
        }
      ],
      "stateMutability": "view",
      "type": "function"
    },
    {
      "inputs": [
        {
          "internalType": "address",
          "name": "_account",
          "type": "address"
        },
        {
          "internalType": "address",
          "name": "_collateralToken",
          "type": "address"
        },
        {
          "internalType": "address",
          "name": "_indexToken",
          "type": "address"
        },
        {
          "internalType": "uint256",
          "name": "_collateralDelta",
          "type": "uint256"
        },
        {
          "internalType": "uint256",
          "name": "_sizeDelta",
          "type": "uint256"
        },
        {
          "internalType": "bool",
          "name": "_isLong",
          "type": "bool"
        },
        {
          "internalType": "address",
          "name": "_receiver",
          "type": "address"
        }
      ],
      "name": "decreasePosition",
      "outputs": [
        {
          "internalType": "uint256",
          "name": "",
          "type": "uint256"
        }
      ],
      "stateMutability": "nonpayable",
      "type": "function"
    },
    {
      "inputs": [
        {
          "internalType": "address",
          "name": "_token",
          "type": "address"
        }
      ],
      "name": "directPoolDeposit",
      "outputs": [],
      "stateMutability": "nonpayable",
      "type": "function"
    },
    {
      "inputs": [],
      "name": "errorController",
      "outputs": [
        {
          "internalType": "address",
          "name": "",
          "type": "address"
        }
      ],
      "stateMutability": "view",
      "type": "function"
    },
    {
      "inputs": [
        {
          "internalType": "uint256",
          "name": "",
          "type": "uint256"
        }
      ],
      "name": "errors",
      "outputs": [
        {
          "internalType": "string",
          "name": "",
          "type": "string"
        }
      ],
      "stateMutability": "view",
      "type": "function"
    },
    {
      "inputs": [
        {
          "internalType": "address",
          "name": "",
          "type": "address"
        }
      ],
      "name": "feeReserves",
      "outputs": [
        {
          "internalType": "uint256",
          "name": "",
          "type": "uint256"
        }
      ],
      "stateMutability": "view",
      "type": "function"
    },
    {
      "inputs": [],
      "name": "fundingInterval",
      "outputs": [
        {
          "internalType": "uint256",
          "name": "",
          "type": "uint256"
        }
      ],
      "stateMutability": "view",
      "type": "function"
    },
    {
      "inputs": [],
      "name": "fundingRateFactor",
      "outputs": [
        {
          "internalType": "uint256",
          "name": "",
          "type": "uint256"
        }
      ],
      "stateMutability": "view",
      "type": "function"
    },
    {
      "inputs": [
        {
          "internalType": "address",
          "name": "_indexToken",
          "type": "address"
        },
        {
          "internalType": "uint256",
          "name": "_size",
          "type": "uint256"
        },
        {
          "internalType": "uint256",
          "name": "_averagePrice",
          "type": "uint256"
        },
        {
          "internalType": "bool",
          "name": "_isLong",
          "type": "bool"
        },
        {
          "internalType": "uint256",
          "name": "_lastIncreasedTime",
          "type": "uint256"
        }
      ],
      "name": "getDelta",
      "outputs": [
        {
          "internalType": "bool",
          "name": "",
          "type": "bool"
        },
        {
          "internalType": "uint256",
          "name": "",
          "type": "uint256"
        }
      ],
      "stateMutability": "view",
      "type": "function"
    },
    {
      "inputs": [
        {
          "internalType": "address",
          "name": "_collateralToken",
          "type": "address"
        },
        {
          "internalType": "address",
          "name": "_indexToken",
          "type": "address"
        },
        {
          "internalType": "bool",
          "name": "_isLong",
          "type": "bool"
        }
      ],
      "name": "getEntryFundingRate",
      "outputs": [
        {
          "internalType": "uint256",
          "name": "",
          "type": "uint256"
        }
      ],
      "stateMutability": "view",
      "type": "function"
    },
    {
      "inputs": [
        {
          "internalType": "address",
          "name": "_token",
          "type": "address"
        },
        {
          "internalType": "uint256",
          "name": "_usdgDelta",
          "type": "uint256"
        },
        {
          "internalType": "uint256",
          "name": "_feeBasisPoints",
          "type": "uint256"
        },
        {
          "internalType": "uint256",
          "name": "_taxBasisPoints",
          "type": "uint256"
        },
        {
          "internalType": "bool",
          "name": "_increment",
          "type": "bool"
        }
      ],
      "name": "getFeeBasisPoints",
      "outputs": [
        {
          "internalType": "uint256",
          "name": "",
          "type": "uint256"
        }
      ],
      "stateMutability": "view",
      "type": "function"
    },
    {
      "inputs": [
        {
          "internalType": "address",
          "name": "_account",
          "type": "address"
        },
        {
          "internalType": "address",
          "name": "_collateralToken",
          "type": "address"
        },
        {
          "internalType": "address",
          "name": "_indexToken",
          "type": "address"
        },
        {
          "internalType": "bool",
          "name": "_isLong",
          "type": "bool"
        },
        {
          "internalType": "uint256",
          "name": "_size",
          "type": "uint256"
        },
        {
          "internalType": "uint256",
          "name": "_entryFundingRate",
          "type": "uint256"
        }
      ],
      "name": "getFundingFee",
      "outputs": [
        {
          "internalType": "uint256",
          "name": "",
          "type": "uint256"
        }
      ],
      "stateMutability": "view",
      "type": "function"
    },
    {
      "inputs": [
        {
          "internalType": "address",
          "name": "_token",
          "type": "address"
        }
      ],
      "name": "getGlobalShortDelta",
      "outputs": [
        {
          "internalType": "bool",
          "name": "",
          "type": "bool"
        },
        {
          "internalType": "uint256",
          "name": "",
          "type": "uint256"
        }
      ],
      "stateMutability": "view",
      "type": "function"
    },
    {
      "inputs": [
        {
          "internalType": "address",
          "name": "_token",
          "type": "address"
        }
      ],
      "name": "getMaxPrice",
      "outputs": [
        {
          "internalType": "uint256",
          "name": "",
          "type": "uint256"
        }
      ],
      "stateMutability": "view",
      "type": "function"
    },
    {
      "inputs": [
        {
          "internalType": "address",
          "name": "_token",
          "type": "address"
        }
      ],
      "name": "getMinPrice",
      "outputs": [
        {
          "internalType": "uint256",
          "name": "",
          "type": "uint256"
        }
      ],
      "stateMutability": "view",
      "type": "function"
    },
    {
      "inputs": [
        {
          "internalType": "address",
          "name": "_indexToken",
          "type": "address"
        },
        {
          "internalType": "uint256",
          "name": "_size",
          "type": "uint256"
        },
        {
          "internalType": "uint256",
          "name": "_averagePrice",
          "type": "uint256"
        },
        {
          "internalType": "bool",
          "name": "_isLong",
          "type": "bool"
        },
        {
          "internalType": "uint256",
          "name": "_nextPrice",
          "type": "uint256"
        },
        {
          "internalType": "uint256",
          "name": "_sizeDelta",
          "type": "uint256"
        },
        {
          "internalType": "uint256",
          "name": "_lastIncreasedTime",
          "type": "uint256"
        }
      ],
      "name": "getNextAveragePrice",
      "outputs": [
        {
          "internalType": "uint256",
          "name": "",
          "type": "uint256"
        }
      ],
      "stateMutability": "view",
      "type": "function"
    },
    {
      "inputs": [
        {
          "internalType": "address",
          "name": "_token",
          "type": "address"
        }
      ],
      "name": "getNextFundingRate",
      "outputs": [
        {
          "internalType": "uint256",
          "name": "",
          "type": "uint256"
        }
      ],
      "stateMutability": "view",
      "type": "function"
    },
    {
      "inputs": [
        {
          "internalType": "address",
          "name": "_indexToken",
          "type": "address"
        },
        {
          "internalType": "uint256",
          "name": "_nextPrice",
          "type": "uint256"
        },
        {
          "internalType": "uint256",
          "name": "_sizeDelta",
          "type": "uint256"
        }
      ],
      "name": "getNextGlobalShortAveragePrice",
      "outputs": [
        {
          "internalType": "uint256",
          "name": "",
          "type": "uint256"
        }
      ],
      "stateMutability": "view",
      "type": "function"
    },
    {
      "inputs": [
        {
          "internalType": "address",
          "name": "_account",
          "type": "address"
        },
        {
          "internalType": "address",
          "name": "_collateralToken",
          "type": "address"
        },
        {
          "internalType": "address",
          "name": "_indexToken",
          "type": "address"
        },
        {
          "internalType": "bool",
          "name": "_isLong",
          "type": "bool"
        }
      ],
      "name": "getPosition",
      "outputs": [
        {
          "internalType": "uint256",
          "name": "",
          "type": "uint256"
        },
        {
          "internalType": "uint256",
          "name": "",
          "type": "uint256"
        },
        {
          "internalType": "uint256",
          "name": "",
          "type": "uint256"
        },
        {
          "internalType": "uint256",
          "name": "",
          "type": "uint256"
        },
        {
          "internalType": "uint256",
          "name": "",
          "type": "uint256"
        },
        {
          "internalType": "uint256",
          "name": "",
          "type": "uint256"
        },
        {
          "internalType": "bool",
          "name": "",
          "type": "bool"
        },
        {
          "internalType": "uint256",
          "name": "",
          "type": "uint256"
        }
      ],
      "stateMutability": "view",
      "type": "function"
    },
    {
      "inputs": [
        {
          "internalType": "address",
          "name": "_account",
          "type": "address"
        },
        {
          "internalType": "address",
          "name": "_collateralToken",
          "type": "address"
        },
        {
          "internalType": "address",
          "name": "_indexToken",
          "type": "address"
        },
        {
          "internalType": "bool",
          "name": "_isLong",
          "type": "bool"
        }
      ],
      "name": "getPositionDelta",
      "outputs": [
        {
          "internalType": "bool",
          "name": "",
          "type": "bool"
        },
        {
          "internalType": "uint256",
          "name": "",
          "type": "uint256"
        }
      ],
      "stateMutability": "view",
      "type": "function"
    },
    {
      "inputs": [
        {
          "internalType": "address",
          "name": "_account",
          "type": "address"
        },
        {
          "internalType": "address",
          "name": "_collateralToken",
          "type": "address"
        },
        {
          "internalType": "address",
          "name": "_indexToken",
          "type": "address"
        },
        {
          "internalType": "bool",
          "name": "_isLong",
          "type": "bool"
        },
        {
          "internalType": "uint256",
          "name": "_sizeDelta",
          "type": "uint256"
        }
      ],
      "name": "getPositionFee",
      "outputs": [
        {
          "internalType": "uint256",
          "name": "",
          "type": "uint256"
        }
      ],
      "stateMutability": "view",
      "type": "function"
    },
    {
      "inputs": [
        {
          "internalType": "address",
          "name": "_account",
          "type": "address"
        },
        {
          "internalType": "address",
          "name": "_collateralToken",
          "type": "address"
        },
        {
          "internalType": "address",
          "name": "_indexToken",
          "type": "address"
        },
        {
          "internalType": "bool",
          "name": "_isLong",
          "type": "bool"
        }
      ],
      "name": "getPositionKey",
      "outputs": [
        {
          "internalType": "bytes32",
          "name": "",
          "type": "bytes32"
        }
      ],
      "stateMutability": "pure",
      "type": "function"
    },
    {
      "inputs": [
        {
          "internalType": "address",
          "name": "_account",
          "type": "address"
        },
        {
          "internalType": "address",
          "name": "_collateralToken",
          "type": "address"
        },
        {
          "internalType": "address",
          "name": "_indexToken",
          "type": "address"
        },
        {
          "internalType": "bool",
          "name": "_isLong",
          "type": "bool"
        }
      ],
      "name": "getPositionLeverage",
      "outputs": [
        {
          "internalType": "uint256",
          "name": "",
          "type": "uint256"
        }
      ],
      "stateMutability": "view",
      "type": "function"
    },
    {
      "inputs": [
        {
          "internalType": "address",
          "name": "_token",
          "type": "address"
        },
        {
          "internalType": "uint256",
          "name": "_usdgAmount",
          "type": "uint256"
        }
      ],
      "name": "getRedemptionAmount",
      "outputs": [
        {
          "internalType": "uint256",
          "name": "",
          "type": "uint256"
        }
      ],
      "stateMutability": "view",
      "type": "function"
    },
    {
      "inputs": [
        {
          "internalType": "address",
          "name": "_token",
          "type": "address"
        }
      ],
      "name": "getRedemptionCollateral",
      "outputs": [
        {
          "internalType": "uint256",
          "name": "",
          "type": "uint256"
        }
      ],
      "stateMutability": "view",
      "type": "function"
    },
    {
      "inputs": [
        {
          "internalType": "address",
          "name": "_token",
          "type": "address"
        }
      ],
      "name": "getRedemptionCollateralUsd",
      "outputs": [
        {
          "internalType": "uint256",
          "name": "",
          "type": "uint256"
        }
      ],
      "stateMutability": "view",
      "type": "function"
    },
    {
      "inputs": [
        {
          "internalType": "address",
          "name": "_token",
          "type": "address"
        }
      ],
      "name": "getTargetUsdgAmount",
      "outputs": [
        {
          "internalType": "uint256",
          "name": "",
          "type": "uint256"
        }
      ],
      "stateMutability": "view",
      "type": "function"
    },
    {
      "inputs": [
        {
          "internalType": "address",
          "name": "_token",
          "type": "address"
        }
      ],
      "name": "getUtilisation",
      "outputs": [
        {
          "internalType": "uint256",
          "name": "",
          "type": "uint256"
        }
      ],
      "stateMutability": "view",
      "type": "function"
    },
    {
      "inputs": [
        {
          "internalType": "address",
          "name": "",
          "type": "address"
        }
      ],
      "name": "globalShortAveragePrices",
      "outputs": [
        {
          "internalType": "uint256",
          "name": "",
          "type": "uint256"
        }
      ],
      "stateMutability": "view",
      "type": "function"
    },
    {
      "inputs": [
        {
          "internalType": "address",
          "name": "",
          "type": "address"
        }
      ],
      "name": "globalShortSizes",
      "outputs": [
        {
          "internalType": "uint256",
          "name": "",
          "type": "uint256"
        }
      ],
      "stateMutability": "view",
      "type": "function"
    },
    {
      "inputs": [],
      "name": "gov",
      "outputs": [
        {
          "internalType": "address",
          "name": "",
          "type": "address"
        }
      ],
      "stateMutability": "view",
      "type": "function"
    },
    {
      "inputs": [
        {
          "internalType": "address",
          "name": "",
          "type": "address"
        }
      ],
      "name": "guaranteedUsd",
      "outputs": [
        {
          "internalType": "uint256",
          "name": "",
          "type": "uint256"
        }
      ],
      "stateMutability": "view",
      "type": "function"
    },
    {
      "inputs": [],
      "name": "hasDynamicFees",
      "outputs": [
        {
          "internalType": "bool",
          "name": "",
          "type": "bool"
        }
      ],
      "stateMutability": "view",
      "type": "function"
    },
    {
      "inputs": [],
      "name": "inManagerMode",
      "outputs": [
        {
          "internalType": "bool",
          "name": "",
          "type": "bool"
        }
      ],
      "stateMutability": "view",
      "type": "function"
    },
    {
      "inputs": [],
      "name": "inPrivateLiquidationMode",
      "outputs": [
        {
          "internalType": "bool",
          "name": "",
          "type": "bool"
        }
      ],
      "stateMutability": "view",
      "type": "function"
    },
    {
      "inputs": [],
      "name": "includeAmmPrice",
      "outputs": [
        {
          "internalType": "bool",
          "name": "",
          "type": "bool"
        }
      ],
      "stateMutability": "view",
      "type": "function"
    },
    {
      "inputs": [
        {
          "internalType": "address",
          "name": "_account",
          "type": "address"
        },
        {
          "internalType": "address",
          "name": "_collateralToken",
          "type": "address"
        },
        {
          "internalType": "address",
          "name": "_indexToken",
          "type": "address"
        },
        {
          "internalType": "uint256",
          "name": "_sizeDelta",
          "type": "uint256"
        },
        {
          "internalType": "bool",
          "name": "_isLong",
          "type": "bool"
        }
      ],
      "name": "increasePosition",
      "outputs": [],
      "stateMutability": "nonpayable",
      "type": "function"
    },
    {
      "inputs": [
        {
          "internalType": "address",
          "name": "_router",
          "type": "address"
        },
        {
          "internalType": "address",
          "name": "_usdg",
          "type": "address"
        },
        {
          "internalType": "address",
          "name": "_priceFeed",
          "type": "address"
        },
        {
          "internalType": "uint256",
          "name": "_liquidationFeeUsd",
          "type": "uint256"
        },
        {
          "internalType": "uint256",
          "name": "_fundingRateFactor",
          "type": "uint256"
        },
        {
          "internalType": "uint256",
          "name": "_stableFundingRateFactor",
          "type": "uint256"
        }
      ],
      "name": "initialize",
      "outputs": [],
      "stateMutability": "nonpayable",
      "type": "function"
    },
    {
      "inputs": [],
      "name": "isInitialized",
      "outputs": [
        {
          "internalType": "bool",
          "name": "",
          "type": "bool"
        }
      ],
      "stateMutability": "view",
      "type": "function"
    },
    {
      "inputs": [],
      "name": "isLeverageEnabled",
      "outputs": [
        {
          "internalType": "bool",
          "name": "",
          "type": "bool"
        }
      ],
      "stateMutability": "view",
      "type": "function"
    },
    {
      "inputs": [
        {
          "internalType": "address",
          "name": "",
          "type": "address"
        }
      ],
      "name": "isLiquidator",
      "outputs": [
        {
          "internalType": "bool",
          "name": "",
          "type": "bool"
        }
      ],
      "stateMutability": "view",
      "type": "function"
    },
    {
      "inputs": [
        {
          "internalType": "address",
          "name": "",
          "type": "address"
        }
      ],
      "name": "isManager",
      "outputs": [
        {
          "internalType": "bool",
          "name": "",
          "type": "bool"
        }
      ],
      "stateMutability": "view",
      "type": "function"
    },
    {
      "inputs": [],
      "name": "isSwapEnabled",
      "outputs": [
        {
          "internalType": "bool",
          "name": "",
          "type": "bool"
        }
      ],
      "stateMutability": "view",
      "type": "function"
    },
    {
      "inputs": [
        {
          "internalType": "address",
          "name": "",
          "type": "address"
        }
      ],
      "name": "lastFundingTimes",
      "outputs": [
        {
          "internalType": "uint256",
          "name": "",
          "type": "uint256"
        }
      ],
      "stateMutability": "view",
      "type": "function"
    },
    {
      "inputs": [
        {
          "internalType": "address",
          "name": "_account",
          "type": "address"
        },
        {
          "internalType": "address",
          "name": "_collateralToken",
          "type": "address"
        },
        {
          "internalType": "address",
          "name": "_indexToken",
          "type": "address"
        },
        {
          "internalType": "bool",
          "name": "_isLong",
          "type": "bool"
        },
        {
          "internalType": "address",
          "name": "_feeReceiver",
          "type": "address"
        }
      ],
      "name": "liquidatePosition",
      "outputs": [],
      "stateMutability": "nonpayable",
      "type": "function"
    },
    {
      "inputs": [],
      "name": "liquidationFeeUsd",
      "outputs": [
        {
          "internalType": "uint256",
          "name": "",
          "type": "uint256"
        }
      ],
      "stateMutability": "view",
      "type": "function"
    },
    {
      "inputs": [],
      "name": "marginFeeBasisPoints",
      "outputs": [
        {
          "internalType": "uint256",
          "name": "",
          "type": "uint256"
        }
      ],
      "stateMutability": "view",
      "type": "function"
    },
    {
      "inputs": [],
      "name": "maxGasPrice",
      "outputs": [
        {
          "internalType": "uint256",
          "name": "",
          "type": "uint256"
        }
      ],
      "stateMutability": "view",
      "type": "function"
    },
    {
      "inputs": [
        {
          "internalType": "address",
          "name": "",
          "type": "address"
        }
      ],
      "name": "maxGlobalShortSizes",
      "outputs": [
        {
          "internalType": "uint256",
          "name": "",
          "type": "uint256"
        }
      ],
      "stateMutability": "view",
      "type": "function"
    },
    {
      "inputs": [],
      "name": "maxLeverage",
      "outputs": [
        {
          "internalType": "uint256",
          "name": "",
          "type": "uint256"
        }
      ],
      "stateMutability": "view",
      "type": "function"
    },
    {
      "inputs": [
        {
          "internalType": "address",
          "name": "",
          "type": "address"
        }
      ],
      "name": "maxUsdgAmounts",
      "outputs": [
        {
          "internalType": "uint256",
          "name": "",
          "type": "uint256"
        }
      ],
      "stateMutability": "view",
      "type": "function"
    },
    {
      "inputs": [
        {
          "internalType": "address",
          "name": "",
          "type": "address"
        }
      ],
      "name": "minProfitBasisPoints",
      "outputs": [
        {
          "internalType": "uint256",
          "name": "",
          "type": "uint256"
        }
      ],
      "stateMutability": "view",
      "type": "function"
    },
    {
      "inputs": [],
      "name": "minProfitTime",
      "outputs": [
        {
          "internalType": "uint256",
          "name": "",
          "type": "uint256"
        }
      ],
      "stateMutability": "view",
      "type": "function"
    },
    {
      "inputs": [],
      "name": "mintBurnFeeBasisPoints",
      "outputs": [
        {
          "internalType": "uint256",
          "name": "",
          "type": "uint256"
        }
      ],
      "stateMutability": "view",
      "type": "function"
    },
    {
      "inputs": [
        {
          "internalType": "address",
          "name": "",
          "type": "address"
        }
      ],
      "name": "poolAmounts",
      "outputs": [
        {
          "internalType": "uint256",
          "name": "",
          "type": "uint256"
        }
      ],
      "stateMutability": "view",
      "type": "function"
    },
    {
      "inputs": [
        {
          "internalType": "bytes32",
          "name": "",
          "type": "bytes32"
        }
      ],
      "name": "positions",
      "outputs": [
        {
          "internalType": "uint256",
          "name": "size",
          "type": "uint256"
        },
        {
          "internalType": "uint256",
          "name": "collateral",
          "type": "uint256"
        },
        {
          "internalType": "uint256",
          "name": "averagePrice",
          "type": "uint256"
        },
        {
          "internalType": "uint256",
          "name": "entryFundingRate",
          "type": "uint256"
        },
        {
          "internalType": "uint256",
          "name": "reserveAmount",
          "type": "uint256"
        },
        {
          "internalType": "int256",
          "name": "realisedPnl",
          "type": "int256"
        },
        {
          "internalType": "uint256",
          "name": "lastIncreasedTime",
          "type": "uint256"
        }
      ],
      "stateMutability": "view",
      "type": "function"
    },
    {
      "inputs": [],
      "name": "priceFeed",
      "outputs": [
        {
          "internalType": "address",
          "name": "",
          "type": "address"
        }
      ],
      "stateMutability": "view",
      "type": "function"
    },
    {
      "inputs": [
        {
          "internalType": "address",
          "name": "_router",
          "type": "address"
        }
      ],
      "name": "removeRouter",
      "outputs": [],
      "stateMutability": "nonpayable",
      "type": "function"
    },
    {
      "inputs": [
        {
          "internalType": "address",
          "name": "",
          "type": "address"
        }
      ],
      "name": "reservedAmounts",
      "outputs": [
        {
          "internalType": "uint256",
          "name": "",
          "type": "uint256"
        }
      ],
      "stateMutability": "view",
      "type": "function"
    },
    {
      "inputs": [],
      "name": "router",
      "outputs": [
        {
          "internalType": "address",
          "name": "",
          "type": "address"
        }
      ],
      "stateMutability": "view",
      "type": "function"
    },
    {
      "inputs": [
        {
          "internalType": "address",
          "name": "_token",
          "type": "address"
        },
        {
          "internalType": "address",
          "name": "_receiver",
          "type": "address"
        }
      ],
      "name": "sellUSDG",
      "outputs": [
        {
          "internalType": "uint256",
          "name": "",
          "type": "uint256"
        }
      ],
      "stateMutability": "nonpayable",
      "type": "function"
    },
    {
      "inputs": [
        {
          "internalType": "address",
          "name": "_token",
          "type": "address"
        },
        {
          "internalType": "uint256",
          "name": "_amount",
          "type": "uint256"
        }
      ],
      "name": "setBufferAmount",
      "outputs": [],
      "stateMutability": "nonpayable",
      "type": "function"
    },
    {
      "inputs": [
        {
          "internalType": "uint256",
          "name": "_errorCode",
          "type": "uint256"
        },
        {
          "internalType": "string",
          "name": "_error",
          "type": "string"
        }
      ],
      "name": "setError",
      "outputs": [],
      "stateMutability": "nonpayable",
      "type": "function"
    },
    {
      "inputs": [
        {
          "internalType": "address",
          "name": "_errorController",
          "type": "address"
        }
      ],
      "name": "setErrorController",
      "outputs": [],
      "stateMutability": "nonpayable",
      "type": "function"
    },
    {
      "inputs": [
        {
          "internalType": "uint256",
          "name": "_taxBasisPoints",
          "type": "uint256"
        },
        {
          "internalType": "uint256",
          "name": "_stableTaxBasisPoints",
          "type": "uint256"
        },
        {
          "internalType": "uint256",
          "name": "_mintBurnFeeBasisPoints",
          "type": "uint256"
        },
        {
          "internalType": "uint256",
          "name": "_swapFeeBasisPoints",
          "type": "uint256"
        },
        {
          "internalType": "uint256",
          "name": "_stableSwapFeeBasisPoints",
          "type": "uint256"
        },
        {
          "internalType": "uint256",
          "name": "_marginFeeBasisPoints",
          "type": "uint256"
        },
        {
          "internalType": "uint256",
          "name": "_liquidationFeeUsd",
          "type": "uint256"
        },
        {
          "internalType": "uint256",
          "name": "_minProfitTime",
          "type": "uint256"
        },
        {
          "internalType": "bool",
          "name": "_hasDynamicFees",
          "type": "bool"
        }
      ],
      "name": "setFees",
      "outputs": [],
      "stateMutability": "nonpayable",
      "type": "function"
    },
    {
      "inputs": [
        {
          "internalType": "uint256",
          "name": "_fundingInterval",
          "type": "uint256"
        },
        {
          "internalType": "uint256",
          "name": "_fundingRateFactor",
          "type": "uint256"
        },
        {
          "internalType": "uint256",
          "name": "_stableFundingRateFactor",
          "type": "uint256"
        }
      ],
      "name": "setFundingRate",
      "outputs": [],
      "stateMutability": "nonpayable",
      "type": "function"
    },
    {
      "inputs": [
        {
          "internalType": "address",
          "name": "_gov",
          "type": "address"
        }
      ],
      "name": "setGov",
      "outputs": [],
      "stateMutability": "nonpayable",
      "type": "function"
    },
    {
      "inputs": [
        {
          "internalType": "bool",
          "name": "_inManagerMode",
          "type": "bool"
        }
      ],
      "name": "setInManagerMode",
      "outputs": [],
      "stateMutability": "nonpayable",
      "type": "function"
    },
    {
      "inputs": [
        {
          "internalType": "bool",
          "name": "_inPrivateLiquidationMode",
          "type": "bool"
        }
      ],
      "name": "setInPrivateLiquidationMode",
      "outputs": [],
      "stateMutability": "nonpayable",
      "type": "function"
    },
    {
      "inputs": [
        {
          "internalType": "bool",
          "name": "_isLeverageEnabled",
          "type": "bool"
        }
      ],
      "name": "setIsLeverageEnabled",
      "outputs": [],
      "stateMutability": "nonpayable",
      "type": "function"
    },
    {
      "inputs": [
        {
          "internalType": "bool",
          "name": "_isSwapEnabled",
          "type": "bool"
        }
      ],
      "name": "setIsSwapEnabled",
      "outputs": [],
      "stateMutability": "nonpayable",
      "type": "function"
    },
    {
      "inputs": [
        {
          "internalType": "address",
          "name": "_liquidator",
          "type": "address"
        },
        {
          "internalType": "bool",
          "name": "_isActive",
          "type": "bool"
        }
      ],
      "name": "setLiquidator",
      "outputs": [],
      "stateMutability": "nonpayable",
      "type": "function"
    },
    {
      "inputs": [
        {
          "internalType": "address",
          "name": "_manager",
          "type": "address"
        },
        {
          "internalType": "bool",
          "name": "_isManager",
          "type": "bool"
        }
      ],
      "name": "setManager",
      "outputs": [],
      "stateMutability": "nonpayable",
      "type": "function"
    },
    {
      "inputs": [
        {
          "internalType": "uint256",
          "name": "_maxGasPrice",
          "type": "uint256"
        }
      ],
      "name": "setMaxGasPrice",
      "outputs": [],
      "stateMutability": "nonpayable",
      "type": "function"
    },
    {
      "inputs": [
        {
          "internalType": "address",
          "name": "_token",
          "type": "address"
        },
        {
          "internalType": "uint256",
          "name": "_amount",
          "type": "uint256"
        }
      ],
      "name": "setMaxGlobalShortSize",
      "outputs": [],
      "stateMutability": "nonpayable",
      "type": "function"
    },
    {
      "inputs": [
        {
          "internalType": "uint256",
          "name": "_maxLeverage",
          "type": "uint256"
        }
      ],
      "name": "setMaxLeverage",
      "outputs": [],
      "stateMutability": "nonpayable",
      "type": "function"
    },
    {
      "inputs": [
        {
          "internalType": "address",
          "name": "_priceFeed",
          "type": "address"
        }
      ],
      "name": "setPriceFeed",
      "outputs": [],
      "stateMutability": "nonpayable",
      "type": "function"
    },
    {
      "inputs": [
        {
          "internalType": "address",
          "name": "_token",
          "type": "address"
        },
        {
          "internalType": "uint256",
          "name": "_tokenDecimals",
          "type": "uint256"
        },
        {
          "internalType": "uint256",
          "name": "_tokenWeight",
          "type": "uint256"
        },
        {
          "internalType": "uint256",
          "name": "_minProfitBps",
          "type": "uint256"
        },
        {
          "internalType": "uint256",
          "name": "_maxUsdgAmount",
          "type": "uint256"
        },
        {
          "internalType": "bool",
          "name": "_isStable",
          "type": "bool"
        },
        {
          "internalType": "bool",
          "name": "_isShortable",
          "type": "bool"
        }
      ],
      "name": "setTokenConfig",
      "outputs": [],
      "stateMutability": "nonpayable",
      "type": "function"
    },
    {
      "inputs": [
        {
          "internalType": "address",
          "name": "_token",
          "type": "address"
        },
        {
          "internalType": "uint256",
          "name": "_amount",
          "type": "uint256"
        }
      ],
      "name": "setUsdgAmount",
      "outputs": [],
      "stateMutability": "nonpayable",
      "type": "function"
    },
    {
      "inputs": [
        {
          "internalType": "contract IVaultUtils",
          "name": "_vaultUtils",
          "type": "address"
        }
      ],
      "name": "setVaultUtils",
      "outputs": [],
      "stateMutability": "nonpayable",
      "type": "function"
    },
    {
      "inputs": [
        {
          "internalType": "address",
          "name": "",
          "type": "address"
        }
      ],
      "name": "shortableTokens",
      "outputs": [
        {
          "internalType": "bool",
          "name": "",
          "type": "bool"
        }
      ],
      "stateMutability": "view",
      "type": "function"
    },
    {
      "inputs": [],
      "name": "stableFundingRateFactor",
      "outputs": [
        {
          "internalType": "uint256",
          "name": "",
          "type": "uint256"
        }
      ],
      "stateMutability": "view",
      "type": "function"
    },
    {
      "inputs": [],
      "name": "stableSwapFeeBasisPoints",
      "outputs": [
        {
          "internalType": "uint256",
          "name": "",
          "type": "uint256"
        }
      ],
      "stateMutability": "view",
      "type": "function"
    },
    {
      "inputs": [],
      "name": "stableTaxBasisPoints",
      "outputs": [
        {
          "internalType": "uint256",
          "name": "",
          "type": "uint256"
        }
      ],
      "stateMutability": "view",
      "type": "function"
    },
    {
      "inputs": [
        {
          "internalType": "address",
          "name": "",
          "type": "address"
        }
      ],
      "name": "stableTokens",
      "outputs": [
        {
          "internalType": "bool",
          "name": "",
          "type": "bool"
        }
      ],
      "stateMutability": "view",
      "type": "function"
    },
    {
      "inputs": [
        {
          "internalType": "address",
          "name": "_tokenIn",
          "type": "address"
        },
        {
          "internalType": "address",
          "name": "_tokenOut",
          "type": "address"
        },
        {
          "internalType": "address",
          "name": "_receiver",
          "type": "address"
        }
      ],
      "name": "swap",
      "outputs": [
        {
          "internalType": "uint256",
          "name": "",
          "type": "uint256"
        }
      ],
      "stateMutability": "nonpayable",
      "type": "function"
    },
    {
      "inputs": [],
      "name": "swapFeeBasisPoints",
      "outputs": [
        {
          "internalType": "uint256",
          "name": "",
          "type": "uint256"
        }
      ],
      "stateMutability": "view",
      "type": "function"
    },
    {
      "inputs": [],
      "name": "taxBasisPoints",
      "outputs": [
        {
          "internalType": "uint256",
          "name": "",
          "type": "uint256"
        }
      ],
      "stateMutability": "view",
      "type": "function"
    },
    {
      "inputs": [
        {
          "internalType": "address",
          "name": "",
          "type": "address"
        }
      ],
      "name": "tokenBalances",
      "outputs": [
        {
          "internalType": "uint256",
          "name": "",
          "type": "uint256"
        }
      ],
      "stateMutability": "view",
      "type": "function"
    },
    {
      "inputs": [
        {
          "internalType": "address",
          "name": "",
          "type": "address"
        }
      ],
      "name": "tokenDecimals",
      "outputs": [
        {
          "internalType": "uint256",
          "name": "",
          "type": "uint256"
        }
      ],
      "stateMutability": "view",
      "type": "function"
    },
    {
      "inputs": [
        {
          "internalType": "address",
          "name": "_token",
          "type": "address"
        },
        {
          "internalType": "uint256",
          "name": "_tokenAmount",
          "type": "uint256"
        }
      ],
      "name": "tokenToUsdMin",
      "outputs": [
        {
          "internalType": "uint256",
          "name": "",
          "type": "uint256"
        }
      ],
      "stateMutability": "view",
      "type": "function"
    },
    {
      "inputs": [
        {
          "internalType": "address",
          "name": "",
          "type": "address"
        }
      ],
      "name": "tokenWeights",
      "outputs": [
        {
          "internalType": "uint256",
          "name": "",
          "type": "uint256"
        }
      ],
      "stateMutability": "view",
      "type": "function"
    },
    {
      "inputs": [],
      "name": "totalTokenWeights",
      "outputs": [
        {
          "internalType": "uint256",
          "name": "",
          "type": "uint256"
        }
      ],
      "stateMutability": "view",
      "type": "function"
    },
    {
      "inputs": [
        {
          "internalType": "address",
          "name": "_collateralToken",
          "type": "address"
        },
        {
          "internalType": "address",
          "name": "_indexToken",
          "type": "address"
        }
      ],
      "name": "updateCumulativeFundingRate",
      "outputs": [],
      "stateMutability": "nonpayable",
      "type": "function"
    },
    {
      "inputs": [
        {
          "internalType": "address",
          "name": "_newVault",
          "type": "address"
        },
        {
          "internalType": "address",
          "name": "_token",
          "type": "address"
        },
        {
          "internalType": "uint256",
          "name": "_amount",
          "type": "uint256"
        }
      ],
      "name": "upgradeVault",
      "outputs": [],
      "stateMutability": "nonpayable",
      "type": "function"
    },
    {
      "inputs": [
        {
          "internalType": "address",
          "name": "_token",
          "type": "address"
        },
        {
          "internalType": "uint256",
          "name": "_usdAmount",
          "type": "uint256"
        },
        {
          "internalType": "uint256",
          "name": "_price",
          "type": "uint256"
        }
      ],
      "name": "usdToToken",
      "outputs": [
        {
          "internalType": "uint256",
          "name": "",
          "type": "uint256"
        }
      ],
      "stateMutability": "view",
      "type": "function"
    },
    {
      "inputs": [
        {
          "internalType": "address",
          "name": "_token",
          "type": "address"
        },
        {
          "internalType": "uint256",
          "name": "_usdAmount",
          "type": "uint256"
        }
      ],
      "name": "usdToTokenMax",
      "outputs": [
        {
          "internalType": "uint256",
          "name": "",
          "type": "uint256"
        }
      ],
      "stateMutability": "view",
      "type": "function"
    },
    {
      "inputs": [
        {
          "internalType": "address",
          "name": "_token",
          "type": "address"
        },
        {
          "internalType": "uint256",
          "name": "_usdAmount",
          "type": "uint256"
        }
      ],
      "name": "usdToTokenMin",
      "outputs": [
        {
          "internalType": "uint256",
          "name": "",
          "type": "uint256"
        }
      ],
      "stateMutability": "view",
      "type": "function"
    },
    {
      "inputs": [],
      "name": "usdg",
      "outputs": [
        {
          "internalType": "address",
          "name": "",
          "type": "address"
        }
      ],
      "stateMutability": "view",
      "type": "function"
    },
    {
      "inputs": [
        {
          "internalType": "address",
          "name": "",
          "type": "address"
        }
      ],
      "name": "usdgAmounts",
      "outputs": [
        {
          "internalType": "uint256",
          "name": "",
          "type": "uint256"
        }
      ],
      "stateMutability": "view",
      "type": "function"
    },
    {
      "inputs": [],
      "name": "useSwapPricing",
      "outputs": [
        {
          "internalType": "bool",
          "name": "",
          "type": "bool"
        }
      ],
      "stateMutability": "view",
      "type": "function"
    },
    {
      "inputs": [
        {
          "internalType": "address",
          "name": "_account",
          "type": "address"
        },
        {
          "internalType": "address",
          "name": "_collateralToken",
          "type": "address"
        },
        {
          "internalType": "address",
          "name": "_indexToken",
          "type": "address"
        },
        {
          "internalType": "bool",
          "name": "_isLong",
          "type": "bool"
        },
        {
          "internalType": "bool",
          "name": "_raise",
          "type": "bool"
        }
      ],
      "name": "validateLiquidation",
      "outputs": [
        {
          "internalType": "uint256",
          "name": "",
          "type": "uint256"
        },
        {
          "internalType": "uint256",
          "name": "",
          "type": "uint256"
        }
      ],
      "stateMutability": "view",
      "type": "function"
    },
    {
      "inputs": [],
      "name": "vaultUtils",
      "outputs": [
        {
          "internalType": "contract IVaultUtils",
          "name": "",
          "type": "address"
        }
      ],
      "stateMutability": "view",
      "type": "function"
    },
    {
      "inputs": [],
      "name": "whitelistedTokenCount",
      "outputs": [
        {
          "internalType": "uint256",
          "name": "",
          "type": "uint256"
        }
      ],
      "stateMutability": "view",
      "type": "function"
    },
    {
      "inputs": [
        {
          "internalType": "address",
          "name": "",
          "type": "address"
        }
      ],
      "name": "whitelistedTokens",
      "outputs": [
        {
          "internalType": "bool",
          "name": "",
          "type": "bool"
        }
      ],
      "stateMutability": "view",
      "type": "function"
    },
    {
      "inputs": [
        {
          "internalType": "address",
          "name": "_token",
          "type": "address"
        },
        {
          "internalType": "address",
          "name": "_receiver",
          "type": "address"
        }
      ],
      "name": "withdrawFees",
      "outputs": [
        {
          "internalType": "uint256",
          "name": "",
          "type": "uint256"
        }
      ],
      "stateMutability": "nonpayable",
      "type": "function"
    }
  ],
  "bytecode": "0x60806040526001805462ff00001961ff00199091166101001716620100001781556207a1206008556032600a9081556014600b55601e600c819055600d556004600e55600f556011805460ff199081169091556170806012556016805463ffffff0019921690921716905534801561007657600080fd5b506001600055600680546001600160a01b031916331790556161c8806200009e6000396000f3fe608060405234801561001057600080fd5b50600436106105995760003560e01c80638585f4d2116102e9578063c7e074c31161018f578063c7e074c314611225578063cea0c32814611265578063cfad57a21461129b578063d2fa635e146112c1578063d3127e63146112de578063d54d5a9f146112fb578063d66b000d1461135a578063d8f897c314611386578063d9ac4225146113ac578063da76524c146113b4578063daf9c210146113fe578063db3555fb14611424578063db97495f1461144a578063dc8f5fac14611496578063de2ea9481461149e578063df73a267146114e6578063e124e6d2146114ee578063e468baf014611514578063e67f59a714611531578063efa10a6e14611557578063f07456ce14611583578063f07bbf77146115a9578063f2555278146115c8578063f3ae2415146115f6578063f5b91b7b1461161c578063f887ea4014611624578063fa12dbc01461162c578063fbfded6d1461165e578063fce28c101461168c578063fdaf6ac314611694578063fed1a606146116d857610599565b80638585f4d214610e90578063870d917c14610ebc57806388b1fbdf14610ec45780638a27d46814610eea5780638a39735a1461061a5780638a78daa814610f135780638ee573ac14610f395780638f7b840414610f5f5780639060b1ca14610f855780639331621214610f8d57806395082d2514610fc55780639698d25a14610fcd5780639849e41214610ff35780639899cd0214610ffb5780639d7432ca146110275780639f392eb314611059578063a22f239214611061578063a42ab3d214611069578063a5e90eee14611095578063a93acac2146110c3578063ab08c1c6146110e9578063ab2f3ad4146110f1578063ad1e4f8d14611117578063ae3302c21461113d578063b06423f314611145578063b136ca491461114d578063b1cc53ab14611173578063b364accb146111ab578063c3c7b9e9146111d1578063c4f718bf146111f7578063c65bc7b1146111ff57610599565b80634453a3741161044e5780634453a3741461097057806345a6f3701461099e57806348d91abf146109f757806348f35cbb14610a3b5780634a3f088d14610a435780634a993ee914610ac45780634befe2ca14610aea5780634d47b30414610af2578063514ea4bf14610afa57806351723e8214610b4f578063523fba7f14610b8d578063529a356f14610bb357806352f55eed14610bd95780635c07eaab14610bff5780635f7bc11914610c3f5780636092219914610c6557806362287a3214610c935780636274980314610c9b5780636abbe0c814610cc15780636ae0b15414610cc95780636be6026b14610cef57806371089f4d14610cf7578063711e619014610d1d578063724e78da14610d4b578063728cdbca14610d71578063741bef1a14610db95780637a210a2b14610dc15780637c2eb9f714610dc9578063817bb85714610de857806381a612d614610e1657806382a0849014610e3c57610599565b806304fef1db1461059e57806307c58752146105d65780630842b076146105de5780630a48d5a9146105e657806310eb56c214610612578063126082cf1461061a57806312d43a5114610622578063134ca63b14610646578063174d26941461064e578063181e210e146106565780631aa4ace5146106725780631ce9cb8f1461069857806324b0c04d146106be57806324ca984e146106df57806328e67be51461070557806329ff96151461077a5780632c668ec1146107a05780632d4b0576146107cc57806330455ede1461080a578063318bc6891461082957806334c1557d1461061a578063351a964d14610831578063392e53cd146108395780633a05dcc1146108415780633c5a6e35146108675780633de39c11146108b55780633e72a262146108bd57806340eb3802146108c5578063421528731461091657806342b60b031461094a575b600080fd5b6105c4600480360360208110156105b457600080fd5b50356001600160a01b031661176a565b60408051918252519081900360200190f35b6105c46117cd565b6105c46117de565b6105c4600480360360408110156105fc57600080fd5b506001600160a01b0381351690602001356117e4565b6105c4611837565b6105c461183d565b61062a611843565b604080516001600160a01b039092168252519081900360200190f35b6105c4611852565b6105c4611858565b61065e61185e565b604080519115158252519081900360200190f35b6105c46004803603602081101561068857600080fd5b50356001600160a01b031661186e565b6105c4600480360360208110156106ae57600080fd5b50356001600160a01b0316611880565b6106dd600480360360208110156106d457600080fd5b50351515611892565b005b6106dd600480360360208110156106f557600080fd5b50356001600160a01b03166118b6565b6106dd6004803603604081101561071b57600080fd5b81359190810190604081016020820135600160201b81111561073c57600080fd5b82018360208201111561074e57600080fd5b803590602001918460018302840111600160201b8311171561076f57600080fd5b5090925090506118e7565b6105c46004803603602081101561079057600080fd5b50356001600160a01b0316611965565b6105c4600480360360408110156107b657600080fd5b506001600160a01b038135169060200135611979565b6105c4600480360360808110156107e257600080fd5b506001600160a01b0381358116916020810135821691604082013516906060013515156119be565b6106dd6004803603602081101561082057600080fd5b50351515611a14565b6105c4611a36565b61065e611a3c565b61065e611a4a565b6105c46004803603602081101561085757600080fd5b50356001600160a01b0316611a53565b6106dd600480360360e081101561087d57600080fd5b506001600160a01b038135169060208101359060408101359060608101359060808101359060a081013515159060c001351515611b13565b6105c4611c4b565b61065e611c51565b6106dd60048036036101208110156108dc57600080fd5b5080359060208101359060408101359060608101359060808101359060a08101359060c08101359060e08101359061010001351515611c60565b6105c46004803603606081101561092c57600080fd5b508035906001600160a01b0360208201358116916040013516611d1a565b61065e6004803603602081101561096057600080fd5b50356001600160a01b0316611dbc565b6106dd6004803603604081101561098657600080fd5b506001600160a01b0381351690602001351515611dd1565b6109dc600480360360808110156109b457600080fd5b506001600160a01b038135811691602081013582169160408201351690606001351515611e04565b60408051921515835260208301919091528051918290030190f35b6106dd600480360360a0811015610a0d57600080fd5b506001600160a01b038135811691602081013582169160408201351690606081013590608001351515611ea2565b61062a6124ae565b610a8160048036036080811015610a5957600080fd5b506001600160a01b0381358116916020810135821691604082013516906060013515156124bd565b604080519889526020890197909752878701959095526060870193909352608086019190915260a0850152151560c084015260e083015251908190036101000190f35b6105c460048036036020811015610ada57600080fd5b50356001600160a01b03166125b3565b6105c46125c5565b6105c46125cb565b610b1760048036036020811015610b1057600080fd5b50356125d1565b604080519788526020880196909652868601949094526060860192909252608085015260a084015260c0830152519081900360e00190f35b6105c460048036036080811015610b6557600080fd5b506001600160a01b03813581169160208101358216916040820135169060600135151561260e565b6105c460048036036020811015610ba357600080fd5b50356001600160a01b03166126b4565b61065e60048036036020811015610bc957600080fd5b50356001600160a01b03166126c6565b6105c460048036036020811015610bef57600080fd5b50356001600160a01b03166126db565b6109dc600480360360a0811015610c1557600080fd5b506001600160a01b03813516906020810135906040810135906060810135151590608001356126ed565b6106dd60048036036020811015610c5557600080fd5b50356001600160a01b03166127e5565b61065e60048036036040811015610c7b57600080fd5b506001600160a01b03813581169160200135166128c8565b6105c46128e8565b6105c460048036036020811015610cb157600080fd5b50356001600160a01b03166128ee565b61062a612900565b6106dd60048036036020811015610cdf57600080fd5b50356001600160a01b0316612916565b6105c4612944565b6106dd60048036036020811015610d0d57600080fd5b50356001600160a01b031661294b565b6105c460048036036040811015610d3357600080fd5b506001600160a01b038135811691602001351661297f565b6106dd60048036036020811015610d6157600080fd5b50356001600160a01b0316612c13565b6106dd600480360360c0811015610d8757600080fd5b506001600160a01b03813581169160208101358216916040820135169060608101359060808101359060a00135612c3d565b61062a612cb4565b6105c4612cc3565b6106dd60048036036020811015610ddf57600080fd5b50351515612cc9565b6105c460048036036040811015610dfe57600080fd5b506001600160a01b0381358116916020013516612ced565b6105c460048036036020811015610e2c57600080fd5b50356001600160a01b0316612fbd565b6105c4600480360360e0811015610e5257600080fd5b506001600160a01b0381358116916020810135821691604082013581169160608101359160808201359160a081013515159160c09091013516613068565b6106dd60048036036040811015610ea657600080fd5b506001600160a01b0381351690602001356130e6565b6105c461310a565b6105c460048036036020811015610eda57600080fd5b50356001600160a01b031661310f565b6106dd60048036036060811015610f0057600080fd5b5080359060208101359060400135613121565b6105c460048036036020811015610f2957600080fd5b50356001600160a01b0316613167565b6105c460048036036020811015610f4f57600080fd5b50356001600160a01b0316613179565b6106dd60048036036020811015610f7557600080fd5b50356001600160a01b031661318b565b61065e6131b5565b6105c460048036036060811015610fa357600080fd5b506001600160a01b0381358116916020810135821691604090910135166131c4565b6105c46134ac565b6105c460048036036020811015610fe357600080fd5b50356001600160a01b03166134bc565b6105c46134ce565b6105c46004803603604081101561101157600080fd5b506001600160a01b0381351690602001356134d4565b6105c46004803603606081101561103d57600080fd5b506001600160a01b0381351690602081013590604001356134f6565b61065e61359f565b6105c46135a8565b6105c46004803603604081101561107f57600080fd5b506001600160a01b0381351690602001356135ae565b6106dd600480360360408110156110ab57600080fd5b506001600160a01b03813516906020013515156135cb565b6105c4600480360360208110156110d957600080fd5b50356001600160a01b03166135fe565b61065e6136fc565b6105c46004803603602081101561110757600080fd5b50356001600160a01b0316613705565b6105c46004803603602081101561112d57600080fd5b50356001600160a01b0316613717565b6105c4613729565b61065e61372f565b6105c46004803603602081101561116357600080fd5b50356001600160a01b031661373d565b6105c46004803603606081101561118957600080fd5b506001600160a01b0381358116916020810135909116906040013515156137de565b6109dc600480360360208110156111c157600080fd5b50356001600160a01b0316613879565b6105c4600480360360208110156111e757600080fd5b50356001600160a01b0316613911565b6105c4613923565b6105c46004803603602081101561121557600080fd5b50356001600160a01b0316613929565b6105c4600480360360a081101561123b57600080fd5b506001600160a01b038135169060208101359060408101359060608101359060800135151561393b565b6106dd6004803603606081101561127b57600080fd5b506001600160a01b038135811691602081013590911690604001356139e5565b6106dd600480360360208110156112b157600080fd5b50356001600160a01b0316613a06565b6106dd600480360360208110156112d757600080fd5b5035613a30565b6106dd600480360360208110156112f457600080fd5b5035613a3d565b611341600480360360a081101561131157600080fd5b506001600160a01b0381358116916020810135821691604082013516906060810135151590608001351515613a59565b6040805192835260208301919091528051918290030190f35b6106dd6004803603604081101561137057600080fd5b506001600160a01b038135169060200135613b10565b6105c46004803603602081101561139c57600080fd5b50356001600160a01b0316613b69565b6105c4613b7b565b6105c4600480360360c08110156113ca57600080fd5b506001600160a01b038135811691602081013582169160408201351690606081013515159060808101359060a00135613b81565b61065e6004803603602081101561141457600080fd5b50356001600160a01b0316613c35565b61065e6004803603602081101561143a57600080fd5b50356001600160a01b0316613c4a565b6105c4600480360360e081101561146057600080fd5b506001600160a01b0381351690602081013590604081013590606081013515159060808101359060a08101359060c00135613c5e565b6105c4613cef565b6106dd600480360360a08110156114b457600080fd5b506001600160a01b03813581169160208101358216916040820135811691606081013515159160809091013516613cf5565b6105c46140bb565b6105c46004803603602081101561150457600080fd5b50356001600160a01b03166140c1565b61062a6004803603602081101561152a57600080fd5b5035614139565b6106dd6004803603602081101561154757600080fd5b50356001600160a01b0316614160565b6106dd6004803603604081101561156d57600080fd5b506001600160a01b038135169060200135614233565b6105c46004803603602081101561159957600080fd5b50356001600160a01b0316614257565b6106dd600480360360208110156115bf57600080fd5b50351515614269565b6105c4600480360360408110156115de57600080fd5b506001600160a01b038135811691602001351661428f565b61065e6004803603602081101561160c57600080fd5b50356001600160a01b03166142e5565b61062a6142fa565b61062a614309565b6105c46004803603606081101561164257600080fd5b506001600160a01b038135169060208101359060400135614318565b6106dd6004803603604081101561167457600080fd5b506001600160a01b0381358116916020013516614352565b6105c461452b565b6105c4600480360360a08110156116aa57600080fd5b506001600160a01b038135811691602081013582169160408201351690606081013515159060800135614531565b6116f5600480360360208110156116ee57600080fd5b50356145a7565b6040805160208082528351818301528351919283929083019185019080838360005b8381101561172f578181015183820152602001611717565b50505050905090810190601f16801561175c5780820380516001836020036101000a031916815260200191505b509250505060405180910390f35b6001600160a01b038116600090815260256020526040812054806117925760009150506117c8565b6001600160a01b0383166000908152602660205260409020546117c49082906117be90620f4240614642565b9061469b565b9150505b919050565b6904ee2d6d415b85acef8160201b81565b601b5490565b6000816117f357506000611831565b60006117fe84612fbd565b6001600160a01b0385166000908152601d602052604090205490915061182c600a82900a6117be8685614642565b925050505b92915050565b600b5481565b61271081565b6006546001600160a01b031681565b60145481565b60095481565b6016546301000000900460ff1681565b60236020526000908152604090205481565b602c6020526000908152604090205481565b61189a6146da565b60168054911515620100000262ff000019909216919091179055565b3360009081526018602090815260408083206001600160a01b0394909416835292905220805460ff19166001179055565b6002546001600160a01b03163314611946576040805162461bcd60e51b815260206004820152601e60248201527f5661756c743a20696e76616c6964206572726f72436f6e74726f6c6c65720000604482015290519081900360640190fd5b600083815260306020526040902061195f908383615fb7565b50505050565b6000611831826119748461373d565b6117e4565b600080611985846140c1565b905060006119a3826117be8668327cb2734119d3b7a9601e1b614642565b60055490915061182c9082906001600160a01b031687611d1a565b604080516001600160601b0319606096871b811660208084019190915295871b811660348301529390951b9092166048850152151560f81b605c8401528051603d818503018152605d9093019052815191012090565b611a1c6146da565b600180549115156101000261ff0019909216919091179055565b600f5481565b600154610100900460ff1681565b60015460ff1681565b600080600560009054906101000a90046001600160a01b03166001600160a01b03166318160ddd6040518163ffffffff1660e01b815260040160206040518083038186803b158015611aa457600080fd5b505afa158015611ab8573d6000803e3d6000fd5b505050506040513d6020811015611ace57600080fd5b5051905080611ae15760009150506117c8565b6001600160a01b038316600090815260226020526040902054601554611b0b906117be8385614642565b949350505050565b611b1b6146da565b6001600160a01b0387166000908152601c602052604090205460ff16611b9857600754611b499060016146f5565b600755601b80546001810182556000919091527f3ad8aa4f87544323a9d1e5dd902f40c356527a7955687113db5f9a85ad579dc10180546001600160a01b0319166001600160a01b0389161790555b6015546001600160a01b038816600090815260226020526040902054611bbf90829061474d565b6001600160a01b0389166000908152601c602090815260408083208054600160ff1991821617909155601d83528184208c9055602283528184208b9055601e83528184208a905560248352818420899055601f83528184208054821689151517905591805290912080549091168415151790559050611c3e81876146f5565b6015555050505050505050565b60175481565b60015462010000900460ff1681565b611c686146da565b611c786101f48a1115600361478f565b611c886101f4891115600461478f565b611c986101f4881115600561478f565b611ca86101f4871115600661478f565b611cb86101f4861115600761478f565b611cc86101f4851115600861478f565b611ce36904ee2d6d415b85acef8160201b841115600961478f565b600a98909855600b96909655600c94909455600d92909255600e55600f556009556010556011805460ff1916911515919091179055565b60055460009081906001600160a01b03858116911614611d52576001600160a01b0384166000908152601d6020526040902054611d55565b60125b6005549091506000906001600160a01b03858116911614611d8e576001600160a01b0384166000908152601d6020526040902054611d91565b60125b9050611db082600a0a6117be83600a0a8961464290919063ffffffff16565b925050505b9392505050565b601f6020526000908152604090205460ff1681565b611dd96146da565b6001600160a01b03919091166000908152601960205260409020805460ff1916911515919091179055565b6000806000611e15878787876119be565b9050611e1f616035565b506000818152602b6020908152604091829020825160e081018452815480825260018301549382019390935260028201549381018490526003820154606082015260048201546080820152600582015460a082015260069091015460c082018190529092611e9392899290919089906126ed565b93509350505094509492505050565b60026000541415611ee8576040805162461bcd60e51b815260206004820152601f6024820152600080516020616088833981519152604482015290519081900360640190fd5b6002600055600154611f049062010000900460ff16601c61478f565b611f0c61483b565b611f1585614857565b611f208484836148ba565b60015460408051634eae147d60e11b81526001600160a01b038881166004830152878116602483015286811660448301526064820186905284151560848301529151630100000090930490911691639d5c28fa9160a480820192600092909190829003018186803b158015611f9457600080fd5b505afa158015611fa8573d6000803e3d6000fd5b50505050611fb68484614352565b6000611fc4868686856119be565b6000818152602b6020526040812091925083611fe857611fe386612fbd565b611ff1565b611ff1866140c1565b825490915061200257600282018190555b8154158015906120125750600085115b1561203857612032868360000154846002015487858a8860060154613c5e565b60028301555b6000612051898989888a886000015489600301546149cf565b9050600061205e89614b51565b9050600061206c8a836117e4565b60408051828152602081018290526012818301527118dbdb1b185d195c985b11195b1d18555cd960721b606082015290519192506000805160206160e8833981519152919081900360800190a160408051848152602081018290526003818301526266656560e81b606082015290516000805160206160e88339815191529181900360800190a160018501546040805191825260208201819052601382820152721c1bdcda5d1a5bdb8b98dbdb1b185d195c985b606a1b6060830152516000805160206160e88339815191529181900360800190a16040805189815260208101829052600a81830152695f73697a6544656c746160b01b606082015290516000805160206160e88339815191529181900360800190a1600185015461219190826146f5565b600186018190556121a690841115601d61478f565b60018501546121b5908461474d565b60018601556121c58a8a896137de565b600386015584546121d690896146f5565b8555426006860155604080518581526020810182905260058183015264707269636560d81b606082015290516000805160206160e88339815191529181900360800190a16040805183815260208101829052600f818301526e636f6c6c61746572616c44656c746160881b606082015290516000805160206160e88339815191529181900360800190a160408051828152602081018290526012818301527118dbdb1b185d195c985b11195b1d18555cd960721b606082015290516000805160206160e88339815191529181900360800190a184546122b8901515601e61478f565b6122ca85600001548660010154614bfe565b6122d88b8b8b8a6001613a59565b505060006122e68b8a6135ae565b60048701549091506122f890826146f5565b60048701556123078b82614c22565b871561234c576123208b61231b8b876146f5565b614cc2565b61232a8b83614d41565b6123348b84614dc0565b6123478b6123428d876134d4565b614ed8565b6123b8565b6001600160a01b038a166000908152602d6020526040902054612389576001600160a01b038a166000908152602e602052604090208590556123ae565b6123948a868b6134f6565b6001600160a01b038b166000908152602e60205260409020555b6123b88a8a614fab565b604080518881526001600160a01b03808f166020830152808e16828401528c1660608201526080810184905260a081018b905289151560c082015260e08101879052610100810186905290517f2fe68525253654c21998f35787a8d0f361905ef647c854092430ab65f2f15022918190036101200190a1855460018701546002880154600389015460048a015460058b0154604080518e81526020810197909752868101959095526060860193909352608085019190915260a084015260c083015260e08201879052516000805160206160a8833981519152918190036101000190a15050600160005550505050505050505050565b6002546001600160a01b031681565b60008060008060008060008060006124d78d8d8d8d6119be565b90506124e1616035565b602b60008381526020019081526020016000206040518060e001604052908160008201548152602001600182015481526020016002820154815260200160038201548152602001600482015481526020016005820154815260200160068201548152505090506000808260a0015113612561578160a00151600003612567565b8160a001515b9050816000015182602001518360400151846060015185608001518560008860a0015112158860c001519a509a509a509a509a509a509a509a5050505094995094995094999196509450565b60276020526000908152604090205481565b6101f481565b600c5481565b602b602052600090815260409020805460018201546002830154600384015460048501546005860154600690960154949593949293919290919087565b60008061261d868686866119be565b9050612627616035565b506000818152602b6020908152604091829020825160e0810184528154815260018201549281018390526002820154938101939093526003810154606084015260048101546080840152600581015460a08401526006015460c0830152612691901515602561478f565b602081015181516126a991906117be90612710614642565b979650505050505050565b60216020526000908152604090205481565b60196020526000908152604090205460ff1681565b60256020526000908152604090205481565b6000806126fe60008611602661478f565b6000846127135761270e886140c1565b61271c565b61271c88612fbd565b9050600081871161273657612731828861474d565b612740565b612740878361474d565b90506000612752886117be8b85614642565b905060008715612765575087831161276a565b508288115b6000612781601054896146f590919063ffffffff16565b42116127a5576001600160a01b038c166000908152601e60205260409020546127a8565b60005b90508180156127cb57506127bc8b82614642565b6127c884612710614642565b11155b156127d557600092505b509a909950975050505050505050565b6002600054141561282b576040805162461bcd60e51b815260206004820152601f6024820152600080516020616088833981519152604482015290519081900360640190fd5b600260009081556001600160a01b0382168152601c60205260409020546128569060ff16600e61478f565b600061286182614b51565b905061287160008211600f61478f565b61287b8282614dc0565b604080516001600160a01b03841681526020810183905281517fa5a389190ebf6170a133bda5c769b77f4d6715b8aa172ec0ddf8473d0b4944bd929181900390910190a150506001600055565b601860209081526000928352604080842090915290825290205460ff1681565b60075481565b602e6020526000908152604090205481565b600154630100000090046001600160a01b031681565b3360009081526018602090815260408083206001600160a01b0394909416835292905220805460ff19169055565b620f424081565b6129536146da565b600180546001600160a01b039092166301000000026301000000600160b81b0319909216919091179055565b6000600260005414156129c7576040805162461bcd60e51b815260206004820152601f6024820152600080516020616088833981519152604482015290519081900360640190fd5b60026000556129d4615063565b6001600160a01b0383166000908152601c60205260409020546129fb9060ff16601361478f565b6016805461ff001916610100179055600554600090612a22906001600160a01b0316614b51565b9050612a3260008211601461478f565b612a3c8485614352565b6000612a488583611979565b9050612a5860008211601561478f565b612a628583615092565b612a6c8582614ed8565b60055460408051632770a7eb60e21b81523060048201526024810185905290516001600160a01b0390921691639dc29fac9160448082019260009290919082900301818387803b158015612abf57600080fd5b505af1158015612ad3573d6000803e3d6000fd5b5050600554612aed92506001600160a01b03169050615150565b6001546040805163eb0835bf60e01b81526001600160a01b038881166004830152602482018690529151600093630100000090049092169163eb0835bf91604480820192602092909190829003018186803b158015612b4b57600080fd5b505afa158015612b5f573d6000803e3d6000fd5b505050506040513d6020811015612b7557600080fd5b505190506000612b868784846151eb565b9050612b9660008211601661478f565b612ba18782886152b3565b604080516001600160a01b03808916825289166020820152808201869052606081018390526080810184905290517fd732b7828fa6cee72c285eac756fc66a7477e3dc22e22e7c432f1c265d40b4839181900360a00190a16016805461ff001916905560016000559695505050505050565b612c1b6146da565b600480546001600160a01b0319166001600160a01b0392909216919091179055565b612c456146da565b60018054612c599160ff909116159061478f565b6001805460ff191681179055600380546001600160a01b03199081166001600160a01b039889161790915560058054821696881696909617909555600480549095169390951692909217909255600991909155601355601455565b6004546001600160a01b031681565b600a5481565b612cd16146da565b60018054911515620100000262ff000019909216919091179055565b600060026000541415612d35576040805162461bcd60e51b815260206004820152601f6024820152600080516020616088833981519152604482015290519081900360640190fd5b6002600055612d42615063565b6001600160a01b0383166000908152601c6020526040902054612d699060ff16601061478f565b6016805461ff0019166101001790556000612d8384614b51565b9050612d9360008211601161478f565b612d9d8485614352565b6000612da885612fbd565b90506000612dc668327cb2734119d3b7a9601e1b6117be8585614642565b600554909150612de290829088906001600160a01b0316611d1a565b9050612df260008211601261478f565b6001546040805163256f6ee360e11b81526001600160a01b0389811660048301526024820185905291516000936301000000900490921691634adeddc691604480820192602092909190829003018186803b158015612e5057600080fd5b505afa158015612e64573d6000803e3d6000fd5b505050506040513d6020811015612e7a57600080fd5b505190506000612e8b8886846151eb565b90506000612ea968327cb2734119d3b7a9601e1b6117be8488614642565b600554909150612ec59082908b906001600160a01b0316611d1a565b9050612ed1898261535a565b612edb8983614dc0565b600554604080516340c10f1960e01b81526001600160a01b038b8116600483015260248201859052915191909216916340c10f1991604480830192600092919082900301818387803b158015612f3057600080fd5b505af1158015612f44573d6000803e3d6000fd5b5050604080516001600160a01b03808d1682528d1660208201528082018a9052606081018590526080810187905290517fab4c77c74cd32c85f35416cf03e7ce9e2d4387f7b7f2c1f4bf53daaecf8ea72d93509081900360a0019150a16016805461ff0019169055600160005598975050505050505050565b60048054601654604080516317e1d38560e11b81526001600160a01b038681169582019590955260006024820181905260ff80851615156044840152610100909404909316151560648201529051919390921691632fc3a70a916084808301926020929190829003018186803b15801561303657600080fd5b505afa15801561304a573d6000803e3d6000fd5b505050506040513d602081101561306057600080fd5b505192915050565b6000600260005414156130b0576040805162461bcd60e51b815260206004820152601f6024820152600080516020616088833981519152604482015290519081900360640190fd5b60026000556130bd61483b565b6130c688614857565b6130d588888888888888615418565b600160005598975050505050505050565b6130ee6146da565b6001600160a01b03909116600090815260276020526040902055565b601281565b601e6020526000908152604090205481565b6131296146da565b613139610e10841015600a61478f565b613149612710831115600b61478f565b613159612710821115600c61478f565b601292909255601355601455565b602d6020526000908152604090205481565b601d6020526000908152604090205481565b6131936146da565b600280546001600160a01b0319166001600160a01b0392909216919091179055565b60165462010000900460ff1681565b60006002600054141561320c576040805162461bcd60e51b815260206004820152601f6024820152600080516020616088833981519152604482015290519081900360640190fd5b600260005560015461322790610100900460ff16601761478f565b6001600160a01b0384166000908152601c602052604090205461324e9060ff16601861478f565b6001600160a01b0383166000908152601c60205260409020546132759060ff16601961478f565b613295836001600160a01b0316856001600160a01b03161415601a61478f565b6016805461ff0019166101001790556132ae8480614352565b6132b88384614352565b60006132c385614b51565b90506132d360008211601b61478f565b60006132de86612fbd565b905060006132eb866140c1565b905060006132fd826117be8686614642565b905061330a818989611d1a565b9050600061332868327cb2734119d3b7a9601e1b6117be8787614642565b6005549091506133449082908b906001600160a01b0316611d1a565b60015460408051636d099c0b60e11b81526001600160a01b038d811660048301528c8116602483015260448201859052915193945060009363010000009093049091169163da13381691606480820192602092909190829003018186803b1580156133ae57600080fd5b505afa1580156133c2573d6000803e3d6000fd5b505050506040513d60208110156133d857600080fd5b5051905060006133e98a85846151eb565b90506133f58b8461535a565b6133ff8a84615092565b6134098b88614dc0565b6134138a85614ed8565b61341c8a6158a5565b6134278a828b6152b3565b604080516001600160a01b03808c168252808e1660208301528c1681830152606081018990526080810186905260a0810183905260c0810184905290517f0874b2d545cb271cdbda4e093020c452328b24af12382ed62c4d00f5c26709db9181900360e00190a16016805461ff001916905560016000559a9950505050505050505050565b68327cb2734119d3b7a9601e1b81565b602f6020526000908152604090205481565b60125481565b6000816134e357506000611831565b611db583836134f1866140c1565b614318565b6001600160a01b0383166000908152602d6020908152604080832054602e909252822054828582116135315761352c868361474d565b61353b565b61353b828761474d565b9050600061354d836117be8685614642565b9050868311600061355e86896146f5565b90506000826135765761357182856146f5565b613580565b613580828561474d565b9050613590816117be8c85614642565b9b9a5050505050505050505050565b60115460ff1681565b600d5481565b6000816135bd57506000611831565b611db583836134f186612fbd565b6135d36146da565b6001600160a01b03919091166000908152601a60205260409020805460ff1916911515919091179055565b6012546001600160a01b0382166000908152602a602052604081205490914291613627916146f5565b1115613635575060006117c8565b6012546001600160a01b0383166000908152602a60205260408120549091613662916117be90429061474d565b6001600160a01b0384166000908152602560205260409020549091508061368e576000925050506117c8565b6001600160a01b0384166000908152601f602052604081205460ff166136b6576013546136ba565b6014545b6001600160a01b0386166000908152602660205260409020549091506136f39083906117be9086906136ed908690614642565b90614642565b95945050505050565b60165460ff1681565b60226020526000908152604090205481565b60246020526000908152604090205481565b60085481565b601654610100900460ff1681565b6001600160a01b0381166000908152601f602052604081205460ff161561377d57506001600160a01b0381166000908152602560205260409020546117c8565b6001600160a01b0382166000908152602860205260408120546137a19084906134d4565b6001600160a01b0384166000908152602660209081526040808320546025909252909120549192506117c4916137d89084906146f5565b9061474d565b6001546040805163b1cc53ab60e01b81526001600160a01b038681166004830152858116602483015284151560448301529151600093630100000090049092169163b1cc53ab91606480820192602092909190829003018186803b15801561384557600080fd5b505afa158015613859573d6000803e3d6000fd5b505050506040513d602081101561386f57600080fd5b5051949350505050565b6001600160a01b0381166000908152602d60205260408120548190806138a657600080925092505061390c565b60006138b1856140c1565b6001600160a01b0386166000908152602e60205260408120549192508282116138e3576138de838361474d565b6138ed565b6138ed828461474d565b905060006138ff836117be8785614642565b9390921195509193505050505b915091565b60266020526000908152604090205481565b60135481565b60296020526000908152604090205481565b6001546040805163c7e074c360e01b81526001600160a01b03888116600483015260248201889052604482018790526064820186905284151560848301529151600093630100000090049092169163c7e074c39160a480820192602092909190829003018186803b1580156139af57600080fd5b505afa1580156139c3573d6000803e3d6000fd5b505050506040513d60208110156139d957600080fd5b50519695505050505050565b6139ed6146da565b613a016001600160a01b038316848361591a565b505050565b613a0e6146da565b600680546001600160a01b0319166001600160a01b0392909216919091179055565b613a386146da565b601755565b613a456146da565b613a546127108211600261478f565b600855565b6001546040805163d54d5a9f60e01b81526001600160a01b03888116600483015287811660248301528681166044830152851515606483015284151560848301528251600094859463010000009091049092169263d54d5a9f9260a4808301939192829003018186803b158015613acf57600080fd5b505afa158015613ae3573d6000803e3d6000fd5b505050506040513d6040811015613af957600080fd5b508051602090910151909890975095505050505050565b613b186146da565b6001600160a01b03821660009081526023602052604090205480821115613b5257613b4c83613b47848461474d565b61535a565b50613b65565b613a0183613b60838561474d565b615092565b5050565b602a6020526000908152604090205481565b60105481565b6001546040805163369d949360e21b81526001600160a01b0389811660048301528881166024830152878116604483015286151560648301526084820186905260a482018590529151600093630100000090049092169163da76524c9160c480820192602092909190829003018186803b158015613bfe57600080fd5b505afa158015613c12573d6000803e3d6000fd5b505050506040513d6020811015613c2857600080fd5b5051979650505050505050565b601c6020526000908152604090205460ff1681565b602080526000908152604090205460ff1681565b6000806000613c708a8a8a8a886126ed565b90925090506000613c818a876146f5565b905060008815613cb05783613c9f57613c9a828461474d565b613ca9565b613ca982846146f5565b9050613cd1565b83613cc457613cbf82846146f5565b613cce565b613cce828461474d565b90505b613cdf816117be8a85614642565b9c9b505050505050505050505050565b60155481565b60026000541415613d3b576040805162461bcd60e51b815260206004820152601f6024820152600080516020616088833981519152604482015290519081900360640190fd5b60026000556016546301000000900460ff1615613d705733600090815260196020526040902054613d709060ff16602261478f565b6016805460ff19169055613d848484614352565b6000613d92868686866119be565b9050613d9c616035565b506000818152602b6020908152604091829020825160e08101845281548082526001830154938201939093526002820154938101939093526003810154606084015260048101546080840152600581015460a08401526006015460c0830152613e08901515602361478f565b600080613e19898989896000613a59565b91509150613e2c8260001415602461478f565b8160021415613e6157613e49898989600087600001518b8f615418565b50506016805460ff19166001179055506140af915050565b6000613e6d89836134d4565b6001600160a01b038a166000908152602c6020526040902054909150613e9390826146f5565b6001600160a01b038a166000818152602c602090815260409182902093909355805191825291810184905280820183905290516000805160206161738339815191529181900360600190a1613eec89856080015161596c565b8615613f1b5760208401518451613f0d918b91613f089161474d565b614d41565b613f1b896123428b856134d4565b600087613f3057613f2b896140c1565b613f39565b613f3989612fbd565b90507f2e1f85a64a2f22cf2f0c42584e7c919ed4abe8d53675cff0f62bf1e95a1c676f868c8c8c8c8a600001518b602001518c608001518d60a001518a604051808b81526020018a6001600160a01b03168152602001896001600160a01b03168152602001886001600160a01b0316815260200187151581526020018681526020018581526020018481526020018381526020018281526020019a505050505050505050505060405180910390a187158015613ff85750846020015183105b1561402657602085015160009061400f908561474d565b90506140248b61401f8d846134d4565b614dc0565b505b8761403957614039898660000151615a21565b6000868152602b60205260408120818155600181018290556002810182905560038101829055600481018290556005810182905560060155600954614085908b906123429082906134d4565b61409b8a6140958c6009546134d4565b896152b3565b50506016805460ff19166001179055505050505b50506001600055505050565b600e5481565b60048054601654604080516317e1d38560e11b81526001600160a01b03868116958201959095526001602482015260ff80841615156044830152610100909304909216151560648301525160009390921691632fc3a70a91608480820192602092909190829003018186803b15801561303657600080fd5b601b818154811061414657fe5b6000918252602090912001546001600160a01b0316905081565b6141686146da565b6001600160a01b0381166000908152601c602052604090205461418f9060ff16600d61478f565b6001600160a01b0381166000908152602260205260409020546015546141b49161474d565b6015556001600160a01b0381166000908152601c60209081526040808320805460ff19908116909155601d835281842084905560228352818420849055601e835281842084905560248352818420849055601f83528184208054821690559180529091208054909116905560075461422d90600161474d565b60075550565b61423b6146da565b6001600160a01b039091166000908152602f6020526040902055565b60286020526000908152604090205481565b6142716146da565b6016805491151563010000000263ff00000019909216919091179055565b60006142996146da565b6001600160a01b0383166000908152602c6020526040902054806142c1576000915050611831565b6001600160a01b0384166000908152602c6020526040812055611db58482856152b3565b601a6020526000908152604090205460ff1681565b6005546001600160a01b031681565b6003546001600160a01b031681565b60008261432757506000611db5565b6001600160a01b0384166000908152601d60205260409020546136f3836117be86600a85900a614642565b6001546040805163fbfded6d60e01b81526001600160a01b03858116600483015284811660248301529151600093630100000090049092169163fbfded6d9160448082019260209290919082900301818787803b1580156143b257600080fd5b505af11580156143c6573d6000803e3d6000fd5b505050506040513d60208110156143dc57600080fd5b50519050806143eb5750613b65565b6001600160a01b0383166000908152602a602052604090205461443857601254614419906136ed428261469b565b6001600160a01b0384166000908152602a602052604090205550613b65565b6012546001600160a01b0384166000908152602a6020526040902054429161446091906146f5565b111561446c5750613b65565b6000614477846135fe565b6001600160a01b03851660009081526029602052604090205490915061449d90826146f5565b6001600160a01b0385166000908152602960205260409020556012546144c7906136ed428261469b565b6001600160a01b0385166000818152602a602090815260408083209490945560298152908390205483519283529082015281517fa146fc154e1913322e9817d49f0d5c37466c24326e15de10e739a948be815eab929181900390910190a150505050565b610e1081565b6001546040805163fdaf6ac360e01b81526001600160a01b038881166004830152878116602483015286811660448301528515156064830152608482018590529151600093630100000090049092169163fdaf6ac39160a480820192602092909190829003018186803b1580156139af57600080fd5b60306020908152600091825260409182902080548351601f60026000196101006001861615020190931692909204918201849004840281018401909452808452909183018282801561463a5780601f1061460f5761010080835404028352916020019161463a565b820191906000526020600020905b81548152906001019060200180831161461d57829003601f168201915b505050505081565b60008261465157506000611831565b8282028284828161465e57fe5b0414611db55760405162461bcd60e51b81526004018080602001828103825260218152602001806161086021913960400191505060405180910390fd5b6000611db583836040518060400160405280601a815260200179536166654d6174683a206469766973696f6e206279207a65726f60301b815250615a89565b6006546146f3906001600160a01b03163314603561478f565b565b600082820183811015611db5576040805162461bcd60e51b815260206004820152601b60248201527a536166654d6174683a206164646974696f6e206f766572666c6f7760281b604482015290519081900360640190fd5b6000611db583836040518060400160405280601e81526020017f536166654d6174683a207375627472616374696f6e206f766572666c6f770000815250615b2b565b600081815260306020526040902082613a015760405162461bcd60e51b815260206004820190815282546002600019610100600184161502019091160460248301819052909182916044909101908490801561482c5780601f106148015761010080835404028352916020019161482c565b820191906000526020600020905b81548152906001019060200180831161480f57829003601f168201915b50509250505060405180910390fd5b601754614847576146f3565b6146f36017543a1115603761478f565b336001600160a01b038216141561486d576148b7565b6003546001600160a01b0316331415614885576148b7565b6001600160a01b03811660009081526018602090815260408083203384529091529020546148b79060ff16602961478f565b50565b8015614933576148df826001600160a01b0316846001600160a01b031614602a61478f565b6001600160a01b0383166000908152601c60205260409020546149069060ff16602b61478f565b6001600160a01b0383166000908152601f602052604090205461492e9060ff1615602c61478f565b613a01565b6001600160a01b0383166000908152601c602052604090205461495a9060ff16602d61478f565b6001600160a01b0383166000908152601f60205260409020546149819060ff16602e61478f565b6001600160a01b0382166000908152601f60205260409020546149a99060ff1615602f61478f565b6001600160a01b0382166000908152602080526040902054613a019060ff16603061478f565b6000806149df8989898989614531565b905060006149f18a8a8a8a8989613b81565b90506149fd82826146f5565b91506000614a0b8a846134d4565b6001600160a01b038b166000908152602c6020526040902054909150614a3190826146f5565b6001600160a01b038b166000908152602c602090815260409182902092909255805185815291820181905260068282015265199959555cd960d21b6060830152516000805160206160e88339815191529181900360800190a16040805183815260208101829052600a818301526966756e64696e6746656560b01b606082015290516000805160206160e88339815191529181900360800190a1604080518281526020810182905260098183015268666565546f6b656e7360b81b606082015290516000805160206160e88339815191529181900360800190a1604080516001600160a01b038c1681526020810185905280820183905290516000805160206161738339815191529181900360600190a150909998505050505050505050565b6001600160a01b03811660008181526021602090815260408083205481516370a0823160e01b8152306004820152915193949093859391926370a08231926024808301939192829003018186803b158015614bab57600080fd5b505afa158015614bbf573d6000803e3d6000fd5b505050506040513d6020811015614bd557600080fd5b50516001600160a01b03851660009081526021602052604090208190559050611b0b818361474d565b81614c1457614c0f8115602761478f565b613b65565b613b6581831015602861478f565b6001600160a01b038216600090815260266020526040902054614c4590826146f5565b6001600160a01b038316600090815260266020818152604080842085905560258252909220549152614c7a911115603461478f565b604080516001600160a01b03841681526020810183905281517faa5649d82f5462be9d19b0f2b31a59b2259950a6076550bac9f3a1c07db9f66d929181900390910190a15050565b6001600160a01b038216600090815260286020526040902054614ce590826146f5565b6001600160a01b03831660008181526028602090815260409182902093909355805191825291810183905281517fd9d4761f75e0d0103b5cbeab941eeb443d7a56a35b5baf2a0787c03f03f4e474929181900390910190a15050565b6001600160a01b038216600090815260286020526040902054614d64908261474d565b6001600160a01b03831660008181526028602090815260409182902093909355805191825291810183905281517f34e07158b9db50df5613e591c44ea2ebc82834eff4a4dc3a46e000e608261d68929181900390910190a15050565b6001600160a01b038216600090815260256020526040902054614de390826146f5565b6001600160a01b03831660008181526025602090815260408083209490945583516370a0823160e01b8152306004820152935191936370a082319260248083019392829003018186803b158015614e3957600080fd5b505afa158015614e4d573d6000803e3d6000fd5b505050506040513d6020811015614e6357600080fd5b50516001600160a01b038416600090815260256020526040902054909150614e8f90821015603161478f565b604080516001600160a01b03851681526020810184905281517f976177fbe09a15e5e43f848844963a42b41ef919ef17ff21a17a5421de8f4737929181900390910190a1505050565b604080518082018252601a81527915985d5b1d0e881c1bdbdb105b5bdd5b9d08195e18d95959195960321b6020808301919091526001600160a01b038516600090815260259091529190912054614f30918390615b2b565b6001600160a01b03831660009081526025602090815260408083208490556026909152902054614f63911015603261478f565b604080516001600160a01b03841681526020810183905281517f112726233fbeaeed0f5b1dba5cb0b2b81883dee49fb35ff99fd98ed9f6d31eb0929181900390910190a15050565b6001600160a01b0382166000908152602d6020526040902054614fce90826146f5565b6001600160a01b0383166000908152602d6020908152604080832093909355602f905220548015613a01576001600160a01b0383166000908152602d6020526040902054811015613a01576040805162461bcd60e51b815260206004820152601a60248201527915985d5b1d0e881b585e081cda1bdc9d1cc8195e18d95959195960321b604482015290519081900360640190fd5b60165462010000900460ff16156146f357336000908152601a60205260409020546146f39060ff16603661478f565b6001600160a01b0382166000908152602360205260409020548181116150fb576001600160a01b0383166000818152602360209081526040808320929092558151928352820183905280516000805160206161298339815191529281900390910190a150613b65565b615105818361474d565b6001600160a01b0384166000818152602360209081526040918290209390935580519182529181018490528151600080516020616129833981519152929181900390910190a1505050565b6000816001600160a01b03166370a08231306040518263ffffffff1660e01b815260040180826001600160a01b0316815260200191505060206040518083038186803b15801561519f57600080fd5b505afa1580156151b3573d6000803e3d6000fd5b505050506040513d60208110156151c957600080fd5b50516001600160a01b0390921660009081526021602052604090209190915550565b6000806152086127106117be615201828761474d565b8790614642565b90506000615216858361474d565b6001600160a01b0387166000908152602c602052604090205490915061523c90826146f5565b6001600160a01b0387166000908152602c60205260409020557f47cd9dda0e50ce30bcaaacd0488452b596221c07ac402a581cfae4d3933cac2b8661528181846117e4565b604080516001600160a01b0390931683526020830191909152818101849052519081900360600190a150949350505050565b6152c76001600160a01b038416828461591a565b604080516370a0823160e01b815230600482015290516001600160a01b038516916370a08231916024808301926020929190829003018186803b15801561530d57600080fd5b505afa158015615321573d6000803e3d6000fd5b505050506040513d602081101561533757600080fd5b50516001600160a01b039093166000908152602160205260409020929092555050565b6001600160a01b03821660009081526023602052604090205461537d90826146f5565b6001600160a01b03831660009081526023602090815260408083209390935560249052205480156153cf576001600160a01b0383166000908152602360205260409020546153cf90821015603361478f565b604080516001600160a01b03851681526020810184905281517f64243679a443432e2293343b77d411ff6144370404618f00ca0d2025d9ca9882929181900390910190a1505050565b600154604080516381d11a2360e01b81526001600160a01b038a8116600483015289811660248301528881166044830152606482018890526084820187905285151560a483015284811660c4830152915160009363010000009004909216916381d11a239160e4808201928692909190829003018186803b15801561549c57600080fd5b505afa1580156154b0573d6000803e3d6000fd5b505050506154be8787614352565b60006154cc898989876119be565b6000818152602b602052604090208054919250906154ed901515601f61478f565b6154ff8682600001541015602061478f565b6155118782600101541015602161478f565b60018101548154600483015460009161552e916117be908b614642565b6004840154909150615540908261474d565b600484015561554f8b8261596c565b506000806155618d8d8d8d8d8d615b85565b8554919350915089146156e1576155798c8c8a6137de565b6003850155835461558a908a61474d565b808555600185015461559c9190614bfe565b6155aa8d8d8d8b6001613a59565b505087156155d7576155cd8c61231b86600101548661474d90919063ffffffff16565b6155d78c8a614d41565b6000886155ec576155e78c6140c1565b6155f5565b6155f58c612fbd565b90506000805160206160c8833981519152868f8f8f8f8f8f886156188c8c61474d565b60408051998a526001600160a01b0398891660208b015296881689880152949096166060880152608087019290925260a0860152151560c085015260e084019290925261010083019190915251908190036101200190a18454600186015460028701546003880154600489015460058a0154604080518d81526020810197909752868101959095526060860193909352608085019190915260a084015260c083015260e08201839052516000805160206160a8833981519152918190036101000190a150615843565b87156156fb576156f18c84614cc2565b6156fb8c8a614d41565b6000886157105761570b8c6140c1565b615719565b6157198c612fbd565b90506000805160206160c8833981519152868f8f8f8f8f8f8861573c8c8c61474d565b60408051998a526001600160a01b0398891660208b015296881689880152949096166060880152608087019290925260a0860152151560c085015260e084019290925261010083019190915251908190036101200190a18454600186015460028701546003880154600489015460058a0154604080518d81526020810197909752868101959095526060860193909352608085019190915260a084015260c0830152517f73af1d417d82c240fdb6d319b34ad884487c6bf2845d98980cc52ad9171cb4559181900360e00190a1506000858152602b602052604081208181556001810182905560028101829055600381018290556004810182905560058101829055600601555b87615852576158528b8a615a21565b811561589257871561586c5761586c8c6123428e856134d4565b60006158788d836134d4565b90506158858d828a6152b3565b95506126a9945050505050565b5060009c9b505050505050505050505050565b6001600160a01b03811660009081526027602090815260408083205460259092529091205410156148b7576040805162461bcd60e51b815260206004820152601a6024820152792b30bab63a1d103837b7b620b6b7bab73a101e10313ab33332b960311b604482015290519081900360640190fd5b604080516001600160a01b038416602482015260448082018490528251808303909101815260649091019091526020810180516001600160e01b031663a9059cbb60e01b179052613a01908490615d7f565b604080518082018252601b81527a5661756c743a20696e73756666696369656e74207265736572766560281b6020808301919091526001600160a01b0385166000908152602690915291909120546159c5918390615b2b565b6001600160a01b03831660008181526026602090815260409182902093909355805191825291810183905281517f533cb5ed32be6a90284e96b5747a1bfc2d38fdb5768a6b5f67ff7d62144ed67b929181900390910190a15050565b6001600160a01b0382166000908152602d602052604090205480821115615a6157506001600160a01b0382166000908152602d6020526040812055613b65565b615a6b818361474d565b6001600160a01b0384166000908152602d6020526040902055505050565b60008183615b155760405162461bcd60e51b81526004018080602001828103825283818151815260200191508051906020019080838360005b83811015615ada578181015183820152602001615ac2565b50505050905090810190601f168015615b075780820380516001836020036101000a031916815260200191505b509250505060405180910390fd5b506000838581615b2157fe5b0495945050505050565b60008184841115615b7d5760405162461bcd60e51b8152602060048201818152835160248401528351909283926044909101919085019080838360008315615ada578181015183820152602001615ac2565b505050900390565b6000806000615b96898989876119be565b6000818152602b60205260408120805460038201549394509092615bc3918d918d918d918b918d916149cf565b9050600080600080615be48d876000015488600201548d8a600601546126ed565b87549195508593509150615bfc906117be8d84614642565b925050506000828015615c0f5750600082115b15615c3f5750600584018054820190558088615c3f576000615c318e846134d4565b9050615c3d8e82614ed8565b505b82158015615c4d5750600082115b15615c91576001850154615c61908361474d565b600186015588615c85576000615c778e846134d4565b9050615c838e82614dc0565b505b60058501805483900390555b8a15615cb957615ca1818c6146f5565b6001860154909150615cb3908c61474d565b60018601555b84548a1415615cdc576001850154615cd29082906146f5565b6000600187015590505b8084811115615cf657615cef828661474d565b9050615d2a565b6001860154615d05908661474d565b60018701558915615d2a576000615d1c8f876134d4565b9050615d288f82614ed8565b505b60408051888152851515602082015280820185905290517f3ff41bdde87755b687ae83d0221a232b6be51a803330ed9661c1b5d0105e0d8a9181900360600190a1909e909d509b505050505050505050505050565b6060615dd4826040518060400160405280602081526020017f5361666545524332303a206c6f772d6c6576656c2063616c6c206661696c6564815250856001600160a01b0316615e309092919063ffffffff16565b805190915015613a0157808060200190516020811015615df357600080fd5b5051613a015760405162461bcd60e51b815260040180806020018281038252602a815260200180616149602a913960400191505060405180910390fd5b6060611b0b848460008585615e4485615f4b565b615e95576040805162461bcd60e51b815260206004820152601d60248201527f416464726573733a2063616c6c20746f206e6f6e2d636f6e7472616374000000604482015290519081900360640190fd5b60006060866001600160a01b031685876040518082805190602001908083835b60208310615ed45780518252601f199092019160209182019101615eb5565b6001836020036101000a03801982511681845116808217855250505050505090500191505060006040518083038185875af1925050503d8060008114615f36576040519150601f19603f3d011682016040523d82523d6000602084013e615f3b565b606091505b50915091506126a9828286615f51565b3b151590565b60608315615f60575081611db5565b825115615f705782518084602001fd5b60405162461bcd60e51b8152602060048201818152845160248401528451859391928392604401919085019080838360008315615ada578181015183820152602001615ac2565b828054600181600116156101000203166002900490600052602060002090601f016020900481019282601f10615ff85782800160ff19823516178555616025565b82800160010185558215616025579182015b8281111561602557823582559160200191906001019061600a565b50616031929150616072565b5090565b6040518060e00160405280600081526020016000815260200160008152602001600081526020016000815260200160008152602001600081525090565b5b80821115616031576000815560010161607356fe5265656e7472616e637947756172643a207265656e7472616e742063616c6c0020853733b590dce729d9f4628682ebd9a34d2354e72679e66f43a008fc03b77393d75d64d1f84fc6f430a64fc578bdd4c1e090e90ea2d51773e626d19de56d302ccccc5fa46a4a55e969e7340ef613f539c149a9908c6d7fd2bf9e158d9d3958536166654d6174683a206d756c7469706c69636174696f6e206f766572666c6f77e1e812596aac93a06ecc4ca627014d18e30f5c33b825160cc9d5c0ba61e452275361666545524332303a204552433230206f7065726174696f6e20646964206e6f7420737563636565645d0c0019d3d45fadeb74eff9d2c9924d146d000ac6bcf3c28bf0ac3c9baa011aa2646970667358221220470d48bfa55edea16f11364b5f4c6c9270f3763e0cfac94e0df0e4625656239864736f6c634300060c0033",
  "linkReferences": {},
  "deployedLinkReferences": {}
}